:10000000A4C700000C94198C0C94EE8B0C94C38B39
:100010000C94988B0C946D8B0C94428B0C94178BD6
:100020000C94EC8AC3C70000C1C70000BFC7000022
:10003000BDC70000BBC70000B9C70000B7C70000BC
:10004000B5C70000B3C70000B1C70000AFC70000CC
:10005000ADC70000ABC70000A9C700000C94A28A7E
:10006000A5C700000C9448490C941F499FC7000085
:100070009DC700009BC7000099C7000097C70000FC
:1000800095C7000093C7000091C700008FC700000C
:100090008DC700008BC7000089C700000C94317C1D
:1000A00085C7000083C7000081C700007FC700002C
:1000B0007DC700007BC7000079C7000077C700003C
:1000C00075C7000073C7000071C700006FC700004C
:1000D0006DC700006BC7000069C7000067C700005C
:1000E00065C70000B23BEA1E993B843BAE3B843BB4
:1000F0009A3BB03B843BB23B843B973BB23BBF3B1C
:10010000993B843BAE3B843B9A3BB03B843BB23B48
:10011000843B973B5E4D314C1D4C3E4C384C354C2E
:10012000DC4B084C1A841C841E8420842284248482
:10013000268428842A842C842E8430843284348437
:10014000368438846A896D895C8960896689A48966
:10015000718975897B897F89838989898D8991894D
:10016000A48997899B899F89504C454145532048D4
:100170004F4C4421212100504820445249465420EC
:10018000464958494E4700504C4541455320484F39
:100190004C442121210050482044524946542046D5
:1001A0004958494E4700504C4541534520484F4C13
:1001B0004421212100544F5050494E47204F46467C
:1001C00020454300504C4541534520484F4C442165
:1001D00021210046454544494E4720504C414E544C
:1001E0005300504C4541534520484F4C4421212158
:1001F00000464C555348494E4720504C414E5453AD
:1002000000504C4541534520484F4C442121004467
:100210004F53494E4720524547494D454E003C6299
:1002200061636B3E2020202020203C6F6B3E0067E6
:10023000616C006C71642F003C6261636B3E202036
:10024000202020203C6F6B3E0020524547494D4501
:100250004E20444F534553003C6E6F3E20202020DB
:1002600020203C7965733E0020434F4E4649524D55
:1002700020524553455420003C696E3E3C6F7574D6
:100280003E203C646F6E653E004D414E55414C2012
:10029000464C555348494E4700002A004275696C48
:1002A00064696E672043726F702E2E2E00204C4FB3
:1002B0004144494E47202043524F50202000504C8B
:1002C0004541534520484F4C4421210043524F5053
:1002D00020524553455454494E4700504C454153D4
:1002E0004520484F4C442E2E2E00534156494E4730
:1002F00020524547494D454E00454343414C4C4FE4
:1003000057004E4F572046494E4953484544210017
:1003100045432043414C4942524154494F4E0045C8
:100320004343414C00454343414C48490045434306
:10033000414C4C4F57004E4F572046494E49534869
:100340004544210050482043414C494252415449C0
:100350004F4E00504843414C4D49440050484341A2
:100360004C484900504843414C4C4F57005048437B
:10037000414C4D49440020504C4541534520484F85
:100380004C442E2E2E2000414444494E47205245D5
:1003900047494D454E530020504C45415345204858
:1003A0004F4C442E2E2E20005452494D205245478A
:1003B000494D454E530043726F70204E616D65206C
:1003C0003C646F6E653E00416C72656164792045E6
:1003D000786973747300536F7272792C2043726F53
:1003E000700043726F70204E616D65203C646F6ECB
:1003F000653E0043726F70204E616D657300536FF0
:100400007272792C204E6F20426C616E6B003C62E0
:1004100061636B3E2020202020203C6F6B3E00203B
:1004200053752F3031002D00504D00414D003C627E
:1004300061636B3E2020202020203C6F6B3E003A01
:10044000002D003A00504D00414D0020202020207A
:1004500020202020203C646F6E653E0020544F20F9
:100460005052494D4520434830003C6261636B3E29
:100470002020202020203C6F6B3E00205245474921
:100480004D454E20444F534553007C3C3E5E2B3D32
:100490003F2F5B5D3B2C2A225C0020506C65617312
:1004A0006520486F6C642E2E2E20004E6577204309
:1004B000726F702053657475700020506C656173A5
:1004C0006520486F6C642E2E2E20004E65772044E8
:1004D0007269766520466F756E6421002020504C4D
:1004E0004541534520484F4C442020004C4F414447
:1004F000494E472043524F502E2E2E00000000211F
:1005000000240027002A002D0030003300010100E4
:1005100000040107010A015245515549524544530F
:100520004400496E7365727420416E642052657395
:10053000657400534420436172642052657175698B
:10054000726564003C6261636B3E202020202020A5
:100550003C6F6B3E002050480020003C6261636BA2
:100560003E202020203C646F6E653E002045432FD6
:1005700030002045432F0000300030303000303054
:1005800000003000303030003030005052455620EE
:10059000524547494D454E004E4558542052454717
:1005A000494D454E00504C4541534520484F4C4421
:1005B0002E2E2E003C6261636B3E20203C6F7065E6
:1005C0006E3E003C6261636B3E202020203C646FE5
:1005D0006E653E003C6261636B3E202020203C6ED5
:1005E0006578743E003C63616E63656C3E20203C20
:1005F0006E6578743E00303030303030002043413A
:100600004C2D20002043414C202D200020534F4CE6
:100610005554494F4E00494E2000504C414345200F
:1006200045432050524F4245530046524F4D2057AC
:1006300041544552204E4F57210052454D4F56458B
:100640002050524F424553005354415254494E4753
:10065000204E4F57002043414C4942524154494F8C
:100660004E003C6261636B3E202020203C6E65782A
:10067000743E003C6261636B3E202020203C646F2E
:100680006E653E003C63616E63656C3E20203C6E8F
:100690006578743E002E30002043414C202D200010
:1006A00020534F4C5554494F4E00494E2000504C5A
:1006B0004143452050524F424553005354415254F8
:1006C000494E47204E4F57002043414C494252412A
:1006D00054494F4E003C6261636B3E202020202035
:1006E000203C6F6B3E003000414D00504D002F000C
:1006F0002000414D00504D00504D00414D005361D0
:10070000004669005468005765005475004D6F003D
:10071000537500203C6261636B3E203C6F6B3E0072
:10072000200020003A00414D00504D003C626163C2
:100730006B3E2020202020203C6F6B3E0020434F4A
:100740004E43454E545241544500352F3600342F08
:100750003600332F3600322F3600312F36003C6200
:1007600061636B3E2020202020203C6F6B3E0054B4
:100770005046202867616C2920003C6261636B3E13
:100780002020202020203C6F6B3E0020544F504FF3
:1007900046462044454C4159003C6261636B3E2013
:1007A00020202020203C6F6B3E00204D696E287376
:1007B0002920447261696E00300039393939003CB2
:1007C0006261636B3E2020202020203C6F6B3E0046
:1007D000204F555400494E00446563004E6F76002B
:1007E0004F63740053657000417567004A756C0073
:1007F0004A756E004D61790041706C004D61720068
:10080000466562004A616E0054494D455300535499
:1008100041525420454E4400005354415254454ED9
:100820004400534F4C5554494F4E005052494D458A
:100830002050554D50000000005052494D45004693
:100840004C555348494E47004D414E55414C20535D
:10085000595354454D004D414E464C555348004662
:100860004C4F57204D455445525300464C4F57432B
:10087000414C0050554D5043414C0050554D502077
:10088000444F5345494E470000000044454C4159F0
:1008900000524547494D454E5320286D6C29004173
:1008A0004D4F554E54005745454B53005745454B0A
:1008B0005300524547494D454E20444F5345530040
:1008C0004E554D424552204F4600524547494D45F1
:1008D0004E5300445241494E2054494D4500445224
:1008E0004E54494D4500414D4F554E5400545046CD
:1008F000414D540000545046444C590000434F4E63
:1009000043454E545241544500544F50204F4646A3
:100910000054504643434E5400564F4C554D4520CD
:10092000434F4E464947005245534552564F495250
:100930000052535652564F4C005354415455530095
:100940005245534554005245534554000044454CCC
:100950004554450044454C455445004E4557004ECE
:100960004557004F50454E004F50454E00414D4FAA
:10097000554E5420434F4E464947005048414D4E36
:10098000540044454C415920434F4E464947555227
:10099000450050482041444A5553544D454E54005B
:1009A0005048444C590050482050524F4245000096
:1009B00000504843414C0043414C49425241544548
:1009C0000045432050524F4245000000000045437F
:1009D00043414C0050482052414E47450050485238
:1009E000414E47450045432F50504D2052414E4700
:1009F0004500454352414E474500434F4E46494707
:100A000055524154494F4E004441544520262054EC
:100A1000494D45004441544554494D450054494DC4
:100A200045520054494D455253004952524947419D
:100A300054494F4E00495252490043524F500050C2
:100A4000554D50000050554D505300534554544996
:100A50004E47530053595354454D005359530000CA
:100A60003C6261636B3E2020202020203C6F6B3E67
:100A700000286D6C2920706572206D696E00003051
:100A8000003030003C6261636B3E2020202020203B
:100A90003C6F6B3E00204D696E2873292044656CC5
:100AA0006179003C707265763E202020203C646FA6
:100AB0006E653E003C707265763E202020203C6EC4
:100AC0006578743E003C6261636B3E202020203CD0
:100AD0006E6578743E006D6C0020005245474920D9
:100AE00000303030302E30300030303000303000C8
:100AF000300000303030302E3000002050483A00B6
:100B000050504D3A00200020003A0004080008FC34
:100B100007F807F407F007EC07E807E407E007DC4D
:100B200007D8075B0A540A4B0A450A3F0A4B0A3AA0
:100B30000A3A0A4B0A350A2A0A4B0A230A1D0A4BAB
:100B40000A140A080AFA09F209E509FA09DD09D4C2
:100B500009FA09CE09C109B709B109A609B709A05F
:100B600009920982097B0992096D09680963093AAA
:100B70000A5F095B093A0A54094D093A0A460940D5
:100B8000093A0A39093A0A390931092709190911B3
:100B9000090909FD08F50809098209ED080909E6AE
:100BA00008DE08D308FA09CA08C008B208AC08C0B1
:100BB00008A6089F089108FA098B087B0882097328
:100BC000083F0AB7096B085F08B709560848083F8D
:100BD0000839082B08220819080E0808085245434E
:100BE00045505441434C45200054494D4544005024
:100BF000554D50200053595354454D00390038008D
:100C00003700360035003400330032003100300048
:100C10005A00590058005700560055005400530020
:100C20005200510050004F004E004D004C004B0050
:100C30004A00490048004700460045004400430080
:100C400042004100200043726F70204E616D6520AC
:100C50003C646F6E653E004E455700440C420C40AC
:100C60000C3E0C3C0C3A0C380C360C340C320C306C
:100C70000C2E0C2C0C2A0C280C260C240C220C20DC
:100C80000C1E0C1C0C1A0C180C160C140C120C104C
:100C90000C0E0C0C0C0A0C080C060C040C020C00BC
:100CA0000CFE0BFC0B52554E4E494E470050415521
:100CB000534544003C6261636B3E2020202020208D
:100CC0003C6F6B3E005354415455533A20003C62F4
:100CD00061636B3E2020202020203C6F6B3E005043
:100CE000482041444A20286D6C2920003C62616301
:100CF0006B3E2020202020203C6F6B3E005048207F
:100D0000444C5920286D696E2920000102102020D2
:100D1000080810204010204080020102010804024F
:100D200001010204081020408080402010080402C5
:100D3000018004020180402010080402010804021E
:100D40000101020408102040800102040810204024
:100D50008000002200250028002B002E00310034E6
:100D60000002010000050108010B0105050505074A
:100D70000508080808020202020A0A080804040416
:100D80000401010101010101010303030303030342
:100D900003040707070C0C0C0C0C0C0C0C020202D1
:100DA0000206060606060606060B0B0B0B0B0B0BC4
:100DB0000B000020002300260029002C002F003209
:100DC000000001000003010601090100000A0B02F6
:100DD000090C0D0E080703040100000000000000CC
:100DE0000000000000000000000000000000000003
:100DF00000000000000000121110000000000000C0
:100E000000000000000000000000000000000000E2
:100E1000004E414E494E495459494E46CDCCCC3DE9
:100E20000AD7233C17B7D13877CC2B329595E624D7
:100E30001FB14F0A000020410000C84200401C467C
:100E400020BCBE4CCA1B0E5AAEC59D7400407A1021
:100E5000F35A00A0724E18090010A5D4E80000E86B
:100E60007648170000E40B54020000CA9A3B0000C9
:100E700000E1F505000080969800000040420F0058
:100E80000000A08601000000102700000000E80319
:100E9000000000006400000000000A0000000000E4
:100EA0000100000000002C76D888DC674F0823DFA3
:100EB000C1DFAE59E1B1B796E5E3E453C63AE65176
:100EC000997696E8E6C28426EB898C9B62ED407C9D
:100ED0006FFCEFBC9C9F40F2BAA56FA5F490055A39
:100EE0002AF75C936B6CF9676DC11BFCE0E40D475E
:100EF000FEF520E6B500D0ED902E03009435770581
:100F00000080841E080000204E0A000000C80C3338
:100F10003333330F986E12831141EF8D2114893BC7
:100F2000E65516CFFEE6DB18D1844B381BF77C1D47
:100F3000901DA4BBE424203284725E228100C9F19A
:100F400024ECA1E53D2753951D9511241FBECFEF3D
:100F5000D1E2DEBFCDBF00E00CBF17E0A0E0B2E001
:100F6000E0E8F6E401E00BBF02C007900D92A43D5B
:100F7000B107D9F72DE0A4EDB7E001C01D92AF3362
:100F8000B207E1F717E0C4EAD7E000E006C0219716
:100F90000109802FFE010E94F196C33AD10780E03B
:100FA0000807A9F70E94B6910C942EA329C82F9286
:100FB0003F924F925F926F927F928F929F92AF92E9
:100FC000BF92CF92DF92EF92FF920F931F93CF9336
:100FD000DF93CDB7DEB7C251D6400FB6F894DEBF6F
:100FE0000FBECDBF80917B00877F80937B0080E424
:100FF00080937C0080917A00806480937A00809155
:101000007A00282F2074322E86FDF9CF8091780047
:101010002091790090E0922B9093E9078093E80764
:101020008B38924090F40E94968A6093E407709304
:10103000E5078093E6079093E70760934008709375
:10104000410880934208909343080E94968A009139
:10105000E0071091E1072091E2073091E307DC01FE
:10106000CB01801B910BA20BB30B883E9340A105D3
:10107000B10508F4F5C00E94EF6B61E677E08EE100
:101080009DE00E94B269882309F473C00E94968A89
:101090000091E4071091E5072091E6073091E707FA
:1010A000DC01CB01801B910BA20BB30B803197426B
:1010B000A105B10508F45DC080913809813009F0BF
:1010C00058C02AE037ED43E25CE360913408709148
:1010D000350880913608909137080E942698181696
:1010E00094F02AE037ED43E25CE3609130087091C0
:1010F000310880913208909133080E942698181682
:1011000014F00C94E2332AE037ED43E25CE36091A3
:1011100030087091310880913208909133080E9414
:101120002698181614F00C9402342AE037ED43E2A6
:101130005CE3609134087091350880913608909195
:1011400037080E942698181614F00C9428342AE0C8
:1011500037ED43E25CE3609134087091350880918B
:101160003608909137080E942698181614F00C94AF
:101170006A3469EF73E08EE19DE00E94B2698823D2
:1011800009F464C020E030E040E752E460913408A4
:101190007091350880913608909137080E948097A9
:1011A00020E030E04AE754E40E94B89F20914E08C6
:1011B00030914F0840915008509151080E94159766
:1011C00060934E0870934F08809350089093510895
:1011D0002CEB30E14EE855E40E9480976B017C01D6
:1011E00060932C0870932D0880932E0890932F08FD
:1011F00086ED9CE00E94F14D41E050E0C701B60150
:101200000E94E07483E392E00E94F8852DE13AE2C7
:1012100045E55FE3C701B6010E94B89F41E050E099
:101220000E94E0748FE292E00E94F88561E080E025
:101230000E9419868EE192E00E94F885609126084E
:10124000809125080E9419860E94E4850E94968A52
:101250006093E0077093E1078093E2079093E307C0
:101260000E94968A009140081091410820914208FE
:1012700030914308DC01CB01801B910BA20BB30B17
:10128000803D9740A105B10548F10E94968A0091E2
:10129000E4071091E5072091E6073091E707DC01AC
:1012A000CB01801B910BA20BB30B80319742A105A0
:1012B000B105A0F061E677E08EE19DE00E94B269A1
:1012C000882361F00E94966F0E94968A609340087E
:1012D0007093410880934208909343081091270827
:1012E0000E94C784CB53DA4F2883C55CD540CA53CC
:1012F000DA4F3883C65CD540C953DA4F4883C75CA0
:10130000D540C853DA4F5883C85CD540C753DA4F2D
:101310006883C95CD540C653DA4F7883CA5CD54030
:10132000C553DA4F8883CB5CD540C453DA4F9883DA
:10133000CC5CD540131771F10E94505C0E94C784A9
:10134000C354DA4F2883CD5BD540C254DA4F38837B
:10135000CE5BD540C154DA4F4883CF5BD540C054F3
:10136000DA4F5883C05CD540CF53DA4F6883C15CF5
:10137000D540CE53DA4F7883C25CD540CD53DA4F97
:101380008883C35CD540CC53DA4F9883C45CD54086
:10139000309327084090E8075090E9074114510422
:1013A00039F088E9481681E0580611F00C94F615DA
:1013B00061E074E08EE19DE00E94B269882309F447
:1013C000A7C04CEF52E062E070E09E0127523A4F16
:1013D0008E010F5F1F4FC8010E9476914AEF52E0C5
:1013E00062E070E09E012D523A4FCE0108960E94B5
:1013F000769148EF52E062E070E09E0123533A4F4D
:10140000CE010F960E94769146EF52E062E070E0C6
:101410009E012E553A4FCE0146960E947691A80124
:1014200064E070E06E019BECC91A9CEFD90A9E0142
:1014300029573A4FC6010E94169144EF52E062E0EC
:1014400070E07E01ABEFEA1AADEFFA0A9E01245973
:101450003A4FC7010E94769142EF52E062E070E09D
:101460003701B7E06B0E711C9E012F5A3A4FC30132
:101470000E94769140EF52E062E070E05701EEE0AA
:10148000AE0EB11C9E01235D3A4FC5010E947691BC
:10149000A70163E070E04601F7E08F0E911C9E010A
:1014A00027513B4FC4010E941691A60162E070E0F3
:1014B0009E012B553B4FCE0183509C4F0E94AC7F29
:1014C000CE0183509C4F0E943665CE0183509C4FC5
:1014D0000E948A7FC4010E94677FC6010E94677FC5
:1014E000C5010E941291C3010E941291C7010E947E
:1014F0001291CE0146960E941291CE010F960E9443
:101500001291CE0108960E941291C8010E94129178
:101510006AE074E08EE19DE00E94B269882309F4DC
:101520005BC04EEE52E062E070E08E010B5C1C4F3F
:101530009E0124593A4FC8010E947691A80161E0AA
:1015400070E09E012F5A3A4FCE0101966C010E9425
:1015500016914CEE52E062E070E07E019BEFE91ADA
:101560009DEFF90A9E01235D3A4FC7010E947691D3
:10157000A70161E070E09E0127513B4FCE01089624
:101580000E941691A60162E070E09E012B553B4F30
:10159000CE0183509C4F0E94AC7FCE0183509C4F64
:1015A0000E943665CE0183509C4F0E948A7FCE01F7
:1015B00008960E94677FC6010E94677FC7010E944C
:1015C0001291C8010E941291452831F480E090E008
:1015D0000E9445810E94E4856EE074E08EE19DE00A
:1015E0000E94B269882309F465C04AEE52E062E0C5
:1015F00070E07E01ABECEA1AACEFFA0A9E012957C3
:101600003A4FC7010E947691A70161E070E08E0118
:101610000B5F1D4F9E0124593A4FC8010E9416913D
:1016200048EE52E062E070E09E012F5A3A4FFE0110
:1016300031966F01CF010E94769146EE52E062E052
:1016400070E09E01235D3A4FCE0108960E9476918C
:10165000A60162E070E05801F7E0AF0EB11C9E01F8
:1016600027513B4FC5010E941691A80162E070E02E
:101670009E012B553B4FCE0183509C4F0E94AC7F67
:10168000CE0183509C4F0E943665CE0183509C4F03
:101690000E948A7FC5010E94677FC8010E94677F00
:1016A000CE0108960E941291C6010E941291C701B4
:1016B0000E94129163E174E08EE19DE00E94B269A4
:1016C000882309F464C044EE52E062E070E07E01D9
:1016D0002BECE21A2CEFF20A9E0129573A4FC70170
:1016E0000E947691A70161E070E08E010B5F1D4FB3
:1016F0009E0124593A4FC8010E94169142EE52E0D1
:1017000062E070E09E012F5A3A4FCE0101966C01C3
:101710000E94769140EE52E062E070E09E01235D0F
:101720003A4FCE0108960E947691A60162E070E0E1
:10173000580197E0A90EB11C9E0127513B4FC501EE
:101740000E941691A80162E070E09E012B553B4F6C
:10175000CE0183509C4F0E94AC7FCE0183509C4FA2
:101760000E943665CE0183509C4F0E948A7FC5013E
:101770000E94677FC8010E94677FCE0108960E9481
:101780001291C6010E941291C7010E94129169E153
:1017900074E08EE19DE00E94B269882309F465C07F
:1017A0004EED52E062E070E07E01ABECEA1AACEF85
:1017B000FA0A9E0129573A4FC7010E947691A70164
:1017C00061E070E08E010B5F1D4F9E0124593A4F7E
:1017D000C8010E9416914CED52E062E070E09E015B
:1017E0002F5A3A4FFE0131966F01CF010E94769138
:1017F0004AED52E062E070E09E01235D3A4FCE0177
:1018000008960E947691A60162E070E05801F7E028
:10181000AF0EB11C9E0127513B4FC5010E9416918E
:10182000A80162E070E09E012B553B4FCE01835032
:101830009C4F0E94AC7FCE0183509C4F0E94366526
:10184000CE0183509C4F0E948A7FC5010E94677F12
:10185000C8010E94677FCE0108960E941291C601BE
:101860000E941291C7010E94129160E274E08EE121
:101870009DE00E94B269882309F484C048ED52E0DB
:1018800062E070E09E0123533A4FCE0101966C0155
:101890000E94769146ED52E062E070E09E012E5586
:1018A0003A4FCE0108960E94769144ED52E062E0F4
:1018B00070E09E0129573A4FCE010F960E94769113
:1018C000A60163E070E07E019BECE91A9CEFF90A47
:1018D0009E0124593A4FC7010E94169142ED52E0F1
:1018E00062E070E08E010B5F1D4F9E012F5A3A4F50
:1018F000C8010E94769140ED52E062E070E058012C
:10190000A7E0AA0EB11C9E01235D3A4FC5010E94BB
:101910007691A80162E070E04701B7E08B0E911C60
:101920009E0127513B4FC4010E941691A70162E01E
:1019300070E09E012B553B4FCE0183509C4F0E947F
:10194000AC7FCE0183509C4F0E943665CE01835000
:101950009C4F0E948A7FC4010E94677FC7010E943A
:10196000677FC5010E941291C8010E941291CE01A9
:101970000F960E941291CE0108960E941291C60104
:101980000E94129168E274E08EE19DE00E94B269CB
:10199000882309F475C04EEC52E062E070E08E01DD
:1019A0000B5F1D4F9E012E553A4FC8010E94769144
:1019B0004CEC52E062E070E05801E7E0AE0EB11C82
:1019C0009E0129573A4FC5010E947691A80162E015
:1019D00070E07E01FBECEF1AFCEFFF0A9E01245938
:1019E0003A4FC7010E9416914AEC52E062E070E063
:1019F0009E012F5A3A4FCE0101966C010E947691BA
:101A000048EC52E062E070E09E01235D3A4FCE0167
:101A100008960E947691A60162E070E0470197E087
:101A2000890E911C9E0127513B4FC4010E941691C3
:101A3000A70162E070E09E012B553B4FCE01835021
:101A40009C4F0E94AC7FCE0183509C4F0E94366514
:101A5000CE0183509C4F0E948A7FC4010E94677F01
:101A6000C7010E94677FCE0108960E941291C601AD
:101A70000E941291C5010E941291C8010E94129108
:101A800060E374E08EE19DE00E94B269882309F46E
:101A900065C046EC52E062E070E07E01ABECEA1A11
:101AA000ACEFFA0A9E0129573A4FC7010E9476917E
:101AB000A70161E070E08E010B5F1D4F9E0124596C
:101AC0003A4FC8010E94169144EC52E062E070E087
:101AD0009E012F5A3A4FFE0131966F01CF010E94AD
:101AE000769142EC52E062E070E09E01235D3A4F55
:101AF000CE0108960E947691A60162E070E058013E
:101B0000F7E0AF0EB11C9E0127513B4FC5010E946B
:101B10001691A80162E070E09E012B553B4FCE016B
:101B200083509C4F0E94AC7FCE0183509C4F0E94FB
:101B30003665CE0183509C4F0E948A7FC5010E946A
:101B4000677FC8010E94677FCE0108960E941291AC
:101B5000C6010E941291C7010E94129166E374E0CF
:101B60008EE19DE00E94B269882309F464C040ECD4
:101B700052E062E070E07E012BECE21A2CEFF20AF8
:101B80009E0129573A4FC7010E947691A70161E053
:101B900070E08E010B5F1D4F9E0124593A4FC80122
:101BA0000E9416914EEB52E062E070E09E012F5AC7
:101BB0003A4FCE0101966C010E9476914CEB52E0B7
:101BC00062E070E09E01235D3A4FCE0108960E94CC
:101BD0007691A60162E070E0580197E0A90EB11C71
:101BE0009E0127513B4FC5010E941691A80162E05A
:101BF00070E09E012B553B4FCE0183509C4F0E94BD
:101C0000AC7FCE0183509C4F0E943665CE0183503D
:101C10009C4F0E948A7FC5010E94677FC8010E9475
:101C2000677FCE0108960E941291C6010E94129110
:101C3000C7010E94129169EF73E08EE19DE00E945E
:101C4000B269882309F465C04AEB52E062E070E0B3
:101C50007E01ABECEA1AACEFFA0A9E0129573A4F23
:101C6000C7010E947691A70161E070E08E010B5FD1
:101C70001D4F9E0124593A4FC8010E94169148EB0E
:101C800052E062E070E09E012F5A3A4FFE01319619
:101C90006F01CF010E94769146EB52E062E070E066
:101CA0009E01235D3A4FCE0108960E947691A601CF
:101CB00062E070E05801F7E0AF0EB11C9E012751C1
:101CC0003B4FC5010E941691A80162E070E09E01A1
:101CD0002B553B4FCE0183509C4F0E94AC7FCE01D1
:101CE00083509C4F0E943665CE0183509C4F0E94CA
:101CF0008A7FC5010E94677FC8010E94677FCE016D
:101D000008960E941291C6010E941291C7010E947A
:101D100012916DE374E08EE19DE00E94B269882328
:101D200009F464C044EB52E062E070E07E012BEC09
:101D3000E21A2CEFF20A9E0129573A4FC7010E947E
:101D40007691A70161E070E08E010B5F1D4F9E014F
:101D500024593A4FC8010E94169142EB52E062E0CA
:101D600070E09E012F5A3A4FCE0101966C010E94FD
:101D7000769140EB52E062E070E09E01235D3A4FC5
:101D8000CE0108960E947691A60162E070E05801AB
:101D900097E0A90EB11C9E0127513B4FC5010E943F
:101DA0001691A80162E070E09E012B553B4FCE01D9
:101DB00083509C4F0E94AC7FCE0183509C4F0E9469
:101DC0003665CE0183509C4F0E948A7FC5010E94D8
:101DD000677FC8010E94677FCE0108960E9412911A
:101DE000C6010E941291C7010E94129163E474E03F
:101DF0008EE19DE00E94B269882309F465C04EEA35
:101E000052E062E070E07E01ABECEA1AACEFFA0A55
:101E10009E0129573A4FC7010E947691A70161E0C0
:101E200070E08E010B5F1D4F9E0124593A4FC8018F
:101E30000E9416914CEA52E062E070E09E012F5A37
:101E40003A4FFE0131966F01CF010E9476914AEA26
:101E500052E062E070E09E01235D3A4FCE010896A9
:101E60000E947691A60162E070E05801F7E0AF0EA3
:101E7000B11C9E0127513B4FC5010E941691A8013C
:101E800062E070E09E012B553B4FCE0183509C4F8A
:101E90000E94AC7FCE0183509C4F0E943665CE01DC
:101EA00083509C4F0E948A7FC5010E94677FC801B2
:101EB0000E94677FCE0108960E941291C6010E947F
:101EC0001291C7010E9412916BE474E08EE19DE0D3
:101ED0000E94B269882309F464C048EA52E062E0D3
:101EE00070E07E012BECE21A2CEFF20A9E012957DA
:101EF0003A4FC7010E947691A70161E070E08E0120
:101F00000B5F1D4F9E0124593A4FC8010E94169144
:101F100046EA52E062E070E09E012F5A3A4FCE014D
:101F200001966C010E94769144EA52E062E070E012
:101F30009E01235D3A4FCE0108960E947691A6013C
:101F400062E070E0580197E0A90EB11C9E01275194
:101F50003B4FC5010E941691A80162E070E09E010E
:101F60002B553B4FCE0183509C4F0E94AC7FCE013E
:101F700083509C4F0E943665CE0183509C4F0E9437
:101F80008A7FC5010E94677FC8010E94677FCE01DA
:101F900008960E941291C6010E941291C7010E94E8
:101FA000129163E574E08EE19DE00E94B26988239E
:101FB00009F465C042EA52E062E070E07E01ABECF9
:101FC000EA1AACEFFA0A9E0129573A4FC7010E945C
:101FD0007691A70161E070E08E010B5F1D4F9E01BD
:101FE00024593A4FC8010E94169140EA52E062E03B
:101FF00070E09E012F5A3A4FFE0131966F01CF01DA
:102000000E9476914EE952E062E070E09E01235D0D
:102010003A4FCE0108960E947691A60162E070E0E8
:102020005801F7E0AF0EB11C9E0127513B4FC5018F
:102030000E941691A80162E070E09E012B553B4F73
:10204000CE0183509C4F0E94AC7FCE0183509C4FA9
:102050000E943665CE0183509C4F0E948A7FC50145
:102060000E94677FC8010E94677FCE0108960E9488
:102070001291C6010E941291C7010E9412916AE555
:1020800074E08EE19DE00E94B269882309F464C087
:102090004CE952E062E070E07E012BECE21A2CEF9A
:1020A000F20A9E0129573A4FC7010E947691A70173
:1020B00061E070E08E010B5F1D4F9E0124593A4F85
:1020C000C8010E9416914AE952E062E070E09E0168
:1020D0002F5A3A4FCE0101966C010E94769148E941
:1020E00052E062E070E09E01235D3A4FCE01089617
:1020F0000E947691A60162E070E0580197E0A90E77
:10210000B11C9E0127513B4FC5010E941691A801A9
:1021100062E070E09E012B553B4FCE0183509C4FF7
:102120000E94AC7FCE0183509C4F0E943665CE0149
:1021300083509C4F0E948A7FC5010E94677FC8011F
:102140000E94677FCE0108960E941291C6010E94EC
:102150001291C7010E94129162E674E08EE19DE047
:102160000E94B269882309F465C046E952E062E042
:1021700070E07E01ABECEA1AACEFFA0A9E01295737
:102180003A4FC7010E947691A70161E070E08E018D
:102190000B5F1D4F9E0124593A4FC8010E941691B2
:1021A00044E952E062E070E09E012F5A3A4FFE018E
:1021B00031966F01CF010E94769142E952E062E0D0
:1021C00070E09E01235D3A4FCE0108960E94769101
:1021D000A60162E070E05801F7E0AF0EB11C9E016D
:1021E00027513B4FC5010E941691A80162E070E0A3
:1021F0009E012B553B4FCE0183509C4F0E94AC7FDC
:10220000CE0183509C4F0E943665CE0183509C4F77
:102210000E948A7FC5010E94677FC8010E94677F74
:10222000CE0108960E941291C6010E941291C70128
:102230000E94129169E674E08EE19DE00E94B2690D
:10224000882309F464C040E952E062E070E07E0156
:102250002BECE21A2CEFF20A9E0129573A4FC701E4
:102260000E947691A70161E070E08E010B5F1D4F27
:102270009E0124593A4FC8010E9416914EE852E03F
:1022800062E070E09E012F5A3A4FCE0101966C0138
:102290000E9476914CE852E062E070E09E01235D7E
:1022A0003A4FCE0108960E947691A60162E070E056
:1022B000580197E0A90EB11C9E0127513B4FC50163
:1022C0000E941691A80162E070E09E012B553B4FE1
:1022D000CE0183509C4F0E94AC7FCE0183509C4F17
:1022E0000E943665CE0183509C4F0E948A7FC501B3
:1022F0000E94677FC8010E94677FCE0108960E94F6
:102300001291C6010E941291C7010E94129160E7CA
:1023100074E08EE19DE00E94B269882309F465C0F3
:102320004AE852E062E070E07E01ABECEA1AACEF02
:10233000FA0A9E0129573A4FC7010E947691A701D8
:1023400061E070E08E010B5F1D4F9E0124593A4FF2
:10235000C8010E94169148E852E062E070E09E01D8
:102360002F5A3A4FFE0131966F01CF010E947691AC
:1023700046E852E062E070E09E01235D3A4FCE01F4
:1023800008960E947691A60162E070E05801F7E09D
:10239000AF0EB11C9E0127513B4FC5010E94169103
:1023A000A80162E070E09E012B553B4FCE018350A7
:1023B0009C4F0E94AC7FCE0183509C4F0E9436659B
:1023C000CE0183509C4F0E948A7FC5010E94677F87
:1023D000C8010E94677FCE0108960E941291C60133
:1023E0000E941291C7010E94129168E774E08EE189
:1023F0009DE00E94B269882309F453C044E852E08A
:1024000062E070E08E010B5C1C4F9E0124593A4F34
:10241000C8010E947691A80161E070E09E012F5AE8
:102420003A4FCE0101966C010E94169142E852E0AB
:1024300062E070E07E019BEFE91A9DEFF90A9E01D0
:10244000235D3A4FC7010E947691A70161E070E0D9
:102450009E0127513B4FCE0108960E941691A6017E
:1024600062E070E09E012B553B4FCE0183509C4FA4
:102470000E94AC7FCE0183509C4F0E943665CE01F6
:1024800083509C4F0E948A7FCE0108960E94677FEE
:10249000C6010E94677FC7010E941291C8010E9475
:1024A00012916EE774E08EE19DE00E94B26988238C
:1024B00009F49AC040E852E062E070E09E012752C1
:1024C0003A4FDE0111966D01CD010E9476914EE7E3
:1024D00052E062E070E09E012D523A4FCE01089624
:1024E0000E9476914CE752E062E070E09E01235337
:1024F0003A4FCE010F960E9476914AE752E062E091
:1025000070E09E012E553A4FCE0146960E9476917C
:1025100048E752E062E070E09E0129573A4FCE0151
:102520004D960E947691A60165E070E07E01BBECBD
:10253000EB1ABCEFFB0A9E0124593A4FC7010E94D7
:10254000169146E752E062E070E08E010B5F1D4F8E
:102550009E012F5A3A4FC8010E94769144E752E0FB
:1025600062E070E05801E7E0AE0EB11C9E01235D11
:102570003A4FC5010E947691A80162E070E04701E0
:10258000F7E08F0E911C9E0127513B4FC4010E9422
:102590001691A70162E070E09E012B553B4FCE01E2
:1025A00083509C4F0E94AC7FCE0183509C4F0E9471
:1025B0003665CE0183509C4F0E948A7FC4010E94E1
:1025C000677FC7010E94677FC5010E941291C80101
:1025D0000E941291015E114007501109C8010E942A
:1025E00012910C151D05C1F767E874E08EE19DE0BE
:1025F0000E94B26981110C94C8386FE874E08EE1D2
:102600009DE00E94B26981110C94C83867E974E0BA
:102610008EE19DE00E94B26981110C94C8386FE987
:1026200074E08EE19DE00E94B26981110C94C8387B
:1026300067EA74E08EE19DE00E94B269882309F4A4
:1026400076C046E652E062E070E08E010B5F1D4FFF
:102650009E012E553A4FC8010E94769144E652E001
:1026600062E070E0580127E0A20EB11C9E012957DC
:102670003A4FC5010E947691A80162E070E07E01A8
:102680008BECE81A8CEFF80A9E0124593A4FC701E7
:102690000E94169142E652E062E070E09E012F5ADD
:1026A0003A4FDE0111966D01CD010E94769140E610
:1026B00052E062E070E09E01235D3A4FCE01089641
:1026C0000E947691A60162E070E04701B7E08B0EB0
:1026D000911C9E0127513B4FC4010E941691A701F6
:1026E00062E070E09E012B553B4FCE0183509C4F22
:1026F0000E94AC7FCE0183509C4F0E943665CE0174
:1027000083509C4F0E948A7FC4010E94677FC7014B
:102710000E94677FCE0108960E941291C6010E9416
:102720001291C5010E941291C8010E9412916FEA94
:1027300074E08EE19DE00E94B26981110C945E39D3
:1027400065EB74E08EE19DE00E94B26981110C940A
:102750005E396EEB74E08EE19DE00E94B2698111FA
:102760000C945E3966EC74E08EE19DE00E94B269E3
:10277000811111C06CEC74E08EE19DE00E94B269A1
:10278000811109C065ED74E08EE19DE00E94B2699F
:10279000882309F4A5C048E552E062E070E09E019C
:1027A00021523A4FDE0111966D01CD010E947691C2
:1027B00046E552E062E070E09E0127523A4FCE01BA
:1027C00008960E94769144E552E062E070E09E0136
:1027D0002D523A4FCE010F960E94769142E552E07B
:1027E00062E070E09E0123533A4FCE0146960E946C
:1027F000769140E552E062E070E09E012E553A4F3E
:10280000CE014D960E9476914EE452E062E070E077
:102810009E0129573A4FCE0184960E947691A601D7
:1028200066E070E07E01BBECEB1ABCEFFB0A9E0198
:1028300024593A4FC7010E9416914CE452E062E0DD
:1028400070E08E010B5F1D4F9E012F5A3A4FC80159
:102850000E9476914AE452E062E070E05801E7E0BD
:10286000AE0EB11C9E01235D3A4FC5010E947691C8
:10287000A80162E070E04701F7E08F0E911C9E0115
:1028800027513B4FC4010E941691A70162E070E0FE
:102890009E012B553B4FCE0183509C4F0E94AC7F35
:1028A000CE0183509C4F0E943665CE0183509C4FD1
:1028B0000E948A7FC4010E94677FC7010E94677FD0
:1028C000C5010E941291C8010E9412910A5D114037
:1028D00007501109C8010E9412910C151D05C1F77E
:1028E0006DED74E08EE19DE00E94B269882309F4E9
:1028F00073C048E452E062E070E07E01EBECEE1A57
:10290000ECEFFE0A9E012E553A4FC7010E947691C8
:10291000A70161E070E08E010B5F1D4F9E012957FA
:102920003A4FC8010E94169146E452E062E070E01E
:102930009E0124593A4FCE0101966C010E94769176
:1029400044E452E062E070E09E012F5A3A4FCE011B
:1029500008960E94769142E452E062E070E09E01A7
:10296000235D3A4FCE010F960E947691A60163E057
:1029700070E0580197E0A90EB11C9E0127513B4F12
:10298000C5010E941691A80162E070E09E012B55DE
:102990003B4FCE0183509C4F0E94AC7FCE018350B1
:1029A0009C4F0E943665CE0183509C4F0E948A7FC7
:1029B000C5010E94677FC8010E94677FCE010F9604
:1029C0000E941291CE0108960E941291C6010E94A7
:1029D0001291C7010E9412912091E8073091E907F6
:1029E000809125082115310511F48F5F01C08150B8
:1029F000809325082839314009F06DC061E677E001
:102A00008EE19DE00E94B269882309F464C0809140
:102A10000D0D90910E0DBC01615071096817790779
:102A200020F489E09DE00E947B7D10925F08CE013A
:102A30008B5C9C4F0E94716B66EE74E0CE018B5FE5
:102A40009D4F0E945B8F69E37CE0CE018B5F9D4FC1
:102A50000E946F8E6EEE74E00E94588EBE016B5C19
:102A60007C4F0E946F8E41E0BC01CE0101960E9416
:102A70000277CE0101960E944786CE018B5F9D4F63
:102A80000E94EF8ECE018B5C9C4F0E94EF8E6EEE0B
:102A90007CE0CE0101960E944190CE0101960E94F9
:102AA0005C6A8EEE9CE00E94574486ED9CE00E949A
:102AB000F14D6091100D7091110DCE0101960E94A3
:102AC000538FCE0101960E94B56ECE0101960E94F1
:102AD000EF8E0E94826F0091E8071091E9070115BF
:102AE000110569F00839B1E01B0709F079C061E60A
:102AF00077E08EE19DE00E94B269811171C0609122
:102B0000170D7091180DDB0114962D913C911597BE
:102B10001B964D915C911C970D90BC91A02DED9151
:102B2000FC911197F08087E0E82EE29EF001E39E91
:102B3000F00D11243797EA0FFB1F808191810480EB
:102B4000F581E02DE80FF91F3197D080E0911B0D42
:102B5000F0911C0DEE9EC001EF9E900D1124079781
:102B6000860F971FFC01A080B18064817581E69E6D
:102B7000C001E79E900D112407978A0D9B1DFC0153
:102B80006081718184819581860F971F0197FC0177
:102B90008081F50160817181FB019081609126083F
:102BA00061110C94043A409125084F1510F00C94D3
:102BB000C4398093250881E0809326086091260817
:102BC000FD01379740E050E033274217530714F4D4
:102BD0000C94CF3960912608809125080E941986AF
:102BE0006AEF70E080E090E00E945E8A8091E807E2
:102BF0009091E9078336910539F08F3F910509F0EF
:102C00005AC20FEF1FEF02C001E010E061E074E074
:102C10008EE19DE00E94B269882359F080912608D8
:102C2000882321F080912508813019F4C8010E9481
:102C3000E2616AE074E08EE19DE00E94B26988235F
:102C400019F0C8010E9445816EE074E08EE19DE0BC
:102C50000E94B269882359F080912508811107C02C
:102C600080912608811103C0C8010E947B5469E14C
:102C700074E08EE19DE00E94B269882359F0809152
:102C80002508883039F480912608811103C0C801D5
:102C90000E9424816DE374E08EE19DE00E94B269A0
:102CA0008823D9F1809125088130B9F580912608D3
:102CB000811133C08091D60B9091D70B800F911F5B
:102CC0001816190614F081E090E09093D70B8093CA
:102CD000D60B86ED9CE00E94F14D8091D60B909131
:102CE000D70B0A9724F480E090E00E94B67580919B
:102CF000D60B9091D70B0E94B67589E492E00E94A2
:102D0000F88561E080E00E94198688E392E00E94E5
:102D1000F88560E081E00E94198663E474E08EE14A
:102D20009DE00E94B269882359F080912508823085
:102D300039F480912608811103C0C8010E940074F3
:102D40006BE474E08EE19DE00E94B269882359F043
:102D500080912508823039F480912608811103C0C2
:102D6000C8010E94977363E574E08EE19DE00E94C4
:102D7000B269882359F0809125088C3039F480910C
:102D80002608811103C0C8010E9425726AE574E01B
:102D90008EE19DE00E94B269882359F08091250858
:102DA000811107C080912608811103C0C8010E94CB
:102DB0003A6162E674E08EE19DE00E94B269882388
:102DC00059F080912508811107C080912608811152
:102DD00003C0C8010E948A6069E674E08EE19DE04C
:102DE0000E94B269882359F080912508823039F415
:102DF00080912608811103C0C8010E945D6060E7D0
:102E000074E08EE19DE00E94B269882359F08091C0
:102E10002508813039F480912608811103C0C8014A
:102E20000E94F25F68E774E08EE19DE00E94B26963
:102E30008823D1F080912508811116C08091260841
:102E4000811112C080915E0861E090E00E940784C9
:102E500068EE73E080E090E00E945E8A80915E08F8
:102E600060E090E00E9407846EE774E08EE19DE0F0
:102E70000E94B269882391F080912508982F977F4E
:102E800051F0833041F0853031F08D3039F480914C
:102E90002608811103C0C8010E94785867E874E0D1
:102EA0008EE19DE00E94B269811118C06FE874E064
:102EB0008EE19DE00E94B269811110C067E974E063
:102EC0008EE19DE00E94B269811108C06FE974E053
:102ED0008EE19DE00E94B269882391F080912508DF
:102EE000813011F40C94663A863011F40C94663AF1
:102EF0008B3011F40C94663A8E3011F40C94613AD4
:102F000067EA74E08EE19DE00E94B269882369F06F
:102F100080912508853031F08D3039F48091260874
:102F2000811103C0C8010E94675F60E274E08EE116
:102F30009DE00E94B269882379F080912508833052
:102F400041F0883031F08F3039F4809126088111BA
:102F500003C0C8010E94D55468E274E08EE19DE090
:102F60000E94B269882399F080912508833031F05E
:102F7000893069F480912608811109C0B801012EB9
:102F8000000C880B990B0E94599F0E94255760E303
:102F900074E08EE19DE00E94B269882359F080912F
:102FA00025088F3039F480912608811103C0C801AB
:102FB0000E941F8066E374E08EE19DE00E94B2698A
:102FC000882359F0809125088F3039F480912608A4
:102FD000811103C0C8010E94768066EC74E08EE126
:102FE0009DE00E94B269F82E811111C06CEC74E072
:102FF0008EE19DE00E94B269811109C065ED74E027
:103000008EE19DE00E94B269882309F443C080915B
:10301000260881113FC0FF2079F060EF74E0CE01F7
:1030200001960E945B8FB801CE0101960E947652F4
:10303000CE0101960E94EF8E6CEC74E08EE19DE073
:103040000E94B269882379F061ED74E0CE010196A7
:103050000E945B8FB801CE0101960E947652CE018C
:1030600001960E94EF8E65ED74E08EE19DE00E9476
:10307000B269882379F064EF74E0CE0101960E9472
:103080005B8FB801CE0101960E947652CE01019667
:103090000E94EF8E61E677E08EE19DE00E94B269CA
:1030A000882319F0C8010E94366B6AEF70E080E057
:1030B00090E00E945E8A8091E8079091E9078F373F
:1030C000924011F00C94C53B61E677E08EE19DE003
:1030D0000E94B269882309F4B7C586ED9CE00E947E
:1030E000F14D80915F080091100D1091110DF6E0E7
:1030F0008F9F000D111D1124CE018B5C9C4F0E94EF
:10310000716B66EE74E0CE018B5F9D4F0E945B8F0A
:1031100069E37CE0CE018B5F9D4F0E946F8E6EEE67
:1031200074E00E94588EBE016B5C7C4F0E946F8ED3
:103130006EEE74E00E94588EB8010E946F8E41E0DE
:10314000BC01CE0101960E940277CE0101960E9439
:103150004786CE018B5F9D4F0E94EF8ECE018B5C28
:103160009C4F0E94EF8E80915F084091100D50910E
:10317000110D26E0829F400D511D112460910D0D0F
:1031800070910E0D6F5F7F4F89E09DE00E94D37DAF
:103190006EEE7CE0CE0101960E944190CE01019638
:1031A0000E945C6A8EEE9CE00E9457448091140D50
:1031B0009091150D892BC9F010925F088EEE9CE05E
:1031C0000E9457446091100D7091110DCE0101962F
:1031D0000E94538FCE0101960E94B56ECE010196DA
:1031E0000E94EF8E0E94826F29C580910D0D9091F3
:1031F0000E0D26E0289FB001299F700D1124665006
:1032000071098091090D90910A0D680F791F8EE167
:103210009DE00E94DA8E0E94E4850E94EE8561E0C6
:1032200074E08EE19DE00E94B269882359F00E940B
:103230000D6380E090E00E94E26181E080932508C8
:10324000109226086AE074E08EE19DE00E94B26967
:103250008823D9F060E070E080E19DE00E94CB7DA2
:1032600060E070E089E09DE00E94CB7D109237091C
:1032700081E080935E088093150810925F08109299
:103280002608109225080E94B5816EE074E08EE158
:103290009DE00E94B269882321F080E090E00E94C6
:1032A0007B5463E174E08EE19DE00E94B269882363
:1032B00091F086ED9CE00E94F14D88E692E00E943C
:1032C000F88561E080E00E94198688E592E00E941E
:1032D000F8850E94EE8569E174E08EE19DE00E9430
:1032E000B269882321F080E090E00E94248169EF98
:1032F00073E08EE19DE00E94B269882341F0109254
:103300004E0810924F0810925008109251086DE329
:1033100074E08EE19DE00E94B269882309F490C0B8
:1033200081E0809325081092260888E493E09A8330
:103330008983C15DDE4F19821882CF52D140CE0100
:1033400001960E94487969EF74E00E946D7D909328
:10335000D70B8093D60B61E677E0CE018B5F9D4F54
:103360000E945B8F6091D60B7091D70B4AE0CE0123
:103370006A307105DCF4875F994F0E94F48E6CE926
:1033800077E0CE018D5F994F0E945B8FBE01675F32
:10339000794FCE018D5F994F0E946F8EBC01CE0197
:1033A0008B5C9C4F0E94538F11E005C08B5C9C4F3F
:1033B0000E94F48E10E0BE016B5C7C4FCE018B5FEF
:1033C0009D4F0E94488DCE018B5C9C4F0E94EF8EDA
:1033D000112351F0CE018D5F994F0E94EF8ECE01E7
:1033E000875F994F0E94EF8EBE016B5F7D4FCE01CC
:1033F0008B5C9C4F0E94538F6BE774E0CE018B5C1B
:103400009C4F0E94D169BC0186ED9CE00E94868F92
:10341000CE018B5C9C4F0E94EF8E61E080E00E94A9
:1034200019868AE694E00E94F885609126088091CA
:1034300025080E941986CE018B5F9D4F0E94EF8E5A
:1034400063E474E08EE19DE00E94B269882361F03C
:103450008091ED079091EE079093D70B8093D60B58
:1034600080E090E00E9400746BE474E08EE19DE0E7
:103470000E94B269882359F08091EC0790E0909304
:10348000D70B8093D60B80E090E00E94977363E5A2
:1034900074E08EE19DE00E94B269882321F080E013
:1034A00090E00E9425726AE574E08EE19DE00E9442
:1034B000B269882359F08091F40790E09093D70B7C
:1034C0008093D60B80E090E00E943A6162E674E05F
:1034D0008EE19DE00E94B269882391F06091F0072F
:1034E0007091F1078091F2079091F3070E94F19794
:1034F0007093D70B6093D60B80E090E00E948A60B7
:1035000069E674E08EE19DE00E94B269882359F07B
:103510008091EF0790E09093D70B8093D60B80E0DB
:1035200090E00E945D6060E774E08EE19DE00E94A3
:10353000B269882359F08091F50790E09093D70BFA
:103540008093D60B80E090E00E94F25F67EA74E01F
:103550008EE19DE00E94B269882321F180913808B4
:1035600090913908A0913A08B0913B0880934E0899
:1035700090934F08A0935008B093510880913C0855
:1035800090913D08A0913E08B0913F088093520869
:1035900090935308A0935408B093550880E090E0AE
:1035A0000E94675F68E774E08EE19DE00E94B26967
:1035B000882359F160E086ED9CE00E94EA4D8CE59D
:1035C00094E00E94F8854AE060915E08CE01019681
:1035D0000E941F8FBE016F5F7F4F86ED9CE00E94AF
:1035E000868FCE0101960E94EF8E61E080E00E94FE
:1035F00019868BE494E00E94F885109225081092B9
:10360000260860E080E00E9419866EE774E08EE193
:103610009DE00E94B269882309F406C180E693E028
:103620009A838983C955DF4F19821882C75AD040BF
:103630004091240850E06091230870E0CE0101968B
:103640000E94056E8C0160E075E00E94627D7C0145
:1036500066E075E0C8010E94627D8C0160E070E068
:10366000C7010E94BD7D9093D70B8093D60B61E07C
:1036700070E0C7010E94BD7D9093D90B8093D80B59
:1036800062E070E0C7010E94BD7D9093DB0B8093E8
:10369000DA0B60E070E0C8010E94BD7D9093DD0B05
:1036A0008093DC0B61E070E0C8010E94BD7D9093C7
:1036B000DF0B8093DE0B62E070E0C8010E94BD7DED
:1036C0009093E10B8093E00B8091DA0B9091DB0BF0
:1036D000892B19F065E474E002C068E474E0CE015F
:1036E0008B5C9C4F0E944B8F8091DA0B9091DB0B8F
:1036F000892B19F068E274E002C06BE274E0CE013D
:103700008B5F9D4F0E944B8F6091DE0B7091DF0BA2
:103710004AE0CE018F5A9A4F0E94F48E6091DC0BE2
:103720007091DD0B4AE0CE01835D9A4F0E94F48ECA
:103730006091D80B7091D90B4AE0CE0187519B4F15
:103740000E94F48E6091D60B7091D70B4AE0CE01A7
:1037500083509C4F0E94F48EBE0163507C4FCE017B
:103760008B559B4F0E94538F63E474E0CE018B55C1
:103770009B4F0E94D169BE0167517B4F0E946F8EA3
:10378000BE016B5C7C4F0E946F8E61E474E00E940E
:10379000D169BE01635D7A4F0E946F8E6FE374E062
:1037A0000E94D169BE016F5A7A4F0E946F8EBE018E
:1037B0006B5F7D4F0E946F8EBC0186ED9CE00E9486
:1037C000868FCE018B559B4F0E94EF8ECE0183508A
:1037D0009C4F0E94EF8ECE0187519B4F0E94EF8E2F
:1037E000CE01835D9A4F0E94EF8ECE018F5A9A4F81
:1037F0000E94EF8E61E080E00E9419868EE294E0E4
:103800000E94F88583E0809325081092260860E0E6
:103810000E941986CE018B5F9D4F0E94EF8ECE01D4
:103820008B5C9C4F0E94EF8E67E874E08EE19DE018
:103830000E94B269811119C06FE874E08EE19DE0C9
:103840000E94B269811111C067E974E08EE19DE0C8
:103850000E94B269811109C06FE974E08EE19DE0B8
:103860000E94B269882309F451C161E677E0CE0174
:103870008B559B4F0E945B8F61E677E0CE018350B2
:103880009C4F0E945B8F61E677E0CE018B5C9C4F82
:103890000E945B8F61E677E0CE018B5F9D4F0E94B7
:1038A0005B8F82E493E09A838983CD5FDD4F198239
:1038B0001882C350D24080912408811103C081E056
:1038C000809324084091240850E06091230870E020
:1038D000CE0101960E94056E6AE075E00E94627D4D
:1038E0008C0160E070E00E94B27D60E070E00E94B8
:1038F000BD7D9093D70B8093D60B60E070E0C8013C
:103900000E94B27D61E070E00E94BD7D9093D90B72
:103910008093D80B80912508813011F40C946B3A78
:103920008091D60B9091D70B8D30910514F40C94A7
:103930008D3ABC016C5071094AE0469714F00C9422
:10394000853ACE0183509A4F0E94F48E6CE977E05D
:10395000CE0189509A4F0E945B8FBE0163507A4F0F
:10396000CE0189509A4F0E946F8EBC01CE018751C3
:103970009B4F0E94538F11E0BE0167517B4FCE01D8
:103980008B559B4F0E94488DCE0187519B4F0E94C3
:10399000EF8E112351F0CE0189509A4F0E94EF8E85
:1039A000CE0183509A4F0E94EF8E80912508863079
:1039B00011F40C94E43A8091D80B9091D90B8D308E
:1039C000910514F40C94063BBC016C5071094AE05B
:1039D000469714F00C94FE3ACE018B519A4F0E94F8
:1039E000F48E6CE977E0CE0181529A4F0E945B8F92
:1039F000BE016B517A4FCE0181529A4F0E946F8E59
:103A0000BC01CE0187519B4F0E94538F11E0BE0134
:103A100067517B4FCE0183509C4F0E94488DCE0151
:103A200087519B4F0E94EF8E112351F0CE0181529E
:103A30009A4F0E94EF8ECE018B519A4F0E94EF8ECB
:103A40008091D60B9091D70B0C9714F00C945D3BA2
:103A50006DEB73E0CE018B5C9C4F0E94C58E809114
:103A6000D80B9091D90B0C9714F00C94613B6DEB33
:103A700073E0CE018B5F9D4F0E94C58EBE016B55DA
:103A80007B4F86ED9CE00E94868FBE016B5C7C4F75
:103A900086ED9CE00E94868F86E294E00E94F88585
:103AA000BE0163507C4F86ED9CE00E94868FBE0174
:103AB0006B5F7D4F86ED9CE00E94868F8FE194E0E6
:103AC0000E94F88561E080E00E9419868EE094E013
:103AD0000E94F88586E0809325081092260860E011
:103AE0000E941986CE018B5F9D4F0E94EF8ECE0102
:103AF0008B5C9C4F0E94EF8ECE0183509C4F0E94A6
:103B0000EF8ECE018B559B4F0E94EF8E60E274E0EA
:103B10008EE19DE00E94B269882321F080E090E070
:103B20000E94D55468E274E08EE19DE00E94B26983
:103B3000882329F060E070E0CB010E94255766E3FE
:103B400074E08EE19DE00E94B2698823A1F080912B
:103B5000FD079091FE07A091FF07B09100088093A8
:103B60004E0890934F08A0935008B093510880E0FE
:103B700090E00E94768060E374E08EE19DE00E9418
:103B8000B269882361F08091FB079091FC079093C4
:103B9000D70B8093D60B80E090E00E941F8066ECEC
:103BA00074E08EE19DE00E94B269882381F060EFAD
:103BB00074E0CE0101960E945B8F60E070E0CE0160
:103BC00001960E947652CE0101960E94EF8E6FEA16
:103BD00074E08EE19DE00E94B269882379F061ED86
:103BE00074E0CE0101960E945B8F64E0CE010196E5
:103BF0000E94EE51CE0101960E94EF8E6DED74E0B1
:103C00008EE19DE00E94B2698823C1F086ED9CE0C0
:103C10000E94F14D89E892E00E94F88561E080E021
:103C20000E94198688E792E00E94F8851092260883
:103C30001092250860E080E00E9419866EE571E030
:103C400080E090E00E945E8A61E074E08EE19DE099
:103C50000E94B269882309F4F2C0809125088D3052
:103C600009F0C9C080912608813009F0C4C00091D4
:103C7000E00B8091DE0B8831F0F40C33E0F41AE0B5
:103C8000612F0E94D296692F40E1849F600D11241C
:103C900082E00E94CF94802F612F0E94D296692FDC
:103CA000A0E18A9F600D112481E00E94CF9460E022
:103CB00080E00E94CF942091D60B3091D70B909149
:103CC000D80BF090DA0B8FEF8F0D8F3178F59C3099
:103CD00068F5205D3740283EB3E03B0738F511E03A
:103CE000190F0AE0822F602F0E94D296692FE0E11F
:103CF0008E9F600D112486E00E94CF94812F602F4B
:103D00000E94D296692FF0E18F9F600D112485E00B
:103D10000E94CF948F2D602F0E94D296692F20E1B0
:103D2000829F600D112484E00E94CF942091DA0BD1
:103D30003091DB0BB22FA091D80B8091D60B9091D4
:103D4000D70BFC01EF2FFF27E695E695E69560ED92
:103D500077E0E69FA001E79F500DF69F500D1124DC
:103D6000841B950B803941E0940718F080599140ED
:103D7000F9CF8436910569F0883C910551F08C3279
:103D8000E1E09E0731F0E1E0AC0143705527452B9F
:103D900009F0E0E04FEF420F4F3128F546E084365E
:103DA000910520F0845691094250F9CF480F96951D
:103DB000879596958795942F980F4A2F50E0EE237C
:103DC00011F40C94B43BA33010F00C947F3B915051
:103DD0000C947F3BB90177274DE150E04617570718
:103DE00014F00C94993B8FEF830D873020F4632DF2
:103DF00083E00E94CF9480912508863031F08D3089
:103E0000F1F4809126088130D1F461E677E08FE308
:103E10009CE00E94C58E61E677E085E49CE00E940C
:103E2000C58E61E677E08BE49CE00E94C58E61E67A
:103E300077E081E59CE00E94C58E0E948A716AE06D
:103E400074E08EE19DE00E94B269882309F4FAC60D
:103E5000809125088B3009F0F5C6809126088130C5
:103E600009F0F0C661E677E0CE0183539A4F0E94D5
:103E70005B8F0DE51CE0BE0163537A4FCE010196C6
:103E80000E94538FB801CE0101960E946F8EBC0133
:103E9000CE0183539A4F0E94DA8ECE0101960E9482
:103EA000EF8E0A5F1F4FFCE0073B1F0721F761E61B
:103EB00077E0CE0183539A4F0E94B269882309F1BB
:103EC00086ED9CE00E94F14D8EEF93E00E94F88514
:103ED00061E080E00E94198683EF93E00E94F885FC
:103EE00068EB7BE080E090E00E945E8A86ED9CE0DB
:103EF0000E94F14D61E080E00E94198682EE93E01D
:103F000042C066EE74E0CE0101960E945B8FBE0156
:103F100063537A4FCE0101960E946F8E6EE570E476
:103F2000DC018D919C910E94F487182FCE0101969F
:103F30000E94EF8E112381F186ED9CE00E94F14DED
:103F400086ED93E00E94F88561E080E00E9419868A
:103F500087EC93E00E94F88568EB7BE080E090E0DE
:103F60000E945E8A86ED9CE00E94F14DBE01635383
:103F70007A4F86ED9CE00E94868F61E080E00E948F
:103F8000198686EB93E00E94F8851092260810921D
:103F900025080E94EE8551C6CE018E559A4F0E948B
:103FA0006844CE0189579A4F0E9468447EE4672E88
:103FB00073E0772EC751DB4F79826882C95ED440A7
:103FC000C55DDA4F19821882CB52D540CE01875198
:103FD0009B4F0E9492798C019A83898380E195E0BE
:103FE0009C838B8369E37CE0CE0101960E949768F5
:103FF000C8010E94F14786ED9CE00E94F14D8CE9DA
:1040000092E00E94F88566EE74E0CE0101960E946F
:104010005B8F69E37CE0CE0101960E946F8E0E9467
:104020002469CE0101960E94EF8E66EE74E0CE0107
:1040300001960E945B8F69E37CE0CE0101960E94AD
:104040006F8E65E175E00E94588E0E942469CE0152
:1040500001960E94EF8E66EE74E0CE0101960E94FA
:104060005B8F69E37CE0CE0101960E946F8E6AE16E
:1040700075E00E94588E0E942469CE0101960E942C
:10408000EF8E66EE74E0CE0101960E945B8F69E3CD
:104090007CE0CE0101960E946F8E68E275E00E947E
:1040A000588E0E942469CE0101960E94EF8E66EE22
:1040B00074E0CE0101960E945B8F69E37CE0CE0143
:1040C00001960E946F8E63E375E00E94588E0E94F5
:1040D0002469CE0101960E94EF8E66EE74E0CE0157
:1040E00001960E945B8F69E37CE0CE0101960E94FD
:1040F0006F8E6EE375E00E94588E0E942469CE0197
:1041000001960E94EF8E66EE74E0CE0101960E9449
:104110005B8F69E37CE0CE0101960E946F8E69E4BB
:1041200075E00E94588E0E942469CE0101960E947B
:10413000EF8E66EE74E0CE0101960E945B8F69E31C
:104140007CE0CE0101960E946F8E65E575E00E94CD
:10415000588E0E942469CE0101960E94EF8E66EE71
:1041600074E0CE0101960E945B8F69E37CE0CE0192
:1041700001960E946F8E62E675E00E94588E0E9442
:104180002469CE0101960E94EF8E66EE74E0CE01A6
:1041900001960E945B8F69E37CE0CE0101960E944C
:1041A0006F8E68E675E00E94588E0E942469CE01E9
:1041B00001960E94EF8E66EE74E0CE0101960E9499
:1041C0005B8F69E37CE0CE0101960E946F8E62E70F
:1041D00075E00E94588E0E942469CE0101960E94CB
:1041E000EF8E66EE74E0CE0101960E945B8F69E36C
:1041F0007CE0CE0101960E946F8E6DE775E00E9413
:10420000588E0E942469CE0101960E94EF8E66EEC0
:1042100074E0CE0101960E945B8F69E37CE0CE01E1
:1042200001960E946F8E6AE875E00E94588E0E9487
:104230002469CE0101960E94EF8E66EE74E0CE01F5
:1042400001960E945B8F69E37CE0CE0101960E949B
:104250006F8E66E975E00E94588E0E942469CE0137
:1042600001960E94EF8E66EE74E0CE0101960E94E8
:104270005B8F69E37CE0CE0101960E946F8E63EA5A
:1042800075E00E94588E0E942469CE0101960E941A
:10429000EF8E66EE74E0CE0101960E945B8F69E3BB
:1042A0007CE0CE0101960E946F8E61EB75E00E946A
:1042B000588E0E942469CE0101960E94EF8E66EE10
:1042C00074E0CE0101960E945B8F69E37CE0CE0131
:1042D00001960E946F8E6FEB75E00E94588E0E94CF
:1042E0002469CE0101960E94EF8E66EE74E0CE0145
:1042F00001960E945B8F69E37CE0CE0101960E94EB
:104300006F8E6EEC75E00E94588E0E942469CE017B
:1043100001960E94EF8E66EE74E0CE0101960E9437
:104320005B8F69E37CE0CE0101960E946F8E65EDA4
:1043300075E00E94588E0E942469CE0101960E9469
:10434000EF8E66EE74E0CE0101960E945B8F69E30A
:104350007CE0CE0101960E946F8E6BED75E00E94AD
:10436000588E0E942469CE0101960E94EF8E66EE5F
:1043700074E0CE0101960E945B8F69E37CE0CE0180
:1043800001960E946F8E69EE75E00E94588E0E9421
:104390002469CE0101960E94EF8E66EE74E0CE0194
:1043A00001960E945B8F69E37CE0CE0101960E943A
:1043B0006F8E67EF75E00E94588E0E942469CE01CF
:1043C00001960E94EF8E66EE74E0CE0101960E9487
:1043D0005B8F69E37CE0CE0101960E946F8E65E001
:1043E00076E00E94588E0E942469CE0101960E94B8
:1043F000EF8E66EE74E0CE0101960E945B8F69E35A
:104400007CE0CE0101960E946F8E63E176E00E940F
:10441000588E0E942469CE0101960E94EF8E88E496
:1044200093E09A838983C15DDE4F19821882CF524F
:10443000D140CE0101960E942C4A7C0182E296E096
:10444000A0E0AC016A2FC7010E94D5688C01CB5F48
:10445000DD4FF982E882C550D24089EF94E0C95F10
:10446000DD4F99838883C750D2406CE070E0CE0165
:104470008B5F9D4F0E94277FCB5FDD4FF982E882E3
:10448000C550D24089ED93E0C95FDD4F99838883A1
:10449000C750D24061E070E0CE018B5F9D4F0E941B
:1044A000277FCB5FDD4FF982E882C550D2408AE298
:1044B00096E0C95FDD4F99838883C750D24060E0A2
:1044C00070E0CE018B5F9D4F0E94277FCB5FDD4F59
:1044D000F982E882C550D24084EE93E0C95FDD4F97
:1044E00099838883C750D24060E070E0CE018B5F33
:1044F0009D4F0E94277FCB5FDD4FF982E882C55038
:10450000D24081E396E0C95FDD4F99838883C7502D
:10451000D24040E050E060E070E4CE018B5F9D4F00
:104520000E946364CB5FDD4FF982E882C550D240C0
:1045300088E396E0C95FDD4F99838883C750D240F6
:1045400063E070E0CE018B5F9D4F0E94277F46E6BF
:1045500056E666EB70E4C8010E947F6340E050E0DD
:1045600060EC70E4C8010E947F6361E080E00E941B
:10457000198684E593E0CB5FDD4F99838883C5502E
:10458000D240C55FDC4F19821882CB50D340CE0198
:104590008B5F9D4F0E942C4A8C018EE396E0A0E039
:1045A000AC016A2FC8010E94D5686C01CB5CDC4F5E
:1045B00019830883C553D34087E496E0C95CDC4F78
:1045C00099838883C753D34060E070E0CE018B5C51
:1045D0009C4F0E94277FCB5CDC4F19830883C55317
:1045E000D3408FE496E0C95CDC4F99838883C7533E
:1045F000D34062E070E0CE018B5C9C4F0E94277F2D
:10460000CB5CDC4F19830883C553D34087E596E024
:10461000C95CDC4F99838883C753D34065E070E061
:10462000CE018B5C9C4F0E94277FCB5CDC4F1983B3
:104630000883C553D3408EE596E0C95CDC4F99836F
:104640008883C753D34040E050E060E87EE3CE016A
:104650008B5C9C4F0E946364CB5CDC4F19830883A6
:10466000C553D34085E696E0C95CDC4F99838883C7
:10467000C753D34060E070E0CE018B5C9C4F0E943A
:10468000277FCB5CDC4F19830883C553D34080E779
:1046900096E0C95CDC4F99838883C753D3406AE0B6
:1046A00070E0CE018B5C9C4F0E94277F40E050E081
:1046B00060EB70E4C6010E947F6340E050E060EB75
:1046C00070E4C6010E947F6380E693E0C350DC4F34
:1046D00099838883CD5FD340CD55DB4F19821882F3
:1046E000C35AD440CE0183509C4F0E942C4A5C0197
:1046F00088E796E0A0E0AC016A2FC5010E94D5686A
:104700004C018EE796E0A0E0AC016A2FC5010E9443
:10471000D5686C0161E070E0C4010E94586361E0FB
:1047200070E0C4010E94586361E070E0C4010E941F
:10473000586361E070E0C4010E94586361E070E07A
:10474000C6010E94586361E070E0C6010E94586390
:1047500061E070E0C6010E94586361E070E0C6014C
:104760000E945863CB55DB4F79826882C55AD4408A
:10477000C951DB4F19821882C75ED440CE018B55D8
:104780009B4F0E942C4A3C018DEE93E0A0E0AC01CF
:104790006A2FC3010E94D5686C0164EF71E00E942A
:1047A00058636CEB72E0C6010E9458638AE593E09F
:1047B000CB5CDC4F99838883C553D340C550DC4F15
:1047C00019821882CB5FD340CE018B5C9C4F0E9434
:1047D0002C4A6C01C35DDA4F99838883CD52D54052
:1047E00087E896E0C15DDA4F99838883CF52D54040
:1047F00064E670E0CE01835D9A4F0E94277FC35D1F
:10480000DA4FD982C882CD52D54083EF93E0C15DA3
:10481000DA4F99838883CF52D54063E070E0CE01B0
:10482000835D9A4F0E94277F8AE392E0C35DDA4F4F
:1048300099838883CD52D540C15BDA4F19821882A3
:10484000CF54D540CE01835D9A4F0E942C4A4C0133
:10485000CF5ADA4F99838883C155D54083E996E0D2
:10486000CD5ADA4F99838883C355D540CE018F5AEC
:104870009A4F0E946F68CF5ADA4F99828882C15549
:10488000D54080EF93E0CD5ADA4F99838883C355A2
:10489000D54040E050E0BA01CE018F5A9A4F0E94B5
:1048A000636433243394EBE94E2EE6E05E2ECF5A58
:1048B000DA4FD982C882C155D540CD5ADA4F5982D4
:1048C0004882C355D540632DCE018F5A9A4F0E941E
:1048D000C68266EE74E0CE0184599A4F0E945B8FC7
:1048E00069E37CE0CE0184599A4F0E946F8E6EE995
:1048F00076E00E94588E632D0E94298EBC01CE0165
:104900008F5A9A4F0E94538FA401632DCE018F5A64
:104910009A4F0E942B69CE018F5A9A4F0E94EF8EB8
:10492000CE0184599A4F0E94EF8E8AE992E00E944C
:10493000F88589E39BE00E94C4483394BBE03B12B6
:10494000B6CF66EE74E0CE018F5A9A4F0E945B8F0D
:1049500069E37CE0CE018F5A9A4F0E946F8E6CEA19
:1049600076E00E94588E0E942469CE018F5A9A4F99
:104970000E94EF8E5524539466EE74E0CE018F5A58
:104980009A4F0E945B8F69E37CE0CE018F5A9A4F69
:104990000E946F8E64EB76E00E94588E652D0E9417
:1049A000298E0E942469CE018F5A9A4F0E94EF8E61
:1049B0000E94658C4C0166EE74E0CE0184599A4FDA
:1049C0000E945B8F69E37CE0CE0184599A4F0E947C
:1049D0006F8E64EB76E00E94588E652D0E94298EC2
:1049E00063EC76E00E94588EBC01CE018F5A9A4F3C
:1049F0000E94538FB401CE018F5A9A4F0E94D083E8
:104A0000CE018F5A9A4F0E94EF8ECE0184599A4F51
:104A10000E94EF8E5394E5E05E12AECF99249394FA
:104A200066EE74E0CE0184599A4F0E945B8F69E371
:104A30007CE0CE0184599A4F0E946F8E6EEC76E036
:104A40000E94588E692D0E94298E69EC76E00E94A2
:104A5000588EBC01CE018F5A9A4F0E94538FB301DA
:104A6000CE018F5A9A4F0E94D083CE018F5A9A4F0F
:104A70000E94EF8ECE0184599A4F0E94EF8E93943C
:104A8000FDE09F12CDCF66EE74E0CE0184599A4FBF
:104A90000E945B8F69E37CE0CE0184599A4F0E94AB
:104AA0006F8E6DED76E00E94588EBC01CE018F5A5C
:104AB0009A4F0E94538FB701CE018F5A9A4F0E948E
:104AC000D083CE018F5A9A4F0E94EF8ECE01845927
:104AD0009A4F0E94EF8E66EE74E0CE0184599A4F91
:104AE0000E945B8F69E37CE0CE0184599A4F0E945B
:104AF0006F8E67EE76E00E94588EBC01CE018F5A11
:104B00009A4F0E94538FB801CE018F5A9A4F0E943C
:104B1000D083CE018F5A9A4F0E94EF8ECE018459D6
:104B20009A4F0E94EF8E66EE74E0CE0184599A4F40
:104B30000E945B8F69E37CE0CE0184599A4F0E940A
:104B40006F8E65EF76E00E94588EBC01CE018F5AC1
:104B50009A4F0E94538FB601CE018F5A9A4F0E94EE
:104B6000D083CE018F5A9A4F0E94EF8ECE01845986
:104B70009A4F0E94EF8E66EE74E0CE0184599A4FF0
:104B80000E945B8F69E37CE0CE0184599A4F0E94BA
:104B90006F8E6FEF76E00E94588EBC01CE018F5A67
:104BA0009A4F0E94538FB501CE018F5A9A4F0E949F
:104BB000D083CE018F5A9A4F0E94EF8ECE01845936
:104BC0009A4F0E94EF8E69E972E08EE19DE00E94AB
:104BD000808E0E94AC8886ED9CE00E94F14D66EECE
:104BE00074E0CE018F5A9A4F0E945B8F69E37CE09C
:104BF000CE018F5A9A4F0E946F8E41E0BC01CE01C8
:104C000084599A4F0E940277CE018F5A9A4F0E9480
:104C1000EF8EBE0164597A4FCE018F5A9A4F0E948F
:104C20004190CE018F5A9A4F0E945C6ACE018459FE
:104C30009A4F0E9457440E94966FCE0183539A4F19
:104C40000E94EF8E6EE074E08EE19DE00E94B269FA
:104C5000882309F4DAC080912508893009F0C9C099
:104C600080912608813009F0C4C080915F08E091EE
:104C7000100DF091110D26E0829FE00DF11D112421
:104C80002481358180913D0C90913E0C2817390785
:104C900039F5808191816091390C70913A0C0097BF
:104CA00019F061157105B9F46115710551F0232BE7
:104CB00009F49DC0DB018C9190E09195819591095B
:104CC0000CC0009709F493C0232B09F490C0FC0199
:104CD000808190E002C00E94659A892B09F487C008
:104CE00086ED9CE00E94F14D0E94AC888DEA92E036
:104CF0000E94F88500E412E0CB5FDD4F1983088342
:104D0000C550D240C85FDD4F19821882C850D240CA
:104D100080E091E0C65FDD4F99838883CA50D2401E
:104D200041E06AE077E0CE0101960E94FF86CE0165
:104D300001960E9447866EEE7CE0CE0101960E94AD
:104D40006F8FBE016F5F7F4FCE018B5F9D4F0E94C3
:104D5000D7777C01CE0101960E94EF8E80915F088B
:104D60006091100D7091110DF6E08F9F600D711D17
:104D70001124FA82E98280E195E09C838B83CE0145
:104D800001960E9497688EEE9CE00E945744C701EE
:104D90000E94F1471092370910925F0881E08093DA
:104DA000150880935E0860E070E080E19DE00E945D
:104DB000CB7D60E070E089E09DE00E94CB7D0E94A9
:104DC000B044CB5FDD4F19830883C550D240C85F24
:104DD000DD4F88819981C850D240009751F0DC01A5
:104DE0000C9111961C910E94C398C801F6CF0E94A5
:104DF0008A7180912508813031F0893031F48091B9
:104E00002608813011F40E948A7163E174E08EE11A
:104E10009DE00E94B269882309F481C18091250830
:104E20008B3009F070C110912608113009F06BC168
:104E300086ED9CE00E94F14D8CEC92E00E94F8859A
:104E400061E080E00E9419868EEB92E00E94F88576
:104E500088E493E0CB5FDD4F99838883C550D240CF
:104E6000CD5CDC4F19821882C353D340CE018B5FD7
:104E70009D4F0E9448797C01109301089A83898391
:104E800089ED93E09C838B8361E0CE0101960E94C3
:104E9000C6821092FA07FA82E98284EE93E09C833C
:104EA0008B8360E0CE0101960E94C6821092380981
:104EB000FA82E9828AE296E09C838B8360E0CE01ED
:104EC00001960E94C68261E0C7010E947E8380E64F
:104ED00093E0CB5CDC4F99838883C553D340C552A4
:104EE000DC4F19821882CB5DD340CE018B5C9C4F86
:104EF0000E9405787C01109316086EE776E00E9408
:104F0000DA639A8389831C821B8261E0CE01019659
:104F10000E94CD51109317086EE776E0C7010E94FA
:104F2000DA639A83898381E090E09C838B8361E0DC
:104F3000CE0101960E94CD51109318086EE776E0DD
:104F4000C7010E94DA639A83898382E090E09C83A0
:104F50008B8361E0CE0101960E94CD511093190818
:104F60006EE776E0C7010E94DA639A83898383E063
:104F700090E09C838B8361E0CE0101960E94CD512D
:104F80000E94C784C350DC4F2883CD5FD340C250FA
:104F9000DC4F3883CE5FD340C150DC4F4883CF5FB6
:104FA000D340C050DC4F5883C050D440CF5FDB4F5C
:104FB0006883C150D440CE5FDB4F7883C250D44069
:104FC000CD5FDB4F8883C350D440CC5FDB4F9883E9
:104FD000C450D440915026E1822E28E0922E3EE12A
:104FE000A32E38E0B32E4AE1242E48E0342ECC2400
:104FF000C394D12C62E4662E63E0762E092F10E074
:105000007A826982CD5FDD4F19821882C350D24007
:10501000F40141914F0150E0B601CE0101960E948A
:10502000056E2C016AE075E00E94DA63B8010E9407
:10503000B27D60E070E00E94FE63D5018D935D015A
:105040006AE075E0C2010E94DA63B8010E94B27D95
:1050500061E070E00E94FE63F10181931F01FFEFA8
:10506000CF1ADF0A25E0C216D10451F6C7010E940B
:10507000676E8EE493E09A83898325961FAE1EAEF9
:10508000259760910108CE0101960E94F4788C0169
:105090006DEE73E00E94DA6360E070E00E94BD7D17
:1050A0009093F9078093F8076DEE73E0C8010E94B2
:1050B000DA6361E070E00E94BD7D9093F707809312
:1050C000F6070E94968A6093E0077093E107809349
:1050D000E2079093E3076093DC077093DD0780930A
:1050E000DE079093DF076093D8077093D90780930A
:1050F000DA079093DB076093D4077093D50780930A
:10510000D6079093D70780912508813031F08B30F6
:1051100031F480912608813011F40E948A7169E18E
:1051200074E08EE19DE00E94B2698823E1F18091F4
:1051300025088D3061F580912608813041F588E49D
:1051400093E09A838983C15DDE4F19821882CF5222
:10515000D140CE0101960E9448798C0160913809B6
:10516000CB5FDD4F99838883C550D2408AE296E0B9
:10517000C95FDD4F99838883C750D240CE018B5FD2
:105180009D4F0E94C68261E0C8010E947E8380918B
:105190002508813031F08D3031F48091260881303E
:1051A00011F40E948A7169EF73E08EE19DE00E9424
:1051B000B269882309F44DC0809125088D30E9F546
:1051C000809126088130C9F586ED9CE00E94F14D62
:1051D00084E593E09A838983C95FDE4F1982188240
:1051E000C750D140CE0101960E94AA788C0140910F
:1051F0002C0850912D0860912E0870912F08409333
:1052000028085093290860932A0870932B08CB5FD5
:10521000DD4F99838883C550D24087E496E0C95F0B
:10522000DD4F99838883C750D240CE018B5F9D4F5D
:105230000E940B64C8010E9494618091250881300E
:1052400031F08D3031F480912608813011F40E94C4
:105250008A716DE374E08EE19DE00E94B26988235B
:1052600009F484C1809125088D3009F06FC18091C7
:105270002608813009F06AC186ED9CE00E94F14D5C
:1052800088E493E09A838983C15DDE4F1982188296
:10529000CF52D140CE0101960E9448798C01E09016
:1052A000D60BF090D70B69EF74E00E946D7DE81685
:1052B000F9060CF076C088EA93E00E94F88561E078
:1052C00080E00E94198687E993E00E94F885A0900B
:1052D000D60BB090D70B69EF74E0C8010E946D7DCA
:1052E0006C01EE24E394F12C2F2D30E0C216D3068E
:1052F0000CF452C02A153B050CF448C04AE06F2D4F
:10530000CE018B5F9D4F0E941F8F4AE06E2DCE0114
:105310008B5C9C4F0E941F8F66EE74E0CE018B5514
:105320009B4F0E945B8F69E37CE0CE018B559B4FC6
:105330000E946F8E6CE177E00E94588EBE016B5C1C
:105340007C4F0E946F8E6AE277E00E94588EBE0109
:105350006B5F7D4F0E946F8E69EC76E00E94588EE5
:105360006FE170E4DC018D919C910E94F487CE0185
:105370008B559B4F0E94EF8ECE018B5C9C4F0E9401
:10538000EF8ECE018B5F9D4F0E94EF8E89E39BE0F5
:105390000E94C448F394A8CFE394B9E0EB12A3CFE2
:1053A000B6C0E090D60BF090D70B69EF74E0C8015F
:1053B0000E946D7D8E159F050CF0A9C087E893E0D3
:1053C0000E94F88561E080E00E94198686E793E0FC
:1053D0000E94F8858090D60B9090D70B69EF74E00F
:1053E000C8010E946D7D5C018EE493E0CB5FDD4FD0
:1053F00099838883C550D240C95BDD4F19821882DA
:10540000C754D240CE018B5F9D4F0E942C4A6C0145
:10541000CB5CDC4F99838883C553D34080EF93E006
:10542000C95CDC4F99838883C753D34060E570E043
:10543000CE018B5C9C4F0E94277FCB5CDC4FD982D6
:10544000C882C553D34083E996E0C95CDC4F998399
:105450008883C753D340CE018B5C9C4F0E946F68FA
:10546000EE24E394F12C8F2D90E0881599050CF033
:105470004AC0A816B9060CF040C04AE06E2DCE0115
:105480008B559B4F0E941F8F66EE74E0CE018751B3
:105490009B4F0E945B8F69E37CE0CE0187519B4F5D
:1054A0000E946F8E6CE177E00E94588EBE016B55B2
:1054B0007B4F0E946F8E6F2D0E94298E69EC76E0E3
:1054C0000E94588EBC01CE018B5C9C4F0E94538F72
:1054D000B601CE018B5C9C4F0E94D083CE018B5CC9
:1054E0009C4F0E94EF8ECE0187519B4F0E94EF8E02
:1054F000CE018B559B4F0E94EF8E89E39BE00E946B
:10550000C448F394B0CFE394E9E0EE12ABCF6091DE
:10551000D60B7091D70BCB5FDD4F19830883C55035
:10552000D24089EF94E0C95FDD4F99838883C750EB
:10553000D240CE018B5F9D4F0E94277F8091D60B7A
:105540008093140860E0C8010E947E838091250842
:10555000813011F08D3051F480912608813031F482
:105560001092D70B1092D60B0E948A7163E474E0FC
:105570008EE19DE00E94B269882309F445C08091C4
:1055800025088D3089F580912608813069F58AE5F6
:1055900093E09A838983C953DF4F19821882C75CCD
:1055A000D040CE0101960E9460788C016091D60BAC
:1055B0007091D70B7093EE076093ED07CB5FDD4FD3
:1055C00099838883C550D24087E896E0C95FDD4F54
:1055D00099838883C750D240CE018B5F9D4F0E9434
:1055E000277FC8010E94937480912508813031F093
:1055F0008D3051F480912608813031F41092D70B10
:105600001092D60B0E948A716BE474E08EE19DE0EB
:105610000E94B269882309F441C0809125088D3029
:1056200069F580912608813049F58AE593E09A83EF
:105630008983C953DF4F19821882C75CD040CE01DD
:1056400001960E9460788C016091D60B6093EC0704
:10565000CB5FDD4F99838883C550D24083EF93E0C1
:10566000C95FDD4F99838883C750D240CE018B5FDD
:105670009D4F0E94C682C8010E94937480912508A4
:10568000813031F08D3051F480912608813031F431
:105690001092D70B1092D60B0E948A7163E574E0CA
:1056A0008EE19DE00E94B269882309F40CC18091CB
:1056B00025088B3009F0E1C080912608813009F07F
:1056C000DCC086ED9CE00E94F14D8AEE92E00E94E3
:1056D000F88561E080E00E9419868BED92E00E94DF
:1056E000F88582E493E09A838983CD5FDD4F198248
:1056F0001882C350D2404091150860915E08CE01D7
:1057000001960E9410688C0140914E0850914F08FC
:105710006091500870915108CB5FDD4F9983888369
:10572000C550D24080EF93E0C95FDD4F99838883F5
:10573000C750D240CE018B5F9D4F0E940B64909169
:10574000150880911408891778F588E493E0CB5FF9
:10575000DD4F99838883C550D240CD5CDC4F1982E0
:105760001882C353D340CE018B5F9D4F0E9448796E
:105770007C016091150860931408CB5CDC4F998321
:105780008883C553D34089EF94E0C95CDC4F99838B
:105790008883C753D340CE018B5C9C4F0E94C68246
:1057A00061E0C7010E947E83F0901508E0905E08DA
:1057B00066EE74E0CE018B5C9C4F0E945B8F69E3C8
:1057C0007CE0CE018B5C9C4F0E946F8E6CE177E099
:1057D0000E94588E6E2D0E94298E6AE277E00E9408
:1057E000588E6F2D0E94298E69EC76E00E94588EAB
:1057F00042E4BC01CE018B5F9D4F0E940277CE0137
:105800008B5F9D4F0E944786CE018B5C9C4F0E9410
:10581000EF8E40E051E0BE016B5F7D4FC8010E94FA
:10582000F782BE016B5F7D4F8EEE9CE00E94A98FD8
:105830008EEE9CE00E9457448091D60B9091D70B3E
:105840002091D80B3091D90B821793078CF40196D5
:105850009093D70B8093D60B809315088CE08093A0
:1058600025081092260880E090E00E94257205C06D
:105870008217930711F40E948A7180912508813064
:1058800011F5809126088130F1F48091D60B90912A
:10589000D70B8130910539F41092D70B1092D60BAB
:1058A0000E948A7110C001979093D70B8093D60BFA
:1058B000809315088CE0809325081092260880E0DC
:1058C00090E00E9425726AE574E08EE19DE00E94FE
:1058D000B269882309F445C0809125088D3089F587
:1058E00080912608813069F586ED9CE00E94F14D9B
:1058F00084E593E09A838983C95FDE4F1982188219
:10590000C750D140CE0101960E94AA788C016091C7
:10591000D60B6093F407CB5FDD4F99838883C55026
:10592000D2408FE496E0C95FDD4F99838883C750EA
:10593000D240CE018B5F9D4F0E94C682C8010E945B
:10594000946180912508813031F08D3051F480913F
:105950002608813031F41092D70B1092D60B0E949A
:105960008A7162E674E08EE19DE00E94B26988234C
:1059700009F45AC0809125088D3009F041C080910A
:1059800026088130E9F586ED9CE00E94F14D84E522
:1059900093E09A838983C95FDE4F19821882C750CA
:1059A000D140CE0101960E94AA788C016091D60B5D
:1059B0007091D70B072E000C880B990B0E94599FF2
:1059C000AB01BC014093F0075093F1076093F207DD
:1059D0007093F307CB5FDD4F19830883C550D24026
:1059E0008EE596E0C95FDD4F99838883C750D2402A
:1059F000CE018B5F9D4F0E940B64C8010E94946191
:105A000080912508813031F08D3071F48091260825
:105A1000813051F410924E0810924F0810925008A5
:105A2000109251080E948A7169E674E08EE19DE04F
:105A30000E94B269882309F445C0809125088D3001
:105A400089F580912608813069F586ED9CE00E94F9
:105A5000F14D84E593E09A838983C95FDE4F198213
:105A60001882C750D140CE0101960E94AA788C01BD
:105A70006091D60B6093EF07CB5FDD4F99838883EE
:105A8000C550D24087E596E0C95FDD4F9983888392
:105A9000C750D240CE018B5F9D4F0E94C682C80185
:105AA0000E94946180912508813031F08D3051F44D
:105AB00080912608813031F41092D70B1092D60BCA
:105AC0000E948A7167EA74E08EE19DE00E94B269EB
:105AD000882309F49DC0809125088D3009F07CC091
