:1000000008C1000036C1000034C1000032C1000048
:1000100030C100002EC100002CC100002AC1000028
:1000200028C1000026C1000024C1000022C1000038
:1000300020C100001EC100001CC100001AC1000048
:1000400018C1000016C1000014C1000012C1000058
:1000500010C100000EC100000CC100006EC5000000
:1000600008C1000060C4000035C4000002C10000E7
:1000700000C10000FEC00000FCC00000FAC000008B
:10008000F8C00000F6C00000F4C00000F2C000009C
:10009000F0C00000EEC00000ECC00000EAC00000AC
:1000A000E8C00000E6C00000E4C00000E2C00000BC
:1000B000E0C00000DEC00000DCC00000DAC00000CC
:1000C000D8C00000D6C00000D4C00000D2C00000DC
:1000D000D0C00000CEC00000CCC00000CAC00000EC
:1000E000C8C00000F804FB04EA04EE04F204320580
:1000F000FF04030509050D05110517051B051F055F
:100100003205250529052D0500000A0B02090C0DF5
:100110000E080703040100000000000000000000BA
:1001200000000000000000000000000000000000CF
:10013000000000001211100000000000000000008C
:1001400000000000000000000000000000000000AF
:100150002200250028002B002E003100340002016F
:100160000000050108010B01000021002400270008
:100170002A002D00300033000101000004010701B6
:100180000A0105050505070508080808020202021C
:100190000A0A080804040404010101010101010123
:1001A0000303030303030303040707070C0C0C0CEE
:1001B0000C0C0C0C020202020606060606060606D7
:1001C0000B0B0B0B0B0B0B0B010210202008081064
:1001D00020401020408002010201080402010102B7
:1001E0000408102040808040201008040201800490
:1001F00002018040201008040201080402010102EB
:1002000004081020408001020408102040804E0C99
:10021000E50B11241FBECFEFD1E2DEBFCDBF00E062
:100220000CBF12E0A0E0B2E0E0EBFEE100E00BBFAB
:1002300002C007900D92A638B107D9F724E0A6E8CE
:10024000B2E001C01D92A230B207E1F711E0C8E0B0
:10025000D1E000E006C021970109802FFE010E9435
:10026000EC0DC730D10780E00807A9F719D70C9427
:10027000470FC6CEFC01918D828D981761F0828D5B
:10028000DF01A80FB11D5D968C91928D9F5F9F73CA
:10029000928F90E008958FEF9FEF0895FC01918D6C
:1002A000828D981731F0828DE80FF11D858D90E0D9
:1002B00008958FEF9FEF0895FC01918D228D892F76
:1002C00090E0805C9F4F821B91098F73992708955E
:1002D00082ED92E0F1DF21E0892B09F420E0822F0A
:1002E0000895FC01848DDF01A80FB11DA35ABF4FF3
:1002F0002C91848D90E001968F739927848FA68925
:10030000B7892C93A089B1898C9180648C93938D4B
:10031000848D981306C00288F389E02D80818F7D3B
:1003200080830895EF92FF920F931F93CF93DF93F3
:10033000EC0181E0888F9B8D8C8D981305C0E88936
:10034000F989808185FD23C0F62E0B8D10E00F5FAB
:100350001F4F0F731127E02E8C8DE8120BC00FB6C4
:1003600007FCFACFE889F989808185FFF5CFCE01B6
:10037000B8DFF2CF8B8DFE01E80FF11DE35AFF4F7E
:10038000F0820B8FEA89FB898081806207C0EE8949
:10039000FF896083E889F98980818064808381E0B6
:1003A00090E0DF91CF911F910F91FF90EF90089512
:1003B000CF93DF93EC01888D8823C1F0EA89FB8914
:1003C000808185FD05C0A889B9898C9186FD0EC004
:1003D0000FB607FCF5CF808185FFF2CFA889B989D8
:1003E0008C9185FFEDCFCE017CDFE8CFDF91CF91FF
:1003F000089580E090E0892B19F06ADF811125C013
:1004000080E090E0892B41F080E090E0892B21F0A2
:100410000E94000081111CC080E090E0892B41F017
:1004200080E090E0892B21F00E940000811113C030
:1004300080E090E0892BA1F080E090E0892B81F0B2
:100440000E94000081110AC008950E940000D8CFC8
:100450000E940000E1CF0E940000EACF0C9400004F
:1004600008953FB7F89480918B0290918C02A091EF
:100470008D02B0918E0226B5A89B05C02F3F19F0C2
:100480000196A11DB11D3FBFBA2FA92F982F882714
:10049000820F911DA11DB11DBC01CD0142E0660F6F
:1004A000771F881F991F4A95D1F70895CF92DF9241
:1004B000EF92FF920F931F93CF93DF93EC016B01A9
:1004C000FB01848195819D838C8308969B838A831D
:1004D00029E0AC01249FC001259F900D11240E94AA
:1004E000F80D9983888300E010E0E12CF12C8C81D9
:1004F0009D81E816F90680F4F60160817181600F34
:10050000711F88819981800F911F0FD0FFEFEF1A23
:10051000FF0A075F1F4FEBCFDF91CF911F910F9124
:10052000FF90EF90DF90CF900895009749F0FB0186
:1005300021913191DC012D933D93CD01BF01B6CFC7
:100540000895EF92FF920F931F93CF93DF937C0157
:1005500000E010E0C0E0D0E0F70124813581808127
:100560009181C217D30740F4800F911F0296E9DFF3
:100570002196075F1F4FF0CFDF91CF911F910F9111
:10058000FF90EF900C948D0ECF92DF92EF92FF923E
:100590000F931F93CF93DF93EC01E880F9807B8367
:1005A0006A8389E0282F269FC001279F900D112480
:1005B0000E94F80D998388838701C12CD12C8C81EE
:1005C0009D81C816D90690F4C8018E199F0928810B
:1005D0003981B801820F931FA8DFC8010296B1DFED
:1005E0008FEFC81AD80A075F1F4FE9CFC701DF9105
:1005F000CF911F910F91FF90EF90DF90CF900C94CF
:100600008D0EAF92BF92CF92DF92EF92FF920F9337
:100610001F93CF93DF93FC01248135816217730709
:1006200008F56B01EC0189E0869F5001879FB00CB3
:1006300011248B01E12CF12C8C819D810817190765
:1006400078F4C7018A0D9B1D28813981820F931F81
:10065000029677DF0F5F1F4FF9E0EF0EF11CECCF32
:10066000DD82CC82DF91CF911F910F91FF90EF90AF
:10067000DF90CF90BF90AF900895AF92BF92CF928E
:10068000DF92EF92FF920F931F93CF93DF93EC01D2
:100690008B016817790709F46DC0FB0164817581CE
:1006A0008A819B818617970710F4CE016DDF8C81BC
:1006B0009D81F801C480D5808C159D0508F46C01DE
:1006C000E12CF12CA12CB12CAC14BD04C9F0F80123
:1006D00060817181888199816E0D7F1DFB0121915F
:1006E0003191BF018E0D9F1DFC0121933193CF01EC
:1006F000C4DFFFEFAF1ABF0A89E0E80EF11CE4CFB8
:10070000EC80FD80F80184819581E816F90658F0A7
:10071000F801648175818C819D816817790750F596
:10072000CE016FDF27C089E08E9D50018F9DB00CF8
:100730001124C12CD12CF80184819581E816F90689
:1007400038F7C6018A0D9B1DF80160817181680F21
:10075000791F28813981820F931FE7DE8C819D816B
:1007600001969D838C83FFEFEF1AFF0A89E0C80E84
:10077000D11CE1CFCE01DF91CF911F910F91FF905E
:10078000EF90DF90CF90BF90AF900895AF92BF925F
:10079000CF92DF92EF92FF920F931F93CF93DF934D
:1007A000CDB7DEB729970FB6F894DEBF0FBECDBF29
:1007B0005C016B01F501819191917F019A8389839D
:1007C000BF01CE01039672DEF601819191918F01F6
:1007D000F50191838083B801C7014FDF89819A8138
:1007E000F60191838083BE016D5F7F4FC80145DFB5
:1007F000CE010396A6DE29960FB6F894DEBF0FBE93
:10080000CDBFDF91CF911F910F91FF90EF90DF90BF
:10081000CF90BF90AF9008958F929F92AF92BF926A
:10082000CF92DF92EF92FF920F931F93CF93DF93BC
:10083000FC012481358189010F5F1F4F201731078B
:10084000D8F57B01EC01828193818017910740F4F8
:10085000B901675F7F4F8617970710F4CF0194DEC9
:10086000CC80DD8089E08C9D40018D9D900C112411
:10087000A12CB12CC016D10680F4C501880D991D9C
:1008800028813981B701820F931F4FDEFFEFCF1A06
:10089000DF0A89E0A80EB11CEDCF1D830C83DF9128
:1008A000CF911F910F91FF90EF90DF90CF90BF906D
:1008B000AF909F908F900895B801DF91CF911F91D5
:1008C0000F91FF90EF90DF90CF90BF90AF909F90EF
:1008D0008F9097CE1F920F920FB60F9211240BB6E6
:1008E0000F922F933F934F935F936F937F938F93C9
:1008F0009F93AF93BF93EF93FF9382ED92E0F1DC70
:10090000FF91EF91BF91AF919F918F917F916F91E7
:100910005F914F913F912F910F900BBE0F900FBEA3
:100920000F901F9018951F920F920FB60F921124DF
:100930000BB60F922F938F939F93EF93FF93E091BA
:10094000E202F091E3028081E091E802F091E90295
:1009500082FD12C090818091EB028F5F8F73209196
:10096000EC02821751F0E091EB02F0E0EE52FD4F05
:10097000958F8093EB0201C08081FF91EF919F9151
:100980008F912F910F900BBE0F900FBE0F901F9065
:100990001895362F90E0FC01E85FFE4F4491FC0172
:1009A000E853FE4F2491FC01EE57FE4F949199239A
:1009B00009F46BC0442309F455C050E0FA013197A3
:1009C000E231F10508F04EC08827EE58FF4F8F4FF7
:1009D0000C94EC0D809180008F7707C0809180008F
:1009E0008F7D03C080918000877F809380003AC014
:1009F00084B58F7702C084B58F7D84BD33C080916C
:100A0000B0008F7703C08091B0008F7D8093B000DD
:100A100029C0809190008F7707C0809190008F7DD2
:100A200003C080919000877F809390001BC08091CD
:100A3000A0008F7707C08091A0008F7D03C08091B8
:100A4000A000877F8093A0000DC0809120018F7748
:100A500007C0809120018F7D03C080912001877F96
:100A600080932001E92FF0E0EE0FFF1FE25BFE4FC5
:100A7000A591B4918FB7F894EC91311103C02095F2
:100A80002E2301C02E2B2C938FBF0895CF93DF937D
:100A9000EC0160E08E817DDF61E08E817ADF60E0D5
:100AA0008E8177DF8BE891E00197F1F7DF91CF91AD
:100AB00008958F929F92AF92BF92CF92DF92EF9262
:100AC000FF926B017C01CDDC4B015C01C114D104B0
:100AD000E104F104E9F0C5DCDC01CB0188199909D6
:100AE000AA09BB09883E9340A105B10578F321E02E
:100AF000C21AD108E108F10888EE880E83E0981E3A
:100B0000A11CB11CC114D104E104F10421F7DECF12
:100B1000FF90EF90DF90CF90BF90AF909F908F901D
:100B200008952FB7F89460918702709188028091A0
:100B3000890290918A022FBF08951F920F920FB6DB
:100B40000F9211242F933F938F939F93AF93BF9353
:100B50008091870290918802A0918902B0918A02C7
:100B60003091860223E0230F2D3720F40196A11D3A
:100B7000B11D05C026E8230F0296A11DB11D2093CB
:100B800086028093870290938802A0938902B09393
:100B90008A0280918B0290918C02A0918D02B0917B
:100BA0008E020196A11DB11D80938B0290938C0241
:100BB000A0938D02B0938E02BF91AF919F918F91C0
:100BC0003F912F910F900FBE0F901F9018950F938C
:100BD0001F93CF93DF93EC018B0188E090E09D831E
:100BE0008C831F821E8288E490E00E94F80D9B8314
:100BF0008A8319830883DF91CF911F910F91089504
:100C0000CF92DF92EF92FF920F931F93CF93DF93D8
:100C10007C016C0187E0C80ED11CC0E0D0E0062F3B
:100C200010E0B8010C2E02C0759567950A94E2F7A2
:100C30006170F60181916F01ACDE2196C430D1055F
:100C400081F7C701DF91CF911F910F91FF90EF9036
:100C5000DF90CF901BCFCF92DF92EF92FF920F9356
:100C60001F93CF93DF93EC01F62E642F8C8191DEDE
:100C70008D818F3F11F060E08CDE8F850F2D10E0AD
:100C800084FF23C06E0187E0C80ED11CE12CF12C3B
:100C9000B8010E2C02C0759567950A94E2F7617051
:100CA000F60181916F0175DEFFEFEF1AFF0A88E010
:100CB000E816F10469F7CE01DF91CF911F910F91F2
:100CC000FF90EF90DF90CF90E1CEB80184E0759572
:100CD00067958A95E1F7CE0193DF6F2DCE01DF9105
:100CE000CF911F910F91FF90EF90DF90CF9088CF21
:100CF00041E0B1DF81E090E0089540E061E0ABDFEA
:100D00008BE39FE10197F1F70895EF92FF920F9324
:100D10001F93CF93DF93CDB7DEB727970FB6F89425
:100D2000DEBF0FBECDBF8C017C0122E0E20EF11CC4
:100D3000B701CE010196BADB8D819E81892BD1F05E
:100D40008EEB93E0DADFF801808191818E51924041
:100D500021F0B8018CEA93E05FDDB70185EA93E00A
:100D60008CDCE091A503F091A603608171818EEB8C
:100D700093E095D168EE73E080E090E09ADECE01DA
:100D80000196DFDB27960FB6F894DEBF0FBECDBF0E
:100D9000DF91CF911F910F91FF90EF90089590E018
:100DA000FC01E853FE4F2491FC01EE57FE4F849165
:100DB000882399F090E0880F991FFC01E859FE4FB5
:100DC000A591B491FC01E25BFE4F859194918FB7A0
:100DD000F894EC91E22BEC938FBF0895CF92DF92C1
:100DE000EF92FF920F931F93CF93DF936C017A01E1
:100DF0008B01C0E0D0E0CE15DF0589F0D8016D9100
:100E00008D01D601ED91FC910190F081E02DC6019C
:100E10001995892B11F47E0102C02196ECCFC701F0
:100E2000DF91CF911F910F91FF90EF90DF90CF90C6
:100E30000895EF92FF920F931F93CF93DF93EC01EE
:100E400081E08B8B1C8A80E48D8B80E18E8B80E52A
:100E50008F8B8C81A4DF8D818F3F09F0A0DF8E8185
:100E60009EDF7E0187E0E80EF11C00E010E08F8538
:100E700084FD03C084E090E002C088E090E00817A1
:100E800019073CF4F70181917F0189DF0F5F1F4F44
:100E9000EECF8BE39DE00197F1F760E08C8179DD87
:100EA00060E08E8176DD8D818F3F11F060E071DD35
:100EB0006F8564FD19C063E0CE01A2DE0BE416E489
:100EC000C8010197F1F763E0CE019ADEC8010197EE
:100ED000F1F763E0CE0194DE83E592E00197F1F74C
:100EE00062E0CE018DDE16C0606240E0CE01B3DE6E
:100EF0008BE496E40197F1F76F85606240E0CE01E4
:100F0000AADE83E592E00197F1F76F85606240E029
:100F1000CE01A1DE6F85606240E0CE019CDE84E000
:100F2000888B40E06CE0CE0196DECE01E6DE82E00A
:100F3000898B40E066E0CE01DF91CF911F910F9148
:100F4000FF90EF9088CE50D66115710579F0FB01C6
:100F500001900020E9F73197AF01461B570BDC01E8
:100F6000ED91FC910280F381E02D199480E090E0F6
:100F70000895E2EDF2E0A089B18982E08C93A48526
:100F8000B5851C92A685B7858FEC8C93108EA489AD
:100F9000B58986E08C93A289B3898C9180618C930A
:100FA000A289B3898C9188608C93A289B3898C9132
:100FB00080688C930288F389E02D80818F7D808307
:100FC00008950F931F93ADDD00919C0210919D0237
:100FD00020919E0230919F02DC01CB01801B910B7E
:100FE000A20BB30BC297A105B10530F463E070E02A
:100FF00080E090E05EDDE7CF94DD60939C0270932B
:101000009D0280939E0290939F021F910F910895DD
:101010004F925F926F927F92EF92FF920F931F9386
:10102000CF93DF93CDB7DEB7A1970FB6F894DEBFAD
:101030000FBECDBF7C01FA01CB0119A2223008F40A
:101040002AE08E010F5D1F4F422E512C612C712C16
:10105000BF01A3019201F9D6F901CA01015011099A
:101060006A3014F4605D01C0695CD8016C93232B75
:10107000242B252B69F7B801C70166DFA1960FB6AF
:10108000F894DEBF0FBECDBFDF91CF911F910F91BE
:10109000FF90EF907F906F905F904F90089554CFA6
:1010A000CF93DF93CDB7DEB7A2970FB6F894DEBF2C
:1010B0000FBECDBF789484B5826084BD84B5816055
:1010C00084BD85B5826085BD85B5816085BD809113
:1010D0006E00816080936E0010928100809181008B
:1010E0008260809381008091810081608093810083
:1010F000809180008160809380008091B100846045
:101100008093B1008091B00081608093B0008091A5
:101110009100826080939100809191008160809322
:101120009100809190008160809390008091A10057
:1011300082608093A1008091A10081608093A100D2
:101140008091A00081608093A00080912101826045
:101150008093210180912101816080932101809100
:10116000200181608093200180917A0084608093C7
:101170007A0080917A00826080937A0080917A0070
:10118000816080937A0080917A00806880937A00F1
:101190001092C1001092CE021092CF021092D00293
:1011A0001092D10210929C0210929D0210929E0207
:1011B00010929F0260ED77E080E090E07ADC82EDB3
:1011C00092E09093CD028093CC02D3DEFADE63E20C
:1011D00072E08091CC029091CD0261DF6AE070E014
:1011E00080E090E066DC81E08093A002C2DE109295
:1011F000900210928F0280918103909182039A83D2
:10120000898363E873E0CE01039650D98091780317
:10121000909179039B878A876AE773E0CE010C96E9
:1012200045D982E090E099A388A38AE090E09F8F5F
:101230008E8F8AE590E0DCD49D8F8C8F89819A8196
:101240009C8B8B8BBE016D5F7F4FCE0145962ED957
:10125000BE016D5E7F4F8C8D9D8D67D9CE01459609
:1012600070D98A859B859C8B8B8BBE01645F7F4F79
:10127000CE0145961BD98C8D9D8DBE016D5E7F4F35
:10128000099653D9CE0145965CD9CE010C9659D911
:10129000CE01039656D9BE01645E7F4FCE01019602
:1012A00005D98D819E81019729E0289F8001299F82
:1012B000100D1124073F2FEF120751F069817A8139
:1012C000600F711F8CE893E0A7DA09501109F2CF83
:1012D000CE01019636D988E090E09E8B8D8B188EDA
:1012E0001F8A88E490E084D49C8B8B8B6AE873E03F
:1012F000CE01439691DA6FE673E0CE0143968CDA25
:1013000009E010E00150110979F065E372E0CE01C7
:1013100001965DDCBE016F5F7F4FCE0143967CDAA4
:10132000CE0103960ED9EECFBE016D5E7F4FCE018A
:101330000196BCD88D819E81019729E0289F80016C
:10134000299F100D1124073F8FEF180751F0698175
:101350007A81600F711F85E993E05EDA0950110907
:10136000F2CFCE010196EDD8809193039091940332
:101370009A83898365E973E0CE01039697D8CE01FD
:101380000196C3DCCE010396DCD865E973E085EAFB
:1013900093E073D92AE041E75CE160E070E08EEB16
:1013A00093E036DECE014396CCD8CE014C96C9D818
:1013B00080E4A82E99E0B92EB4DB672B682B692B4B
:1013C00031F4AFDB6230710581059105A0F1A9DB35
:1013D00060939702709398028093990290939A0277
:1013E00000919302109194022091950230919602FF
:1013F000601771078207930740F46093930270931C
:10140000940280939502909396020091930210911A
:10141000940220919502309196026B017C01C01AD2
:10142000D10AE20AF30A970186010A3F1105210554
:10143000310508F041C180917B00877F80937B005C
:10144000A0927C0080917A00806480937A008091E1
:101450007A0086FDFCCF809178002091790090E0A1
:10146000922B9093920280939102892B99F4609130
:10147000A5037091A603FB0181919191BF019A830D
:101480008983CE01039612D8CE0101963EDCCE01AF
:10149000039657D8809191029091920283369105DC
:1014A00009F04EC0C090A503D090A6038091A90377
:1014B0009091AA03B89E8001B99E100D11240C0DC5
:1014C0001D1D09501109C016D10691F48EEB93E051
:1014D00014DCE091A503F091A603608171818EEB8D
:1014E00093E0DDDD68EE73E080E090E0E2DA28C0B2
:1014F0007801095011094801F9E08F0E911CB801DB
:10150000C40144D98E149F0409F478010C151D05FB
:1015100081F78601075F1F4F4701EC14FD04B1F20C
:1015200029E0E21AF10809501109B701C8012ED9C2
:101530000815190589F3EC14FD0479F77401EDCF52
:1015400080919102909192028F3F910509F04CC0D9
:101550000091A5031091A6038091A9039091AA037D
:10156000B89E7001B99EF00C1124E00EF11E075FC9
:101570001F4FE016F10691F48EEB93E0BEDBE09195
:10158000A503F091A603608171818EEB93E087DD66
:1015900068EE73E080E090E08CDA26C06801B60166
:1015A000C6010997F3D8C6010996C016D10609F4F9
:1015B0008C016C018E159F0591F7C70109976C018D
:1015C00048010E151F05C1F2B801C601DFD899E028
:1015D000C90ED11C075F1F4FC814D90489F30E151B
:1015E0001F0579F78401EDCF8091910290919202CD
:1015F0008839914009F049C08091B0039091B103BE
:10160000892B59F18EEB93E078DB2091B003309178
:10161000B103B29EC001B39E900D11246091AC0342
:101620007091AD03680F791F6750710985EA93E0E7
:1016300024D86091B0037091B103615071098CEAB4
:1016400093E00E940103E091A503F091A60360815D
:1016500071818EEB93E023DD13C080919303909111
:1016600094039A83898365E973E0CE0103960E940F
:101670005602CE01019649DBCE0103960E94A102DB
:1016800068EE73E080E090E014DA8091910290912E
:101690009202883E934024F41092900210928F029E
:1016A00080918F0290919002019690939002809386
:1016B0008F020E94F90180CE60939302709394028E
:1016C00080939502909396027CDC6AE372E08091AD
:1016D000CC029091CD02E3DC62E472E08091CC0216
:1016E0009091CD02DCDC1DDAAB01BC012AE08091D7
:1016F000CC029091CD028CDC64E472E08091CC024B
:101700009091CD02CCDC65E070E080E090E0D1D932
:101710006AE070E080E090E0CCD98091A00288235C
:1017200009F489CE8091CC029091CD02DC01ED913B
:10173000FC910480F581E02D1995892B99F3809116
:10174000CC029091CD02DC01ED91FC910480F581F9
:10175000E02D1995181619060CF06DCE8091CC026B
:101760009091CD02DC01ED91FC910680F781E02D96
:10177000199599278336910551F08637910509F41B
:101780005ACE88359105D9F61092A002D8CF6DE4D3
:1017900072E08091CC029091CD0281DC2AE041E0A0
:1017A00050E060E070E08091CC029091CD0230DC9E
:1017B00064E572E08091CC029091CD0270DC62E32E
:1017C00070E080E090E075D936CEAF92BF92CF92B4
:1017D000DF92EF92FF920F931F93CF93DF9381E7F6
:1017E00093E00E94A1028AE793E00E94A10283E8AD
:1017F00093E00E94A1028CE893E00E94A10285E997
:1018000093E00E94A1028EE993E00E94A10285EA82
:1018100093E00E94A1028CEA93E00E94A102E12CD5
:10182000F12C00E010E02091BB033091BC038091CB
:10183000B7039091B8030217130728F5EC01CE0DFA
:10184000DF1DA12CB12CC12CD12C2E853F858A8582
:101850009B85C216D30668F4FC01EA0DFB1D80814E
:1018600091815BD28FEFC81AD80A82E1A80EB11C11
:10187000ECCF53D28881998150D20F5F1F4F81E105
:10188000E80EF11CD0CFDF91CF911F910F91FF9007
:10189000EF90DF90CF90BF90AF903FC2CF92DF929A
:1018A000EF92FF920F931F93CF931092D502109255
:1018B000D40288EE93E0A0E0B0E08093D60290934B
:1018C000D702A093D802B093D9028AE092E0909315
:1018D000D3028093D20285EC90E09093DF02809354
:1018E000DE0284EC90E09093E1028093E00280ECD1
:1018F00090E09093E3028093E20281EC90E0909379
:10190000E5028093E40282EC90E09093E7028093FA
:10191000E60286EC90E09093E9028093E802109250
:10192000EB021092EC021092ED021092EE02109275
:10193000D9031092D8038AE1E82E82E0F82EF092C3
:10194000D703E092D6038CE08093DA03CFEFC09305
:10195000DB038BE08093DC0315E01093DD0304E0F0
:101960000093DE0383E08093DF0382E08093E00353
:101970001092E1031092E2031092E3031092E40349
:101980001092E50386ED93E054DA1092C1031092B1
:10199000C003F092BF03E092BE0388E08093C203CD
:1019A000C093C30389E08093C4030093C5031093DD
:1019B000C60386E08093C70387E08093C803109234
:1019C000C9031092CA031092CB031092CC03109259
:1019D000CD038EEB93E02DDA88E090E09093BA038C
:1019E0008093B9031092BC031092BB0388E890E087
:1019F000FFD09093B8038093B70393D8C090F603B9
:101A0000D090F703E090F803F090F9038B019C016C
:101A10000C191D092E093F098091FA039091FB03CF
:101A2000A091FC03B091FD03083E13402105310550
:101A3000D0F00196A11DB11D8093FA039093FB0392
:101A4000A093FC03B093FD03B701A60148515C4F7E
:101A50006F4F7F4F4093F6035093F7036093F80363
:101A60007093F903CACF4091F2035091F303609150
:101A7000F4037091F50384179507A607B70708F4D8
:101A800055C0E091F003F091F103309709F44EC096
:101A90001995611571058105910531F16093FA037E
:101AA0007093FB038093FC039093FD03DC01CB0157
:101AB000845D9E4FAF4FBF4F8093F2039093F3032B
:101AC000A093F403B093F50382E090E09093EF03CA
:101AD0008093EE0326D86093F6037093F703809308
:101AE000F8039093F90322C08091FA039091FB03CD
:101AF000A091FC03B091FD03845D9E4FAF4FBF4F9B
:101B00008093F2039093F303A093F403B093F5034F
:101B100081E090E02091EE033091EF03232B11F44C
:101B200080E090E09093EF038093EE038091FA03BE
:101B30009091FB03A091FC03B091FD038093B3034C
:101B40009093B403A093B503B093B60308E010E0FC
:101B50001093AF030093AE031092B1031092B00341
:101B600088E490E045D09093AD038093AC0310934C
:101B7000A8030093A7031092AA031092A90388E474
:101B800090E036D09093A6038093A5036DE572E0B4
:101B90008CE993E01CD86EE172E083E993E017D8FA
:101BA00065E672E08AE893E012D86EE672E081E8BA
:101BB00093E00DD868E772E088E793E008D86DE716
:101BC00072E08FE693E0CF911F910F91FF90EF901D
:101BD000DF90CF900C94E705EE0FFF1F881F8BBF9F
:101BE0000790F691E02D199481E090E0F8944FC1B0
:101BF000CF93DF938230910510F482E090E0E09182
:101C00000004F091010420E030E0C0E0D0E0309723
:101C100011F14081518148175907C0F04817590701
:101C200061F482819381209719F09B838A832BC072
:101C3000909301048093000426C02115310519F00A
:101C40004217530718F49A01BE01DF01EF01028029
:101C5000F381E02DDCCF2115310509F1281B390B6B
:101C60002430310590F412968D919C911397611553
:101C7000710521F0FB019383828304C090930104DA
:101C800080930004FD01329644C0FD01E20FF31F72
:101C900081939193225031092D933C933AC0209126
:101CA000FE033091FF03232B41F420910202309177
:101CB00003023093FF032093FE0320910002309132
:101CC00001022115310541F42DB73EB740910402C0
:101CD00050910502241B350BE091FE03F091FF03A8
:101CE000E217F307A0F42E1B3F0B2817390778F0F3
:101CF000AC014E5F5F4F2417350748F04E0F5F1F52
:101D00005093FF034093FE038193919302C0E0E060
:101D1000F0E0CF01DF91CF9108950F931F93CF9300
:101D2000DF93009709F48CC0FC0132971382128272
:101D300000910004109101040115110581F4208126
:101D40003181820F931F2091FE033091FF032817EA
:101D5000390779F5F093FF03E093FE0371C0D801D2
:101D600040E050E0AE17BF0750F412962D913C9121
:101D70001397AD012115310509F1D901F3CF9D016B
:101D8000DA013383228360817181860F971F821766
:101D9000930769F4EC0128813981260F371F2E5FE4
:101DA0003F4F318320838A819B8193838283452B9C
:101DB00029F4F0930104E093000442C01396FC93CD
:101DC000EE931297ED01499159919E01240F351F11
:101DD000E217F30771F480819181840F951F0296B9
:101DE00011969C938E938281938113969C938E93EC
:101DF0001297E0E0F0E0D80112968D919C91139734
:101E0000009719F0F8018C01F6CF8D919C91980103
:101E10002E5F3F4F820F931F2091FE033091FF03EF
:101E20002817390769F4309729F4109201041092A9
:101E3000000402C0138212821093FF030093FE037A
:101E4000DF91CF911F910F910895A1E21A2EAA1B45
:101E5000BB1BFD010DC0AA1FBB1FEE1FFF1FA2175A
:101E6000B307E407F50720F0A21BB30BE40BF50B57
:101E7000661F771F881F991F1A9469F760957095E0
:101E8000809590959B01AC01BD01CF01089511E0B3
:101E9000C8E0D1E000E005C0802FFE019DDE219664
:101EA000011DC930D10780E00807B1F7F894FFCFD2
:101EB000000002048000000000009201EE065C01B8
:101EC0003A014E01D801000000007806EE06726F5C
:101ED0006F7400564D4450565F317C315F564D440F
:101EE00050560D0A004D656E7500564D4450455FC5
:101EF00031007C005F564D4450450D0A00564D445C
:101F000050435F005F564D4450430D0A00637572A5
:101F100072656E740073657474696E6773006461D2
:101F200074652F74696D650023206F662063686196
:061F30006E6E656C73008B
:00000001FF
