:10000000C8C700000C94148C0C94E98B0C94BE8B24
:100010000C94938B0C94688B0C943D8B0C94128BEA
:100020000C94E78AE7C70000E5C70000E3C70000BB
:10003000E1C70000DFC70000DDC70000DBC700002C
:10004000D9C70000D7C70000D5C70000D3C700003C
:10005000D1C70000CFC70000CDC700000C949D8A17
:10006000C9C700000C9421530C94F752C3C7000079
:10007000C1C70000BFC70000BDC70000BBC700006C
:10008000B9C70000B7C70000B5C70000B3C700007C
:10009000B1C70000AFC70000ADC700000C94AC4171
:1000A000A9C70000A7C70000A5C70000A3C700009C
:1000B000A1C700009FC700009DC700009BC70000AC
:1000C00099C7000097C7000095C7000093C70000BC
:1000D00091C700008FC700008DC700008BC70000CC
:1000E00089C70000543A0E1F3B3A263A503A263A46
:1000F0003C3A523A263A543A263A393A543A613A14
:100100003B3A263A503A263A3C3A523A263A543A40
:10011000263A393AF34DC64CB24CD34CCD4CCA4C6E
:10012000714C9D4CA985AB85AD85AF85B185B385F7
:10013000B585B785B985BB85BD85BF85C185C385B7
:10014000C585C78542894589348938893E897C8936
:1001500049894D89538957895B896189658969898D
:100160007C896F8973897789504C45414553204874
:100170004F4C4421212100504820445249465420EC
:10018000464958494E4700504C4541455320484F39
:100190004C442121210050482044524946542046D5
:1001A0004958494E4700504C4541534520484F4C13
:1001B0004421212100544F5050494E47204F46467C
:1001C00020454300504C4541534520484F4C442165
:1001D0002100205345434F4E442044454C41590093
:1001E0003000303000504C4541534520484F4C447E
:1001F000212100444F53494E4720544F504F46460B
:1002000000444F53494E4720524547494D454E0003
:100210003C6261636B3E2020202020203C6F6B3EBF
:100220000067616C006C71642F003C6261636B3E1F
:100230002020202020203C6F6B3E00205245474963
:100240004D454E20444F534553003C6E6F3E202099
:10025000202020203C7965733E0020434F4E4649C4
:10026000524D20524553455420003C696E3E3C6F30
:1002700075743E203C646F6E653E004D414E5541A5
:100280004C20464C555348494E4700002A004275C1
:10029000696C64696E672043726F702E2E2E002089
:1002A0004C4F4144494E47202043524F502020009C
:1002B000504C4541534520484F4C44212100435266
:1002C0004F5020524553455454494E4700504C45D9
:1002D00041534520484F4C442E2E2E005341564941
:1002E0004E4720524547494D454E00454343414CFA
:1002F0004C4F57004E4F572046494E4953484544AE
:10030000210045432043414C4942524154494F4EFC
:1003100000454343414C00454343414C4849004557
:100320004343414C4C4F57004E4F572046494E498E
:1003300053484544210050482043414C49425241D2
:1003400054494F4E00504843414C4D494400504899
:1003500043414C484900504843414C4C4F57005092
:100360004843414C4D49440020504C4541534520A1
:10037000484F4C442E2E2E2000414444494E4720E5
:10038000524547494D454E530020504C4541534539
:1003900020484F4C442E2E2E20005452494D2052BE
:1003A0004547494D454E530043726F70204E616D75
:1003B00065203C646F6E653E00416C7265616479D6
:1003C0002045786973747300536F7272792C2043DF
:1003D000726F700043726F70204E616D65203C64D7
:1003E0006F6E653E0043726F70204E616D657300E5
:1003F000536F7272792C204E6F20426C616E6B00CD
:100400003C6261636B3E2020202020203C6F6B3ECD
:10041000002053752F3031002D00504D00414D000C
:100420003C6261636B3E2020202020203C6F6B3EAD
:10043000003A002D003A00504D00414D0020202090
:10044000202020202020203C646F6E653E00205438
:100450004F205052494D4520434830003C62616373
:100460006B3E2020202020203C6F6B3E0020524518
:1004700047494D454E20444F5345530020506C652D
:1004800061736520486F6C642E2E2E20004E6577B8
:100490002043726F702053657475700020506C6536
:1004A00061736520486F6C642E2E2E20004E657798
:1004B00020447269766520466F756E6421002020A5
:1004C000504C4541534520484F4C442020004C4F50
:1004D0004144494E472043524F502E2E2E000020BB
:1004E0003C6261636B3E203C6F6B3E00200020004D
:1004F0003A00414D00504D003C6261636B3E20204C
:10050000202020203C6F6B3E0020434F4E43454E41
:10051000545241544500352F3600342F3600332FC6
:100520003600322F3600312F36003C6261636B3E5D
:100530002020202020203C6F6B3E00545046202875
:1005400067616C2920003C6261636B3E20202020A3
:1005500020203C6F6B3E0020544F504F46462044B5
:10056000454C4159003C6261636B3E2020202020B5
:10057000203C6F6B3E00204D696E28732920447229
:1005800061696E00300039393939003C6261636B52
:100590003E2020202020203C6F6B3E00204F5554F1
:1005A00000494E00504C4541534520484F4C442192
:1005B000212100464C555348494E4720504C414E4E
:1005C00054530000002100240027002A002D003091
:1005D00000330001010000040107010A01524551E6
:1005E0005549524544534400496E73657274204125
:1005F0006E642052657365740053442043617264D5
:10060000205265717569726564003C6261636B3E7E
:100610002020202020203C6F6B3E003000414D0008
:10062000504D002F002000414D00504D00504D0016
:10063000414D0053610046690054680057650054FD
:1006400075004D6F00537500504C4541534520488F
:100650004F4C442121210046454544494E472050F6
:100660004C414E5453003C6261636B3E20203C6F12
:1006700070656E3E003C6261636B3E202020203C32
:10068000646F6E653E003C6261636B3E20202020FB
:100690003C6E6578743E003C63616E63656C3E2021
:1006A000203C6E6578743E003030303030300020B1
:1006B00043414C2D20002043414C202D200020534D
:1006C0004F4C5554494F4E00494E2000504C414329
:1006D000452045432050524F4245530046524F4D0E
:1006E000205741544552204E4F57210052454D4FFF
:1006F00056452050524F424553005354415254499D
:100700004E47204E4F57002043414C4942524154DE
:10071000494F4E003C6261636B3E202020203C6EBE
:100720006578743E003C6261636B3E202020203C73
:10073000646F6E653E003C63616E63656C3E2020B5
:100740003C6E6578743E002E30002043414C202DD5
:10075000200020534F4C5554494F4E00494E200025
:10076000504C4143452050524F4245530053544151
:100770005254494E47204E4F57002043414C494266
:10078000524154494F4E00446563004E6F76004F0E
:1007900063740053657000417567004A756C004AC8
:1007A000756E004D61790041706C004D61720046BC
:1007B0006562004A616E0054494D455300535441EF
:1007C000525420454E4400005354415254454E4427
:1007D00000534F4C5554494F4E005052494D4520FF
:1007E00050554D50000000005052494D4500464CB8
:1007F000555348494E47004D414E55414C205359A1
:100800005354454D004D414E464C55534800464CBF
:100810004F57204D455445525300464C4F57434186
:100820004C0050554D5043414C0050554D502044C4
:100830004F5345494E470000000044454C41590084
:10084000524547494D454E5320286D6C2900414D76
:100850004F554E54005745454B53005745454B5354
:1008600000524547494D454E20444F534553004E95
:10087000554D424552204F4600524547494D454E41
:100880005300445241494E2054494D450044524E74
:1008900054494D4500414D4F554E5400545046412A
:1008A0004D4E5400545046444C590000434F4E4363
:1008B000454E545241544500544F50204F46460037
:1008C00054504643434E5400564F4C554D452043DB
:1008D0004F4E464947005245534552564F495200E4
:1008E00052535652564F4C00535441545553005294
:1008F00045534554005245534554000044454C452A
:1009000054450044454C455445004E4557004E451E
:1009100057004F50454E004F50454E00414D4F55EA
:100920004E5420434F4E464947005048414D4E5487
:100930000044454C415920434F4E46494755524586
:100940000050482041444A5553544D454E540050A0
:1009500048444C590050482050524F424500000036
:10096000504843414C0043414C4942524154450098
:1009700045432050524F424500000000004543438C
:10098000414C0050482052414E474500504852418A
:100990004E47450045432F50504D2052414E47454C
:1009A00000454352414E474500434F4E4649475547
:1009B000524154494F4E0044415445202620544949
:1009C0004D45004441544554494D450054494D4519
:1009D000520054494D4552530049525249474154DF
:1009E000494F4E00495252490043524F5000505512
:1009F0004D50000050554D50530053455454494EEE
:100A000047530053595354454D0053595300003C2C
:100A10006261636B3E2020202020203C6F6B3E00F3
:100A2000286D6C2920706572206D696E00003000A1
:100A30003030003C6261636B3E2020202020203C4F
:100A40006F6B3E00204D696E2873292044656C61F0
:100A500079003C707265763E202020203C646F6EE9
:100A6000653E003C707265763E202020203C6E651D
:100A700078743E003C6261636B3E202020203C6E17
:100A80006578743E006D6C00200052454749200097
:100A9000303030302E3030003030300030300030E8
:100AA0000000303030302E3000002050483A0050E6
:100AB000504D3A00200020003A00B307AF07AB07C3
:100AC000A707A3079F079B07970793078F078B0726
:100AD00087070A0A030AFA09F409EE09FA09E9097B
:100AE000E909FA09E409D909FA09D209CC09FA098C
:100AF000C309B709A909A1099409A9098C0983099E
:100B0000A9097D09700966096009550966094F0937
:100B1000410931092A0941091C0917091209E90982
:100B20000E090A09E9090309FC08E909F508EF08B3
:100B3000E909E808E909E808E008D608C808C00893
:100B4000B808AC08A408B80831099C08B80895088A
:100B50008D088208A90979086F0861085B086F0889
:100B600055084E084008A9093A082A083109220800
:100B7000EE0966091A080E0866090508F707EE0768
:100B8000E807DA07D107C807BD07B707524543454D
:100B9000505441434C45200054494D454400505564
:100BA0004D50200053595354454D00010210202050
:100BB00008081020401020408002010201080402B1
:100BC0000101020408102040808040201008040227
:100BD0000180040201804020100804020108040280
:100BE0000101020408102040800102040810204086
:100BF0008000002200250028002B002E0031003448
:100C00000002010000050108010B010505050507AB
:100C10000508080808020202020A0A080804040477
:100C200004010101010101010103030303030303A3
:100C300003040707070C0C0C0C0C0C0C0C02020232
:100C40000206060606060606060B0B0B0B0B0B0B25
:100C50000B390038003700360035003400330032DD
:100C600000310030005A0059005800570056005516
:100C700000540053005200510050004F004E004DF0
:100C8000004C004B004A0049004800470046004520
:100C90000044004300420041002000990C970C954D
:100CA0000C930C910C8F0C8D0C8B0C890C870C8584
:100CB0000C830C810C7F0C7D0C7B0C790C770C75F4
:100CC0000C730C710C6F0C6D0C6B0C690C670C6564
:100CD0000C630C610C5F0C5D0C5B0C590C570C55D4
:100CE0000C530C510C52554E4E494E470050415535
:100CF000534544003C6261636B3E2020202020204D
:100D00003C6F6B3E005354415455533A20003C62B3
:100D100061636B3E2020202020203C6F6B3E005002
:100D2000482041444A20286D6C2920003C626163C0
:100D30006B3E2020202020203C6F6B3E005048203E
:100D4000444C5920286D696E2920003C6261636B18
:100D50003E2020202020203C6F6B3E002050480089
:100D600020003C6261636B3E202020203C646F6E5B
:100D7000653E002045432F30002045432F000030C2
:100D80000030303000303000003000303030003083
:100D900030005052455620524547494D454E004E71
:100DA00045585420524547494D454E00504C454109
:100DB000534520484F4C442E2E2E007C3C3E5E2B4B
:100DC0003D3F2F5B5D3B2C2A225C0043726F7020FD
:100DD0004E616D65203C646F6E653E004E45570068
:100DE0004E45585420524547494D454E004D4F56AB
:100DF000494E47204F4E544F00000020002300264C
:100E00000029002C002F0032000001000003010621
:100E100001090100000A0B02090C0D0E080703046A
:100E200001000000000000000000000000000000C1
:100E300000000000000000000000000000000012A0
:100E40001110000000000000000000000000000081
:100E50000000000000000000004E414E494E495481
:100E600059494E46CDCCCC3D0AD7233C17B7D13893
:100E700077CC2B329595E6241FB14F0A0000204114
:100E80000000C84200401C4620BCBE4CCA1B0E5A83
:100E9000AEC59D7400407A10F35A00A0724E180936
:100EA0000010A5D4E80000E87648170000E40B54D1
:100EB000020000CA9A3B000000E1F50500008096A0
:100EC0009800000040420F000000A08601000000D2
:100ED000102700000000E80300000000640000008C
:100EE00000000A00000000000100000000002C7655
:100EF000D888DC674F0823DFC1DFAE59E1B1B79670
:100F0000E5E3E453C63AE651997696E8E6C28426CC
:100F1000EB898C9B62ED407C6FFCEFBC9C9F40F2A8
:100F2000BAA56FA5F490055A2AF75C936B6CF96724
:100F30006DC11BFCE0E40D47FEF520E6B500D0EDE9
:100F4000902E0300943577050080841E0800002051
:100F50004E0A000000C80C333333330F986E1283EF
:100F60001141EF8D2114893BE65516CFFEE6DB18C3
:100F7000D1844B381BF77C1D901DA4BBE424203288
:100F800084725E228100C9F124ECA1E53D2795958C
:100F90005C9511241FBECFEFD1E2DEBFCDBF00E0D4
:100FA0000CBF17E0A0E0B2E0E6E3F7E401E00BBF1E
:100FB00002C007900D92AC3CB107D9F72DE0ACEC24
:100FC000B7E001C01D92A733B207E1F717E0C8EC04
:100FD000D7E000E006C021970109802FFE010E94A2
:100FE0008F97C73CD10780E00807A9F70E94889136
:100FF0000C9489A305C82F923F924F925F926F92F3
:101000007F928F929F92AF92BF92CF92DF92EF9298
:10101000FF920F931F93CF93DF93CDB7DEB7C251EB
:10102000D6400FB6F894DEBF0FBECDBF80917B00D7
:10103000877F80937B0080E480937C0080917A009E
:10104000806480937A0080917A00282F2074322E59
:1010500086FDF9CF809178002091790090E0922B65
:101060009093D5078093D4078B38924090F40E94D8
:10107000918A6093D0077093D1078093D2079093A1
:10108000D3076093CC077093CD078093CE079093DE
:10109000CF070E94918A0091D0071091D10720912B
:1010A000D2073091D307DC01CB01801B910BA20B3F
:1010B000B30B80319742A105B10510F00E94C6889C
:1010C0000E94918A0091CC071091CD072091CE0704
:1010D0003091CF07DC01CB01801B910BA20BB30B2E
:1010E000883E9340A105B10508F41CC165E677E090
:1010F00084ED9CE00E94365E882309F473C00E9450
:10110000918A0091D0071091D1072091D207309198
:10111000D307DC01CB01801B910BA20BB30B8031F9
:101120009742A105B10508F45DC08091090D813099
:1011300009F058C02DEC3CEC4CEC5CE36091CA0823
:101140007091CB088091CC089091CD080E94B09806
:10115000181694F02DEC3CEC4CEC5CE36091CE085E
:101160007091CF088091D0089091D1080E94B098DA
:10117000181614F00C94E0332DEC3CEC4CEC5CE3D2
:101180006091CE087091CF088091D0089091D108DD
:101190000E94B098181614F00C9440342AE037EDF1
:1011A00043E25CE36091CA087091CB088091CC085F
:1011B0009091CD080E94B098181614F00C94CD347C
:1011C0002DEC3CEC4CE45DE36091CA087091CB08D7
:1011D0008091CC089091CD080E94B098181614F018
:1011E0000C94113562ED73E084ED9CE00E94365E54
:1011F000882309F464C020E030E040E752E46091C5
:10120000CA087091CB088091CC089091CD080E94BB
:101210000A9820E030E04AE754E40E9413A02091AD
:10122000DD083091DE084091DF085091E0080E940F
:101230009F976093DD087093DE088093DF0890939A
:10124000E0082CEB30E14EE855E40E940A986B016F
:101250007C0160930A0D70930B0D80930C0D90939D
:101260000D0D8CE89CE00E94864E41E050E0C701E5
:10127000B6010E94A05A85E292E00E943B592DE1FE
:101280003AE245E55FE3C701B6010E9413A041E0E1
:1012900050E00E94A05A81E292E00E943B5961E036
:1012A00080E00E945C5980E192E00E943B5960918D
:1012B0005D0880915C080E945C590E9427590E9439
:1012C000918A0091CC071091CD072091CE073091E3
:1012D000CF07DC01CB01801B910BA20BB30B803D30
:1012E0009740A105B105F0F00E94918A0091D007C6
:1012F0001091D1072091D2073091D307DC01CB01A7
:10130000801B910BA20BB30B80319742A105B10555
:1013100048F065E677E084ED9CE00E94365E81113E
:101320000C945C371091DA080E94145CCB53DA4FAE
:101330002883C55CD540CA53DA4F3883C65CD54094
:10134000C953DA4F4883C75CD540C853DA4F588336
:10135000C85CD540C753DA4F6883C95CD540C653D3
:10136000DA4F7883CA5CD540C553DA4F8883CB5CAB
:10137000D540C453DA4F9883CC5CD540131771F134
:101380000E9426570E94145CC354DA4F2883CD5B19
:10139000D540C254DA4F3883CE5BD540C154DA4FC2
:1013A0004883CF5BD540C054DA4F5883C05CD540EA
:1013B000CF53DA4F6883C15CD540CE53DA4F788380
:1013C000C25CD540CD53DA4F8883C35CD540CC5343
:1013D000DA4F9883C45CD5403093DA084090D40744
:1013E0005090D5074114510439F028E9421621E004
:1013F000520611F00C941A166AED73E084ED9CE02D
:101400000E94365E882309F4A7C04CEF52E062E0E8
:1014100070E09E0127523A4F8E010F5F1F4FC801A7
:101420000E94AA8F4AEF52E062E070E09E012D52C6
:101430003A4FCE0108960E94AA8F48EF52E062E030
:1014400070E09E0123533A4FCE010F960E94AA8F5F
:1014500046EF52E062E070E09E012E553A4FCE0119
:1014600046960E94AA8FA80164E070E06E018BECA2
:10147000C81A8CEFD80A9E0129573A4FC6010E941C
:10148000498F44EF52E062E070E07E019BEFE91A81
:101490009DEFF90A9E0124593A4FC7010E94AA8F75
:1014A00042EF52E062E070E03701A7E06A0E711C83
:1014B0009E012F5A3A4FC3010E94AA8F40EF52E07B
:1014C00062E070E05701BEE0AB0EB11C9E01235DEF
:1014D0003A4FC5010E94AA8FA70163E070E0460160
:1014E000E7E08E0E911C9E0127513B4FC4010E94E4
:1014F000498FA60162E070E09E012B553B4FCE0163
:1015000083509C4F0E94E88ECE0183509C4F0E94D6
:10151000E37ECE0183509C4F0E94C68EC4010E9480
:10152000A48EC6010E94A48EC5010E949F8EC30195
:101530000E949F8EC7010E949F8ECE0146960E94F8
:101540009F8ECE010F960E949F8ECE0108960E941C
:101550009F8EC8010E949F8E63EE73E084ED9CE035
:101560000E94365E882309F45BC04EEE52E062E0D2
:1015700070E08E010B5C1C4F9E0124593A4FC8014C
:101580000E94AA8FA80161E070E09E012F5A3A4F95
:10159000CE0101966C010E94498F4CEE52E062E050
:1015A00070E07E019BEFE91A9DEFF90A9E01235D31
:1015B0003A4FC7010E94AA8FA70161E070E09E0127
:1015C00027513B4FCE0108960E94498FA60162E049
:1015D00070E09E012B553B4FCE0183509C4F0E94E3
:1015E000E88ECE0183509C4F0E94E37ECE01835053
:1015F0009C4F0E94C68ECE0108960E94A48EC60102
:101600000E94A48EC7010E949F8EC8010E949F8ED7
:10161000452831F480E090E00E94FB720E94275937
:1016200067EE73E084ED9CE00E94365E882309F447
:1016300065C04AEE52E062E070E07E01ABECEA1A6F
:10164000ACEFFA0A9E0129573A4FC7010E94AA8FB0
:10165000A70161E070E08E010B5F1D4F9E012459D0
:101660003A4FC8010E94498F48EE52E062E070E0B4
:101670009E012F5A3A4FFE0131966F01CF010E9411
:10168000AA8F46EE52E062E070E09E01235D3A4F81
:10169000CE0108960E94AA8FA60162E070E0580170
:1016A000F7E0AF0EB11C9E0127513B4FC5010E94D0
:1016B000498FA80162E070E09E012B553B4FCE019F
:1016C00083509C4F0E94E88ECE0183509C4F0E9415
:1016D000E37ECE0183509C4F0E94C68EC5010E94BE
:1016E000A48EC8010E94A48ECE0108960E949F8EEF
:1016F000C6010E949F8EC7010E949F8E6CEE73E010
:1017000084ED9CE00E94365E882309F464C044EEB8
:1017100052E062E070E07E012BECE21A2CEFF20A5C
:101720009E0129573A4FC7010E94AA8FA70161E085
:1017300070E08E010B5F1D4F9E0124593A4FC80186
:101740000E94498F42EE52E062E070E09E012F5A03
:101750003A4FCE0101966C010E94AA8F40EE52E0F2
:1017600062E070E09E01235D3A4FCE0108960E9430
:10177000AA8FA60162E070E0580197E0A90EB11CA3
:101780009E0127513B4FC5010E94498FA80162E08D
:1017900070E09E012B553B4FCE0183509C4F0E9421
:1017A000E88ECE0183509C4F0E94E37ECE01835091
:1017B0009C4F0E94C68EC5010E94A48EC8010E9443
:1017C000A48ECE0108960E949F8EC6010E949F8E15
:1017D000C7010E949F8E62EF73E084ED9CE00E943F
:1017E000365E882309F465C04EED52E062E070E099
:1017F0007E01ABECEA1AACEFFA0A9E0129573A4F88
:10180000C7010E94AA8FA70161E070E08E010B5F03
:101810001D4F9E0124593A4FC8010E94498F4CED3B
:1018200052E062E070E09E012F5A3A4FFE0131967D
:101830006F01CF010E94AA8F4AED52E062E070E092
:101840009E01235D3A4FCE0108960E94AA8FA60101
:1018500062E070E05801F7E0AF0EB11C9E01275125
:101860003B4FC5010E94498FA80162E070E09E01D4
:101870002B553B4FCE0183509C4F0E94E88ECE01EA
:1018800083509C4F0E94E37ECE0183509C4F0E9468
:10189000C68EC5010E94A48EC8010E94A48ECE01EE
:1018A00008960E949F8EC6010E949F8EC7010E94CB
:1018B0009F8E69EF73E084ED9CE00E94365E882382
:1018C00009F484C048ED52E062E070E09E012353C9
:1018D0003A4FCE0101966C010E94AA8F46ED52E06C
:1018E00062E070E09E012E553A4FCE0108960E94AC
:1018F000AA8F44ED52E062E070E09E0129573A4F12
:10190000CE010F960E94AA8FA60163E070E07E01CF
:101910009BECE91A9CEFF90A9E0124593A4FC70142
:101920000E94498F42ED52E062E070E08E010B5F51
:101930001D4F9E012F5A3A4FC8010E94AA8F40EDB9
:1019400052E062E070E05801A7E0AA0EB11C9E01CF
:10195000235D3A4FC5010E94AA8FA80162E070E0A2
:101960004701B7E08B0E911C9E0127513B4FC401EC
:101970000E94498FA70162E070E09E012B553B4F0A
:10198000CE0183509C4F0E94E88ECE0183509C4F25
:101990000E94E37ECE0183509C4F0E94C68EC401FC
:1019A0000E94A48EC7010E94A48EC5010E949F8E32
:1019B000C8010E949F8ECE010F960E949F8ECE017D
:1019C00008960E949F8EC6010E949F8E61E074E07F
:1019D00084ED9CE00E94365E882309F475C04EECCD
:1019E00052E062E070E08E010B5F1D4F9E012E55AC
:1019F0003A4FC8010E94AA8F4CEC52E062E070E0BE
:101A00005801E7E0AE0EB11C9E0129573A4FC501BF
:101A10000E94AA8FA80162E070E07E01FBECEF1A41
:101A2000FCEFFF0A9E0124593A4FC7010E94498FDB
:101A30004AEC52E062E070E09E012F5A3A4FCE012C
:101A400001966C010E94AA8F48EC52E062E070E0BF
:101A50009E01235D3A4FCE0108960E94AA8FA601EF
:101A600062E070E0470197E0890E911C9E012751CA
:101A70003B4FC4010E94498FA70162E070E09E01C4
:101A80002B553B4FCE0183509C4F0E94E88ECE01D8
:101A900083509C4F0E94E37ECE0183509C4F0E9456
:101AA000C68EC4010E94A48EC7010E94A48ECE01DE
:101AB00008960E949F8EC6010E949F8EC5010E94BB
:101AC0009F8EC8010E949F8E69E074E084ED9CE0C7
:101AD0000E94365E882309F465C046EC52E062E05D
:101AE00070E07E01ABECEA1AACEFFA0A9E012957CE
:101AF0003A4FC7010E94AA8FA70161E070E08E01F2
:101B00000B5F1D4F9E0124593A4FC8010E94498F17
:101B100044EC52E062E070E09E012F5A3A4FFE0121
:101B200031966F01CF010E94AA8F42EC52E062E031
:101B300070E09E01235D3A4FCE0108960E94AA8F65
:101B4000A60162E070E05801F7E0AF0EB11C9E0103
:101B500027513B4FC5010E94498FA80162E070E008
:101B60009E012B553B4FCE0183509C4F0E94E88E27
:101B7000CE0183509C4F0E94E37ECE0183509C4F48
:101B80000E94C68EC5010E94A48EC8010E94A48E28
:101B9000CE0108960E949F8EC6010E949F8EC701AB
:101BA0000E949F8E6FE074E084ED9CE00E94365EA0
:101BB000882309F464C040EC52E062E070E07E01EA
:101BC0002BECE21A2CEFF20A9E0129573A4FC7017B
:101BD0000E94AA8FA70161E070E08E010B5F1D4F8C
:101BE0009E0124593A4FC8010E94498F4EEB52E0A2
:101BF00062E070E09E012F5A3A4FCE0101966C01CF
:101C00000E94AA8F4CEB52E062E070E09E01235DDF
:101C10003A4FCE0108960E94AA8FA60162E070E0BA
:101C2000580197E0A90EB11C9E0127513B4FC501F9
:101C30000E94498FA80162E070E09E012B553B4F46
:101C4000CE0183509C4F0E94E88ECE0183509C4F62
:101C50000E94E37ECE0183509C4F0E94C68EC50138
:101C60000E94A48EC8010E94A48ECE0108960E94F4
:101C70009F8EC6010E949F8EC7010E949F8E62EDBB
:101C800073E084ED9CE00E94365E882309F465C011
:101C90004AEB52E062E070E07E01ABECEA1AACEF96
:101CA000FA0A9E0129573A4FC7010E94AA8FA7013D
:101CB00061E070E08E010B5F1D4F9E0124593A4F89
:101CC000C8010E94498F48EB52E062E070E09E013B
:101CD0002F5A3A4FFE0131966F01CF010E94AA8F11
:101CE00046EB52E062E070E09E01235D3A4FCE0188
:101CF00008960E94AA8FA60162E070E05801F7E002
:101D0000AF0EB11C9E0127513B4FC5010E94498F68
:101D1000A80162E070E09E012B553B4FCE0183503D
:101D20009C4F0E94E88ECE0183509C4F0E94E37E20
:101D3000CE0183509C4F0E94C68EC5010E94A48E86
:101D4000C8010E94A48ECE0108960E949F8EC601F3
:101D50000E949F8EC7010E949F8E66E174E084ED11
:101D60009CE00E94365E882309F464C044EB52E094
:101D700062E070E07E012BECE21A2CEFF20A9E0189
:101D800029573A4FC7010E94AA8FA70161E070E06E
:101D90008E010B5F1D4F9E0124593A4FC8010E94CE
:101DA000498F42EB52E062E070E09E012F5A3A4FB9
:101DB000CE0101966C010E94AA8F40EB52E062E0D6
:101DC00070E09E01235D3A4FCE0108960E94AA8FD3
:101DD000A60162E070E0580197E0A90EB11C9E01D7
:101DE00027513B4FC5010E94498FA80162E070E076
:101DF0009E012B553B4FCE0183509C4F0E94E88E95
:101E0000CE0183509C4F0E94E37ECE0183509C4FB5
:101E10000E94C68EC5010E94A48EC8010E94A48E95
:101E2000CE0108960E949F8EC6010E949F8EC70118
:101E30000E949F8E6CE174E084ED9CE00E94365E0F
:101E4000882309F465C04EEA52E062E070E07E014A
:101E5000ABECEA1AACEFFA0A9E0129573A4FC701D8
:101E60000E94AA8FA70161E070E08E010B5F1D4FF9
:101E70009E0124593A4FC8010E94498F4CEA52E012
:101E800062E070E09E012F5A3A4FFE0131966F01D9
:101E9000CF010E94AA8F4AEA52E062E070E09E0100
:101EA000235D3A4FCE0108960E94AA8FA60162E0F8
:101EB00070E05801F7E0AF0EB11C9E0127513B4F77
:101EC000C5010E94498FA80162E070E09E012B5578
:101ED0003B4FCE0183509C4F0E94E88ECE01835031
:101EE0009C4F0E94E37ECE0183509C4F0E94C68E81
:101EF000C5010E94A48EC8010E94A48ECE0108963E
:101F00000E949F8EC6010E949F8EC7010E949F8ED5
:101F100064E274E084ED9CE00E94365E882309F45C
:101F200064C048EA52E062E070E07E012BECE21A05
:101F30002CEFF20A9E0129573A4FC7010E94AA8F3F
:101F4000A70161E070E08E010B5F1D4F9E012459D7
:101F50003A4FC8010E94498F46EA52E062E070E0C1
:101F60009E012F5A3A4FCE0101966C010E94AA8F12
:101F700044EA52E062E070E09E01235D3A4FCE01F8
:101F800008960E94AA8FA60162E070E0580197E0CF
:101F9000A90EB11C9E0127513B4FC5010E94498FDC
:101FA000A80162E070E09E012B553B4FCE018350AB
:101FB0009C4F0E94E88ECE0183509C4F0E94E37E8E
:101FC000CE0183509C4F0E94C68EC5010E94A48EF4
:101FD000C8010E94A48ECE0108960E949F8EC60161
:101FE0000E949F8EC7010E949F8E6AE274E084ED7A
:101FF0009CE00E94365E882309F465C042EA52E004
:1020000062E070E07E01ABECEA1AACEFFA0A9E01E6
:1020100029573A4FC7010E94AA8FA70161E070E0DB
:102020008E010B5F1D4F9E0124593A4FC8010E943B
:10203000498F40EA52E062E070E09E012F5A3A4F29
:10204000FE0131966F01CF010E94AA8F4EE952E046
:1020500062E070E09E01235D3A4FCE0108960E9437
:10206000AA8FA60162E070E05801F7E0AF0EB11C44
:102070009E0127513B4FC5010E94498FA80162E094
:1020800070E09E012B553B4FCE0183509C4F0E9428
:10209000E88ECE0183509C4F0E94E37ECE01835098
:1020A0009C4F0E94C68EC5010E94A48EC8010E944A
:1020B000A48ECE0108960E949F8EC6010E949F8E1C
:1020C000C7010E949F8E61E374E084ED9CE00E9452
:1020D000365E882309F464C04CE952E062E070E0A7
:1020E0007E012BECE21A2CEFF20A9E0129573A4F9F
:1020F000C7010E94AA8FA70161E070E08E010B5F0B
:102100001D4F9E0124593A4FC8010E94498F4AE948
:1021100052E062E070E09E012F5A3A4FCE010196E4
:102120006C010E94AA8F48E952E062E070E09E01D3
:10213000235D3A4FCE0108960E94AA8FA60162E065
:1021400070E0580197E0A90EB11C9E0127513B4F4A
:10215000C5010E94498FA80162E070E09E012B55E5
:102160003B4FCE0183509C4F0E94E88ECE0183509E
:102170009C4F0E94E37ECE0183509C4F0E94C68EEE
:10218000C5010E94A48EC8010E94A48ECE010896AB
:102190000E949F8EC6010E949F8EC7010E949F8E43
:1021A00069E374E084ED9CE00E94365E882309F4C4
:1021B00065C046E952E062E070E07E01ABECEA1AED
:1021C000ACEFFA0A9E0129573A4FC7010E94AA8F25
:1021D000A70161E070E08E010B5F1D4F9E01245945
:1021E0003A4FC8010E94498F44E952E062E070E032
:1021F0009E012F5A3A4FFE0131966F01CF010E9486
:10220000AA8F42E952E062E070E09E01235D3A4FFE
:10221000CE0108960E94AA8FA60162E070E05801E4
:10222000F7E0AF0EB11C9E0127513B4FC5010E9444
:10223000498FA80162E070E09E012B553B4FCE0113
:1022400083509C4F0E94E88ECE0183509C4F0E9489
:10225000E37ECE0183509C4F0E94C68EC5010E9432
:10226000A48EC8010E94A48ECE0108960E949F8E63
:10227000C6010E949F8EC7010E949F8E60E474E099
:1022800084ED9CE00E94365E882309F464C040E936
:1022900052E062E070E07E012BECE21A2CEFF20AD1
:1022A0009E0129573A4FC7010E94AA8FA70161E0FA
:1022B00070E08E010B5F1D4F9E0124593A4FC801FB
:1022C0000E94498F4EE852E062E070E09E012F5A72
:1022D0003A4FCE0101966C010E94AA8F4CE852E061
:1022E00062E070E09E01235D3A4FCE0108960E94A5
:1022F000AA8FA60162E070E0580197E0A90EB11C18
:102300009E0127513B4FC5010E94498FA80162E001
:1023100070E09E012B553B4FCE0183509C4F0E9495
:10232000E88ECE0183509C4F0E94E37ECE01835005
:102330009C4F0E94C68EC5010E94A48EC8010E94B7
:10234000A48ECE0108960E949F8EC6010E949F8E89
:10235000C7010E949F8E67E474E084ED9CE00E94B8
:10236000365E882309F465C04AE852E062E070E016
:102370007E01ABECEA1AACEFFA0A9E0129573A4FFC
:10238000C7010E94AA8FA70161E070E08E010B5F78
:102390001D4F9E0124593A4FC8010E94498F48E8B9
:1023A00052E062E070E09E012F5A3A4FFE013196F2
:1023B0006F01CF010E94AA8F46E852E062E070E010
:1023C0009E01235D3A4FCE0108960E94AA8FA60176
:1023D00062E070E05801F7E0AF0EB11C9E0127519A
:1023E0003B4FC5010E94498FA80162E070E09E0149
:1023F0002B553B4FCE0183509C4F0E94E88ECE015F
:1024000083509C4F0E94E37ECE0183509C4F0E94DC
:10241000C68EC5010E94A48EC8010E94A48ECE0162
:1024200008960E949F8EC6010E949F8EC7010E943F
:102430009F8E6FE474E084ED9CE00E94365E8823FA
:1024400009F453C044E852E062E070E08E010B5C96
:102450001C4F9E0124593A4FC8010E94AA8FA8011F
:1024600061E070E09E012F5A3A4FCE0101966C0157
:102470000E94498F42E852E062E070E07E019BEFEB
:10248000E91A9DEFF90A9E01235D3A4FC7010E94A8
:10249000AA8FA70161E070E09E0127513B4FCE015A
:1024A00008960E94498FA60162E070E09E012B55BC
:1024B0003B4FCE0183509C4F0E94E88ECE0183504B
:1024C0009C4F0E94E37ECE0183509C4F0E94C68E9B
:1024D000CE0108960E94A48EC6010E94A48EC70158
:1024E0000E949F8EC8010E949F8E65E574E084ED76
:1024F0009CE00E94365E882309F49AC040E852E0CE
:1025000062E070E09E0127523A4FDE0111966D01A4
:10251000CD010E94AA8F4EE752E062E070E09E017A
:102520002D523A4FCE0108960E94AA8F4CE752E0F6
:1025300062E070E09E0123533A4FCE010F960E9455
:10254000AA8F4AE752E062E070E09E012E553A4FB2
:10255000CE0146960E94AA8F48E752E062E070E002
:102560009E0129573A4FCE014D960E94AA8FA6018F
:1025700065E070E07E01BBECEB1ABCEFFB0A9E014C
:1025800024593A4FC7010E94498F46E752E062E062
:1025900070E08E010B5F1D4F9E012F5A3A4FC8010C
:1025A0000E94AA8F44E752E062E070E05801E7E041
:1025B000AE0EB11C9E01235D3A4FC5010E94AA8F49
:1025C000A80162E070E04701F7E08F0E911C9E01C8
:1025D00027513B4FC4010E94498FA70162E070E080
:1025E0009E012B553B4FCE0183509C4F0E94E88E9D
:1025F000CE0183509C4F0E94E37ECE0183509C4FBE
:102600000E94C68EC4010E94A48EC7010E94A48E9F
:10261000C5010E949F8EC8010E949F8E015E1140DD
:1026200007501109C8010E949F8E0C151D05C1F7A6
:102630006EE574E084ED9CE00E94365E81110C949E
:102640006A3766E674E084ED9CE00E94365E811194
:102650000C946A376EE674E084ED9CE00E94365E6E
:1026600081110C946A3766E774E084ED9CE00E9467
:10267000365E81110C946A376EE774E084ED9CE05D
:102680000E94365E882309F476C046E652E062E096
:1026900070E08E010B5F1D4F9E012E553A4FC80111
:1026A0000E94AA8F44E652E062E070E0580127E001
:1026B000A20EB11C9E0129573A4FC5010E94AA8F54
:1026C000A80162E070E07E018BECE81A8CEFF80A5A
:1026D0009E0124593A4FC7010E94498F42E652E0B9
:1026E00062E070E09E012F5A3A4FDE0111966D01B3
:1026F000CD010E94AA8F40E652E062E070E09E01A8
:10270000235D3A4FCE0108960E94AA8FA60162E08F
:1027100070E04701B7E08B0E911C9E0127513B4FA3
:10272000C4010E94498FA70162E070E09E012B5511
:102730003B4FCE0183509C4F0E94E88ECE018350C8
:102740009C4F0E94E37ECE0183509C4F0E94C68E18
:10275000C4010E94A48EC7010E94A48ECE010896D7
:102760000E949F8EC6010E949F8EC5010E949F8E6F
:10277000C8010E949F8E66E874E084ED9CE00E9490
:10278000365E81110C9400386CE874E084ED9CE0B6
:102790000E94365E81110C94003865E974E084ED86
:1027A0009CE00E94365E81110C9400386DE974E063
:1027B00084ED9CE00E94365E811111C063EA74E0F2
:1027C00084ED9CE00E94365E811109C06CEA74E0E1
:1027D00084ED9CE00E94365E882309F4A5C048E59C
:1027E00052E062E070E09E0121523A4FDE01119604
:1027F0006D01CD010E94AA8F46E552E062E070E0D3
:102800009E0127523A4FCE0108960E94AA8F44E5B6
:1028100052E062E070E09E012D523A4FCE010F96D9
:102820000E94AA8F42E552E062E070E09E012353CD
:102830003A4FCE0146960E94AA8F40E552E062E0F0
:1028400070E09E012E553A4FCE014D960E94AA8F00
:102850004EE452E062E070E09E0129573A4FCE010B
:1028600084960E94AA8FA60166E070E07E01BBEC10
:10287000EB1ABCEFFB0A9E0124593A4FC7010E9494
:10288000498F4CE452E062E070E08E010B5F1D4F17
:102890009E012F5A3A4FC8010E94AA8F4AE452E083
:1028A00062E070E05801E7E0AE0EB11C9E01235DCE
:1028B0003A4FC5010E94AA8FA80162E070E047016B
:1028C000F7E08F0E911C9E0127513B4FC4010E94DF
:1028D000498FA70162E070E09E012B553B4FCE016E
:1028E00083509C4F0E94E88ECE0183509C4F0E94E3
:1028F000E37ECE0183509C4F0E94C68EC4010E948D
:10290000A48EC7010E94A48EC5010E949F8EC8019B
:102910000E949F8E0A5D114007501109C8010E9454
:102920009F8E0C151D05C1F764EB74E084ED9CE0EF
:102930000E94365E882309F473C048E452E062E0E6
:1029400070E07E01EBECEE1AECEFFE0A9E012E55D4
:102950003A4FC7010E94AA8FA70161E070E08E0183
:102960000B5F1D4F9E0129573A4FC8010E94498FA6
:1029700046E452E062E070E09E0124593A4FCE01F5
:1029800001966C010E94AA8F44E452E062E070E07C
:102990009E012F5A3A4FCE0108960E94AA8F42E418
:1029A00052E062E070E09E01235D3A4FCE010F9647
:1029B0000E94AA8FA60163E070E0580197E0A90E7B
:1029C000B11C9E0127513B4FC5010E94498FA801B0
:1029D00062E070E09E012B553B4FCE0183509C4F2F
:1029E0000E94E88ECE0183509C4F0E94E37ECE0170
:1029F00083509C4F0E94C68EC5010E94A48EC801C0
:102A00000E94A48ECE010F960E949F8ECE01089642
:102A10000E949F8EC6010E949F8EC7010E949F8EBA
:102A20002091D4073091D50780915C08211531059C
:102A300011F48F5F01C0815080935C0828393140C8
:102A400009F06DC065E677E084ED9CE00E94365E9B
:102A5000882309F464C08091C30C9091C40CBC011C
:102A6000615071096817790720F48FEB9CE00E9490
:102A7000F6421092EE08CE018B5C9C4F0E94238E92
:102A80006DEB74E0CE018B5F9D4F0E944C606FEE4A
:102A90007BE0CE018B5F9D4F0E94F85E65EC74E099
:102AA0000E94E15EBE016B5C7C4F0E94F85E41E0DB
:102AB000BC01CE0101960E946358CE0101960E948E
:102AC0007159CE018B5F9D4F0E94E05FCE018B5C00
:102AD0009C4F0E94E05F64EA7CE0CE0101960E9478
:102AE000EB8FCE0101960E940C8D84EA9CE00E943F
:102AF00009418CE89CE00E94864E6091C60C709162
:102B0000C70CCE0101960E944460CE0101960E943E
:102B1000A866CE0101960E94E05F0E947267009154
:102B2000D4071091D5070115110569F00839B1E0F6
:102B30001B0709F079C065E677E084ED9CE00E9410
:102B4000365E811171C06091CD0C7091CE0CDB01AD
:102B500014962D913C9115971B964D915C911C9765
:102B60000D90BC91A02DED91FC911197F08087E024
:102B7000E82EE29EF001E39EF00D11243797EA0F54
:102B8000FB1F808191810480F581E02DE80FF91F02
:102B90003197D080E091D10CF091D20CEE9EC00123
:102BA000EF9E900D11240797860F971FFC01A080C0
:102BB000B18064817581E69EC001E79E900D11246D
:102BC00007978A0D9B1DFC0160817181848195812D
:102BD000860F971F0197FC018081F501608171814B
:102BE000FB01908160915D0861110C94A6384091C1
:102BF0005C084F1510F00C94663880935C0881E0F7
:102C000080935D0860915D08FD01379740E050E0DA
:102C100033274217530714F40C94713860915D0800
:102C200080915C080E945C596AEF70E080E090E05F
:102C30000E94598A8091D4079091D50783369105D7
:102C400039F08F3F910509F05AC20FEF1FEF02C014
:102C500001E010E06AED73E084ED9CE00E94365ED6
:102C6000882359F080915D08882321F080915C08C9
:102C7000813019F4C8010E94E64863EE73E084EDE8
:102C80009CE00E94365E882319F0C8010E94FB7206
:102C900067EE73E084ED9CE00E94365E882359F075
:102CA00080915C08811107C080915D08811103C08B
:102CB000C8010E944C6562EF73E084ED9CE00E94C5
:102CC000365E882359F080915C08883039F4809111
:102CD0005D08811103C0C8010E94A67266E174E01C
:102CE00084ED9CE00E94365E8823D9F180915C08D7
:102CF0008130B9F580915D08811133C080918C0BD2
:102D000090918D0B800F911F1816190614F081E019
:102D100090E090938D0B80938C0B8CE89CE00E944C
:102D2000864E80918C0B90918D0B0A9724F480E055
:102D300090E00E94725B80918C0B90918D0B0E94B1
:102D4000725B8BE392E00E943B5961E080E00E945D
:102D50005C598AE292E00E943B5960E081E00E9467
:102D60005C596CE174E084ED9CE00E94365E88233F
:102D700059F080915C08823039F480915D088111AE
:102D800003C0C8010E947F6B64E274E084ED9CE0A4
:102D90000E94365E882359F080915C08823039F4B5
:102DA00080915D08811103C0C8010E94346B6AE202
:102DB00074E084ED9CE00E94365E882359F0809197
:102DC0005C088C3039F480915D08811103C0C80122
:102DD0000E94826961E374E084ED9CE00E94365EAB
:102DE000882359F080915C08811107C080915D08AB
:102DF000811103C0C8010E94B54669E374E084ED07
:102E00009CE00E94365E882359F080915C08811115
:102E100007C080915D08811103C0C8010E9405466A
:102E200060E474E084ED9CE00E94365E882359F0F3
:102E300080915C08823039F480915D08811103C073
:102E4000C8010E94D84567E474E084ED9CE00E94CC
:102E5000365E882359F080915C08813039F4809186
:102E60005D08811103C0C8010E946D456FE474E0E4
:102E700084ED9CE00E94365E8823D1F080915C084E
:102E8000811116C080915D08811112C08091ED08FA
:102E900061E090E00E94968568EE73E080E090E04B
:102EA0000E94598A8091ED0860E090E00E9496852A
:102EB00065E574E084ED9CE00E94365E882391F025
:102EC00080915C08982F977F51F0833041F08530D6
:102ED00031F08D3039F480915D08811103C0C80153
:102EE0000E9457536EE574E084ED9CE00E94365ECC
:102EF000811118C066E674E084ED9CE00E94365EA5
:102F0000811110C06EE674E084ED9CE00E94365E94
:102F1000811108C066E774E084ED9CE00E94365E93
:102F2000882391F080915C08813011F40C94083969
:102F3000863011F40C9408398B3011F40C94083954
:102F40008E3011F40C9403396EE774E084ED9CE04C
:102F50000E94365E882369F080915C08853031F0EC
:102F60008D3039F480915D08811103C0C8010E9441
:102F7000E24469EF73E084ED9CE00E94365E8823B2
:102F800079F080915C08833041F0883031F08F30E7
:102F900039F480915D08811103C0C8010E94FB6D66
:102FA00061E074E084ED9CE00E94365E882399F035
:102FB00080915C08833031F0893069F480915D083C
:102FC000811109C0B801012E000C880B990B0E94D9
:102FD000B49F0E94497069E074E084ED9CE00E9417
:102FE000365E882359F080915C088F3039F48091E7
:102FF0005D08811103C0C8010E949B716FE074E0FD
:1030000084ED9CE00E94365E882359F080915C0834
:103010008F3039F480915D08811103C0C8010E948E
:10302000F5716DE974E084ED9CE00E94365EF82E47
:10303000811111C063EA74E084ED9CE00E94365E69
:10304000811109C06CEA74E084ED9CE00E94365E58
:10305000882309F443C080915D0881113FC0FF209F
:1030600079F067EC74E0CE0101960E944C60B801E3
:10307000CE0101960E944C63CE0101960E94E05F52
:1030800063EA74E084ED9CE00E94365E882379F068
:1030900068EA74E0CE0101960E944C60B801CE014E
:1030A00001960E944C63CE0101960E94E05F6CEA9B
:1030B00074E084ED9CE00E94365E882379F06BEC2E
:1030C00074E0CE0101960E944C60B801CE010196D9
:1030D0000E944C63CE0101960E94E05F65E677E0B6
:1030E00084ED9CE00E94365E882319F0C8010E949E
:1030F000E68D6AEF70E080E090E00E94598A80914E
:10310000D4079091D5078F37924011F00C94673A0D
:1031100065E677E084ED9CE00E94365E882309F442
:10312000B7C58CE89CE00E94864E8091EE08009125
:10313000C60C1091C70CF6E08F9F000D111D1124D5
:10314000CE018B5C9C4F0E94238E6DEB74E0CE0110
:103150008B5F9D4F0E944C606FEE7BE0CE018B5FDA
:103160009D4F0E94F85E65EC74E00E94E15EBE0136
:103170006B5C7C4F0E94F85E65EC74E00E94E15E3F
:10318000B8010E94F85E41E0BC01CE0101960E94A8
:103190006358CE0101960E947159CE018B5F9D4FFD
:1031A0000E94E05FCE018B5C9C4F0E94E05F8091AB
:1031B000EE084091C60C5091C70C26E0829F400D4E
:1031C000511D11246091C30C7091C40C6F5F7F4F2F
:1031D0008FEB9CE00E944E4364EA7CE0CE010196B6
:1031E0000E94EB8FCE0101960E940C8D84EA9CE038
:1031F0000E9409418091CA0C9091CB0C892BC9F097
:103200001092EE0884EA9CE00E9409416091C60C8D
:103210007091C70CCE0101960E944460CE010196C8
:103220000E94A866CE0101960E94E05F0E9472672C
:1032300029C58091C30C9091C40C26E0289FB00151
:10324000299F700D1124665071098091BF0C9091D7
:10325000C00C680F791F84ED9CE00E94925F0E9471
:1032600027590E9431596AED73E084ED9CE00E9479
:10327000365E882359F00E94F26080E090E00E9460
:10328000E64881E080935C0810925D0863EE73E08D
:1032900084ED9CE00E94365E8823D9F060E070E007
:1032A00086EC9CE00E94464360E070E08FEB9CE07F
:1032B0000E9446431092DA0C81E08093ED088093DF
:1032C000DB0C1092EE0810925D0810925C080E94D0
:1032D0004C8367EE73E084ED9CE00E94365E8823A9
:1032E00021F080E090E00E944C656CEE73E084ED8C
:1032F0009CE00E94365E882391F08CE89CE00E945E
:10330000864E8AE592E00E943B5961E080E00E948F
:103310005C598AE492E00E943B590E94315962EF65
:1033200073E084ED9CE00E94365E882321F080E00B
:1033300090E00E94A67262ED73E084ED9CE00E9432
:10334000365E882341F01092DD081092DE0810925C
:10335000DF081092E00866E174E084ED9CE00E94D2
:10336000365E882309F490C081E080935C08109257
:103370005D088AE893E09A838983C15DDE4F1982F4
:103380001882CF52D140CE0101960E94337660ED73
:1033900074E00E94E84290938D0B80938C0B65E65D
:1033A00077E0CE018B5F9D4F0E944C6060918C0B4B
:1033B00070918D0B4AE0CE016A307105DCF4875FB5
:1033C000994F0E94E55F6CE477E0CE018D5F994FE5
:1033D0000E944C60BE01675F794FCE018D5F994FAF
:1033E0000E94F85EBC01CE018B5C9C4F0E94446041
:1033F00011E005C08B5C9C4F0E94E55F10E0BE01B0
:103400006B5C7C4FCE018B5F9D4F0E94A75FCE010E
:103410008B5C9C4F0E94E05F112351F0CE018D5FC9
:10342000994F0E94E05FCE01875F994F0E94E05F55
:10343000BE016B5F7D4FCE018B5C9C4F0E94446050
:103440006DE674E0CE018B5C9C4F0E94555EBC0122
:103450008CE89CE00E943091CE018B5C9C4F0E94D6
:10346000E05F61E080E00E945C598CE594E00E949E
:103470003B5960915D0880915C080E945C59CE01C7
:103480008B5F9D4F0E94E05F6CE174E084ED9CE0F7
:103490000E94365E882361F08091DB089091DC0801
:1034A00090938D0B80938C0B80E090E00E947F6B5B
:1034B00064E274E084ED9CE00E94365E882359F05B
:1034C0008091D60790E090938D0B80938C0B80E0D9
:1034D00090E00E94346B6AE274E084ED9CE00E940C
:1034E000365E882321F080E090E00E94826961E3EB
:1034F00074E084ED9CE00E94365E882359F0809150
:10350000DC0790E090938D0B80938C0B80E090E033
:103510000E94B54669E374E084ED9CE00E94365E4B
:10352000882391F06091D8077091D9078091DA07CC
:103530009091DB070E947B9870938D0B60938C0BAE
:1035400080E090E00E94054660E474E084ED9CE039
:103550000E94365E882359F08091D70790E09093BF
:103560008D0B80938C0B80E090E00E94D84567E43F
:1035700074E084ED9CE00E94365E882359F08091CF
:10358000DD0790E090938D0B80938C0B80E090E0B2
:103590000E946D456EE774E084ED9CE00E94365E0B
:1035A000882321F180910E0D90910F0DA091100DA7
:1035B000B091110D8093DD089093DE08A093DF0891
:1035C000B093E0088091120D9091130DA091140D0D
:1035D000B091150D8093E1089093E208A093E30861
:1035E000B093E40880E090E00E94E2446FE474E06D
:1035F00084ED9CE00E94365E882359F160E08CE8FF
:103600009CE00E947F4E8EE494E00E943B594AE089
:103610006091ED08CE0101960E941060BE016F5FBF
:103620007F4F8CE89CE00E943091CE0101960E9471
:10363000E05F61E080E00E945C598DE394E00E94CD
:103640003B5910925C0810925D0860E080E00E9497
:103650005C5965E574E084ED9CE00E94365E882349
:1036600009F406C182EA93E09A838983C955DF4F42
:1036700019821882C75AD04040915B0850E060918F
:103680005A0870E0CE0101960E9403668C0167ED36
:1036900074E00E94DD427C016DED74E0C8010E947F
:1036A000DD428C0160E070E0C7010E9438439093D6
:1036B0008D0B80938C0B61E070E0C7010E94384352
:1036C00090938F0B80938E0B62E070E0C7010E9495
:1036D00038439093910B8093900B60E070E0C801A9
:1036E0000E9438439093930B8093920B61E070E0BB
:1036F000C8010E9438439093950B8093940B62E02D
:1037000070E0C8010E9438439093970B8093960B0A
:103710008091900B9091910B892B19F067E374E0E5
:1037200002C06AE374E0CE018B5C9C4F0E943C6057
:103730008091900B9091910B892B19F06AE174E0C4
:1037400002C06DE174E0CE018B5F9D4F0E943C6032
:103750006091940B7091950B4AE0CE018F5A9A4F6D
:103760000E94E55F6091920B7091930B4AE0CE014D
:10377000835D9A4F0E94E55F60918E0B70918F0B75
:103780004AE0CE0187519B4F0E94E55F60918C0B10
:1037900070918D0B4AE0CE0183509C4F0E94E55FF3
:1037A000BE0163507C4FCE018B559B4F0E944460FD
:1037B00065E374E0CE018B559B4F0E94555EBE01C0
:1037C00067517B4F0E94F85EBE016B5C7C4F0E948C
:1037D000F85E63E374E00E94555EBE01635D7A4F5C
:1037E0000E94F85E61E374E00E94555EBE016F5A6C
:1037F0007A4F0E94F85EBE016B5F7D4F0E94F85EBB
:10380000BC018CE89CE00E943091CE018B559B4F0F
:103810000E94E05FCE0183509C4F0E94E05FCE018A
:1038200087519B4F0E94E05FCE01835D9A4F0E94BB
:10383000E05FCE018F5A9A4F0E94E05F61E080E026
:103840000E945C5980E294E00E943B5983E080939F
:103850005C0810925D0860E00E945C59CE018B5FAD
:103860009D4F0E94E05FCE018B5C9C4F0E94E05F09
:103870006EE574E084ED9CE00E94365E811119C013
:1038800066E674E084ED9CE00E94365E811111C012
:103890006EE674E084ED9CE00E94365E811109C002
:1038A00066E774E084ED9CE00E94365E882309F4AC
:1038B00051C165E677E0CE018B559B4F0E944C606D
:1038C00065E677E0CE0183509C4F0E944C6065E630
:1038D00077E0CE018B5C9C4F0E944C6065E677E000
:1038E000CE018B5F9D4F0E944C6080EB93E09A83EA
:1038F0008983CD5FDD4F19821882C350D2408091F9
:103900005B08811103C081E080935B0840915B08F4
:1039100050E060915A0870E0CE0101960E94036663
:1039200061EE74E00E94DD428C0160E070E00E9474
:103930002D4360E070E00E94384390938D0B80939C
:103940008C0B60E070E0C8010E942D4361E070E0E4
:103950000E94384390938F0B80938E0B80915C086C
:10396000813011F40C940D3980918C0B90918D0B5A
:103970008D30910514F40C942F39BC016C507109F1
:103980004AE0469714F00C942739CE0183509A4FA1
:103990000E94E55F6CE477E0CE0189509A4F0E9467
:1039A0004C60BE0163507A4FCE0189509A4F0E94FD
:1039B000F85EBC01CE0187519B4F0E94446011E02C
:1039C000BE0167517B4FCE018B559B4F0E94A75F75
:1039D000CE0187519B4F0E94E05F112351F0CE0131
:1039E00089509A4F0E94E05FCE0183509A4F0E9407
:1039F000E05F80915C08863011F40C9486398091E8
:103A00008E0B90918F0B8D30910514F40C94A83986
:103A1000BC016C5071094AE0469714F00C94A0392F
:103A2000CE018B519A4F0E94E55F6CE477E0CE01A6
:103A300081529A4F0E944C60BE016B517A4FCE0169
:103A400081529A4F0E94F85EBC01CE0187519B4F74
:103A50000E94446011E0BE0167517B4FCE0183504C
:103A60009C4F0E94A75FCE0187519B4F0E94E05F51
:103A7000112351F0CE0181529A4F0E94E05FCE0196
:103A80008B519A4F0E94E05F80918C0B90918D0B2F
:103A90000C9714F00C94FF396DEB73E0CE018B5C46
:103AA0009C4F0E947D5F80918E0B90918F0B0C97A5
:103AB00014F00C94033A6DEB73E0CE018B5F9D4FD5
:103AC0000E947D5FBE016B557B4F8CE89CE00E949D
:103AD0003091BE016B5C7C4F8CE89CE00E94309181
:103AE00088E194E00E943B59BE0163507C4F8CE812
:103AF0009CE00E943091BE016B5F7D4F8CE89CE0A2
:103B00000E94309181E194E00E943B5961E080E0A5
:103B10000E945C5980E094E00E943B5986E08093CB
:103B20005C0810925D0860E00E945C59CE018B5FDA
:103B30009D4F0E94E05FCE018B5C9C4F0E94E05F36
:103B4000CE0183509C4F0E94E05FCE018B559B4F6E
:103B50000E94E05F69EF73E084ED9CE00E94365EB6
:103B6000882321F080E090E00E94FB6D61E074E02A
:103B700084ED9CE00E94365E882329F060E070E0CE
:103B8000CB010E9449706FE074E084ED9CE00E94DC
:103B9000365E8823A1F08091E0079091E107A09123
:103BA000E207B091E3078093DD089093DE08A093CD
:103BB000DF08B093E00880E090E00E94F57169E0D2
:103BC00074E084ED9CE00E94365E882361F0809171
:103BD000DE079091DF0790938D0B80938C0B80E034
:103BE00090E00E949B716DE974E084ED9CE00E947E
:103BF000365E882381F067EC74E0CE0101960E9466
:103C00004C6060E070E0CE0101960E944C63CE01F2
:103C100001960E94E05F66E874E084ED9CE00E94FB
:103C2000365E882379F068EA74E0CE0101960E943E
:103C30004C6064E0CE0101960E94C362CE01019601
:103C40000E94E05F64EB74E084ED9CE00E94365ECD
:103C50008823C1F08CE89CE00E94864E8BE792E0BE
:103C60000E943B5961E080E00E945C598AE692E044
:103C70000E943B5910925D0810925C0860E080E061
:103C80000E945C596EE571E080E090E00E94598AE4
:103C90006AED73E084ED9CE00E94365E882309F4AF
:103CA000F2C080915C088D3009F0C9C080915D0838
:103CB000813009F0C4C00091960B8091940B88313B
:103CC000F0F40C33E0F41AE0612F0E945C97692F46
:103CD00040E1849F600D112482E00E941897802F9C
:103CE000612F0E945C97692FA0E18A9F600D1124CB
:103CF00081E00E94189760E080E00E941897209170
:103D00008C0B30918D0B90918E0BF090900B8FEF70
:103D10008F0D8F3178F59C3068F5205D3740283E57
:103D2000B3E03B0738F511E0190F0AE0822F602F4E
:103D30000E945C97692FE0E18E9F600D112486E060
:103D40000E941897812F602F0E945C97692FF0E1E5
:103D50008F9F600D112485E00E9418978F2D602F92
:103D60000E945C97692F20E1829F600D112484E0FE
:103D70000E9418972091900B3091910BB22FA09137
:103D80008E0B80918C0B90918D0BFC01EF2FFF27F8
:103D9000E695E695E69560ED77E0E69FA001E79F62
:103DA000500DF69F500D1124841B950B803941E076
:103DB000940718F080599140F9CF8436910569F045
:103DC000883C910551F08C32E1E09E0731F0E1E052
:103DD000AC0143705527452B09F0E0E04FEF420F4F
:103DE0004F3128F546E08436910520F0845691093C
:103DF0004250F9CF480F9695879596958795942FC1
:103E0000980F4A2F50E0EE2311F40C94563AA33049
:103E100010F00C94213A91500C94213AB901772773
:103E20004DE150E04617570714F00C943B3A8FEFE2
:103E3000830D873020F4632D83E00E9418978091D2
:103E40005C08863031F08D30F1F480915D0881306E
:103E5000D1F465E677E085EF9BE00E947D5F65E643
:103E600077E08BEF9BE00E947D5F65E677E081E085
:103E70009CE00E947D5F65E677E087E09CE00E9421
:103E80007D5F0E94D96863EE73E084ED9CE00E9440
:103E9000365E882309F413C780915C088B3009F0E3
:103EA0000EC780915D08813009F009C765E677E0AB
:103EB000CE0183539A4F0E944C6003E11CE0BE0187
:103EC00063537A4FCE0101960E944460B801CE013F
:103ED00001960E94F85EBC01CE0183539A4F0E9466
:103EE000925FCE0101960E94E05F0A5F1F4FFCE0E7
:103EF0000D361F0721F765E677E0CE0183539A4F11
:103F00000E94365E882309F18CE89CE00E94864E70
:103F100080EF93E00E943B5961E080E00E945C5991
:103F200085EE93E00E943B5968EB7BE080E090E0F7
:103F30000E94598A8CE89CE00E94864E61E080E0F5
:103F40000E945C5984ED93E042C06DEB74E0CE01B9
:103F500001960E944C60BE0163537A4FCE010196D8
:103F60000E94F85E69E77FE3DC018D919C910E94DD
:103F70006F58182FCE0101960E94E05F112381F146
:103F80008CE89CE00E94864E88EC93E00E943B59AE
:103F900061E080E00E945C5989EB93E00E943B590C
:103FA00068EB7BE080E090E00E94598A8CE89CE01E
:103FB0000E94864EBE0163537A4F8CE89CE00E94BB
:103FC000309161E080E00E945C5988EA93E00E94B1
:103FD0003B5910925D0810925C080E9431596AC6E4
:103FE000CE018E559A4F0E941B41CE0189579A4FA0
:103FF0000E941B4170E9672E73E0772EC751DB4F9B
:1040000079826882C95ED440C55DDA4F1982188210
:10401000CB52D540CE0187519B4F0E947E768C01BA
:104020009A83898387EE94E09C838B836FEE7BE099
:10403000CE0101960E941C82C8010E94C03D8CE8FE
:104040009CE00E94864E8EE892E00E943B596DEB08
:1040500074E0CE0101960E944C606FEE7BE0CE01D1
:1040600001960E94F85E0E94AB82CE0101960E94EA
:10407000E05F6DEB74E0CE0101960E944C606FEE44
:104080007BE0CE0101960E94F85E6CEE74E00E9427
:10409000E15E0E94AB82CE0101960E94E05F6DEB73
:1040A00074E0CE0101960E944C606FEE7BE0CE0181
:1040B00001960E94F85E61EF74E00E94E15E0E944A
:1040C000AB82CE0101960E94E05F6DEB74E0CE0101
:1040D00001960E944C606FEE7BE0CE0101960E943B
:1040E000F85E6FEF74E00E94E15E0E94AB82CE0149
:1040F00001960E94E05F6DEB74E0CE0101960E9494
:104100004C606FEE7BE0CE0101960E94F85E6AE0A3
:1041100075E00E94E15E0E94AB82CE0101960E9492
:10412000E05F6DEB74E0CE0101960E944C606FEE93
:104130007BE0CE0101960E94F85E65E175E00E9489
:10414000E15E0E94AB82CE0101960E94E05F6DEBC2
:1041500074E0CE0101960E944C606FEE7BE0CE01D0
:1041600001960E94F85E60E275E00E94E15E0E94A6
:10417000AB82CE0101960E94E05F6DEB74E0CE0150
:1041800001960E944C606FEE7BE0CE0101960E948A
:10419000F85E6CE275E00E94E15E0E94AB82CE01A7
:1041A00001960E94E05F6DEB74E0CE0101960E94E3
:1041B0004C606FEE7BE0CE0101960E94F85E69E3F1
:1041C00075E00E94E15E0E94AB82CE0101960E94E2
:1041D000E05F6DEB74E0CE0101960E944C606FEEE3
:1041E0007BE0CE0101960E94F85E6FE375E00E94CD
:1041F000E15E0E94AB82CE0101960E94E05F6DEB12
:1042000074E0CE0101960E944C606FEE7BE0CE011F
:1042100001960E94F85E69E475E00E94E15E0E94EA
:10422000AB82CE0101960E94E05F6DEB74E0CE019F
:1042300001960E944C606FEE7BE0CE0101960E94D9
:10424000F85E64E575E00E94E15E0E94AB82CE01FB
:1042500001960E94E05F6DEB74E0CE0101960E9432
:104260004C606FEE7BE0CE0101960E94F85E61E645
:1042700075E00E94E15E0E94AB82CE0101960E9431
:10428000E05F6DEB74E0CE0101960E944C606FEE32
:104290007BE0CE0101960E94F85E6DE675E00E941B
:1042A000E15E0E94AB82CE0101960E94E05F6DEB61
:1042B00074E0CE0101960E944C606FEE7BE0CE016F
:1042C00001960E94F85E6AE775E00E94E15E0E9436
:1042D000AB82CE0101960E94E05F6DEB74E0CE01EF
:1042E00001960E944C606FEE7BE0CE0101960E9429
:1042F000F85E68E875E00E94E15E0E94AB82CE0144
:1043000001960E94E05F6DEB74E0CE0101960E9481
:104310004C606FEE7BE0CE0101960E94F85E66E98C
:1043200075E00E94E15E0E94AB82CE0101960E9480
:10433000E05F6DEB74E0CE0101960E944C606FEE81
:104340007BE0CE0101960E94F85E65EA75E00E946E
:10435000E15E0E94AB82CE0101960E94E05F6DEBB0
:1043600074E0CE0101960E944C606FEE7BE0CE01BE
:1043700001960E94F85E6CEA75E00E94E15E0E9480
:10438000AB82CE0101960E94E05F6DEB74E0CE013E
:1043900001960E944C606FEE7BE0CE0101960E9478
:1043A000F85E62EB75E00E94E15E0E94AB82CE0196
:1043B00001960E94E05F6DEB74E0CE0101960E94D1
:1043C0004C606FEE7BE0CE0101960E94F85E60ECDF
:1043D00075E00E94E15E0E94AB82CE0101960E94D0
:1043E000E05F6DEB74E0CE0101960E944C606FEED1
:1043F0007BE0CE0101960E94F85E6EEC75E00E94B3
:10440000E15E0E94AB82CE0101960E94E05F6DEBFF
:1044100074E0CE0101960E944C606FEE7BE0CE010D
:1044200001960E94F85E6CED75E00E94E15E0E94CC
:10443000AB82CE0101960E94E05F6DEB74E0CE018D
:1044400001960E944C606FEE7BE0CE0101960E94C7
:10445000F85E69EE75E00E94E15E0E94AB82CE01DB
:1044600001960E94E05F6DEB74E0CE0101960E9420
:104470004C606FEE7BE0CE0101960E94F85E67EF24
:1044800075E00E94E15E0E94AB82CE0101960E941F
:10449000E05F6DEB74E0CE0101960E944C606FEE20
:1044A0007BE0CE0101960E94F85E65E076E00E9416
:1044B000E15E0E94AB82CE0101960E94E05F8AE835
:1044C00093E09A838983C15DDE4F19821882CF52AF
:1044D000D140CE0101960E94C24A7C0184E196E05F
:1044E000A0E0AC016A2FC7010E945B828C01CB5F08
:1044F000DD4FF982E882C550D24080ED94E0C95F7B
:10450000DD4F99838883C750D2406CE070E0CE01C4
:104510008B5F9D4F0E94A244CB5FDD4FF982E88202
:10452000C550D2408CE196E0C95FDD4F9983888306
:10453000C750D24061E070E0CE018B5F9D4F0E947A
:10454000A244CB5FDD4FF982E882C550D24087E2BA
:1045500096E0C95FDD4F99838883C750D24060E001
:1045600070E0CE018B5F9D4F0E94A244CB5FDD4F78
:10457000F982E882C550D24083EC93E0C95FDD4FF9
:1045800099838883C750D24060E070E0CE018B5F92
:104590009D4F0E94A244CB5FDD4FF982E882C55057
:1045A000D2408EE296E0C95FDD4F99838883C75081
:1045B000D24040E050E060E070E4CE018B5F9D4F60
:1045C0000E943C62CB5FDD4FF982E882C550D24049
:1045D00085E396E0C95FDD4F99838883C750D24059
:1045E00063E070E0CE018B5F9D4F0E94A24446E6DF
:1045F00056E666EB70E4C8010E94646140E050E05A
:1046000060EC70E4C8010E94646161E080E00E9497
:104610005C5986E993E0CB5FDD4F99838883C55071
:10462000D240C55FDC4F19821882CB50D340CE01F7
:104630008B5F9D4F0E94C24A8C018BE396E0A0E005
:10464000AC016A2FC8010E945B826C01CB5CDC4F1D
:1046500019830883C553D34084E496E0C95CDC4FDA
:1046600099838883C753D34060E070E0CE018B5CB0
:104670009C4F0E94A244CB5CDC4F19830883C55336
:10468000D3408CE496E0C95CDC4F99838883C753A0
:10469000D34062E070E0CE018B5C9C4F0E94A2444C
:1046A000CB5CDC4F19830883C553D34084E596E087
:1046B000C95CDC4F99838883C753D34065E070E0C1
:1046C000CE018B5C9C4F0E94A244CB5CDC4F1983D3
:1046D0000883C553D3408BE596E0C95CDC4F9983D2
:1046E0008883C753D34040E050E060E87EE3CE01CA
:1046F0008B5C9C4F0E943C62CB5CDC4F198308832F
:10470000C553D34082E696E0C95CDC4F9983888329
:10471000C753D34060E070E0CE018B5C9C4F0E9499
:10472000A244CB5CDC4F19830883C553D3408DE68C
:1047300096E0C95CDC4F99838883C753D3406AE015
:1047400070E0CE018B5C9C4F0E94A2444AE959E97B
:1047500069E970E4C6010E94646140E050E060EBEA
:1047600070E4C6010E94646182EA93E0C350DC4FAA
:1047700099838883CD5FD340CD55DB4F1982188252
:10478000C35AD440CE0183509C4F0E94C24A5C0160
:1047900085E796E0A0E0AC016A2FC5010E945B822C
:1047A0004C018BE796E0A0E0AC016A2FC5010E94A6
:1047B0005B826C0161E070E0C4010E943D6161E0D8
:1047C00070E0C4010E943D6161E070E0C4010E949C
:1047D0003D6161E070E0C4010E943D6161E070E014
:1047E000C6010E943D6161E070E0C6010E943D612A
:1047F00061E070E0C6010E943D6161E070E0C601C9
:104800000E943D61CB55DB4F79826882C55AD44006
:10481000C951DB4F19821882C75ED440CE018B5537
:104820009B4F0E94C24A4C0184E896E0A0E0AC0194
:104830006A2FC4010E945B826C0164EF71E00E94E8
:104840003D616CEB72E0C6010E943D618CE993E032
:10485000CB5CDC4F99838883C553D340C550DC4F74
:1048600019821882CB5FD340CE018B5C9C4F0E9493
:10487000C24A6C01C35DDA4F99838883CD52D5401B
:1048800087E896E0C15DDA4F99838883CF52D5409F
:1048900064E670E0CE01835D9A4F0E94A244C35D3E
:1048A000DA4FD982C882CD52D5408CEC93E0C15DFD
:1048B000DA4F99838883CF52D54063E070E0CE0110
:1048C000835D9A4F0E94A2448AE392E0C35DDA4F6F
:1048D00099838883CD52D540C15BDA4F1982188203
:1048E000CF54D540CE01835D9A4F0E94C24A3C010D
:1048F000CF5ADA4F99838883C155D54080EC93E035
:10490000CD5ADA4F99838883C355D54040E050E0B3
:10491000BA01CE018F5A9A4F0E943C6233243394DD
:10492000E3E94E2EE6E05E2ECF5ADA4FD982C882F6
:10493000C155D540CD5ADA4F59824882C355D5402A
:10494000632DCE018F5A9A4F0E9491626DEB74E0F5
:10495000CE0184599A4F0E944C606FEE7BE0CE01ED
:1049600084599A4F0E94F85E66E976E00E94E15E03
:10497000632D0E94B25EBC01CE018F5A9A4F0E94F5
:104980004460A301632DCE018F5A9A4F0E94B282D8
:10499000CE018F5A9A4F0E94E05FCE0184599A4F00
:1049A0000E94E05F8CE892E00E943B598FEE9AE013
:1049B0000E94D5523394BBE03B12B6CF6DEB74E04E
:1049C000CE018F5A9A4F0E944C606FEE7BE0CE0171
:1049D0008F5A9A4F0E94F85E64EA76E00E94E15E88
:1049E0000E94AB82CE018F5A9A4F0E94E05F5524FD
:1049F00053946DEB74E0CE018F5A9A4F0E944C6035
:104A00006FEE7BE0CE018F5A9A4F0E94F85E6CEAFF
:104A100076E00E94E15E652D0E94B25E0E94AB824C
:104A2000CE018F5A9A4F0E94E05F0E94608C3C0139
:104A30006DEB74E0CE0184599A4F0E944C606FEE8A
:104A40007BE0CE0184599A4F0E94F85E6CEA76E0D2
:104A50000E94E15E652D0E94B25E6BEB76E00E94E3
:104A6000E15EBC01CE018F5A9A4F0E944460B301AF
:104A7000CE018F5A9A4F0E945E85CE018F5A9A4F6F
:104A80000E94E05FCE0184599A4F0E94E05F5394E8
:104A9000E5E05E12AECF772473946DEB74E0CE0147
:104AA00084599A4F0E944C606FEE7BE0CE0184598E
:104AB0009A4F0E94F85E66EC76E00E94E15E672DF8
:104AC0000E94B25E61EC76E00E94E15EBC01CE0124
:104AD0008F5A9A4F0E944460B401CE018F5A9A4F68
:104AE0000E945E85CE018F5A9A4F0E94E05FCE01F0
:104AF00084599A4F0E94E05F7394FDE07F12CDCFFE
:104B00006DEB74E0CE0184599A4F0E944C606FEEB9
:104B10007BE0CE0184599A4F0E94F85E65ED76E005
:104B20000E94E15EBC01CE018F5A9A4F0E94446000
:104B3000B701CE018F5A9A4F0E945E85CE018F5ADF
:104B40009A4F0E94E05FCE0184599A4F0E94E05F25
:104B50006DEB74E0CE0184599A4F0E944C606FEE69
:104B60007BE0CE0184599A4F0E94F85E6FED76E0AB
:104B70000E94E15EBC01CE018F5A9A4F0E944460B0
:104B8000B801CE018F5A9A4F0E945E85CE018F5A8E
:104B90009A4F0E94E05FCE0184599A4F0E94E05FD5
:104BA0006DEB74E0CE0184599A4F0E944C606FEE19
:104BB0007BE0CE0184599A4F0E94F85E6DEE76E05C
:104BC0000E94E15EBC01CE018F5A9A4F0E94446060
:104BD000B601CE018F5A9A4F0E945E85CE018F5A40
:104BE0009A4F0E94E05FCE0184599A4F0E94E05F85
:104BF0006DEB74E0CE0184599A4F0E944C606FEEC9
:104C00007BE0CE0184599A4F0E94F85E67EF76E010
:104C10000E94E15EBC01CE018F5A9A4F0E9444600F
:104C2000B501CE018F5A9A4F0E945E85CE018F5AF0
:104C30009A4F0E94E05FCE0184599A4F0E94E05F34
:104C40006BE872E084ED9CE00E94575F0E94545A2A
:104C50008CE89CE00E94864E6DEB74E0CE018F5A8A
:104C60009A4F0E944C606FEE7BE0CE018F5A9A4FB4
:104C70000E94F85E41E0BC01CE0184599A4F0E9427
:104C80006358CE018F5A9A4F0E94E05FBE0164596B
:104C90007A4FCE018F5A9A4F0E94EB8FCE018F5AD6
:104CA0009A4F0E940C8DCE0184599A4F0E9409415F
:104CB0000E948667CE0183539A4F0E94E05F67EEA1
:104CC00073E084ED9CE00E94365E882309F4DAC02C
:104CD00080915C08893009F0C9C080915D088130FD
:104CE00009F0C4C08091EE08E091C60CF091C70CA9
:104CF00026E0829FE00DF11D1124248135818091F1
:104D0000F30B9091F40B2817390739F580819181C5
:104D10006091EF0B7091F00B009719F06115710520
:104D2000B9F46115710551F0232B09F49DC0DB0125
:104D30008C9190E09195819591090CC0009709F4B0
:104D400093C0232B09F490C0FC01808190E002C045
:104D50000E94EF9A892B09F487C08CE89CE00E949E
:104D6000864E0E94545A8FE992E00E943B5900E41B
:104D700012E0CB5FDD4F19830883C550D240C85F76
:104D8000DD4F19821882C850D24080E091E0C65FA2
:104D9000DD4F99838883CA50D24041E062E077E0DA
:104DA000CE0101960E94066DCE0101960E947159B6
:104DB00064EA7CE0CE0101960E941791BE016F5F0C
:104DC0007F4FCE018B5F9D4F0E94BE747C01CE0150
:104DD00001960E94E05F8091EE086091C60C709190
:104DE000C70CF6E08F9F600D711D1124FA82E982D5
:104DF00087EE94E09C838B83CE0101960E941C82F7
:104E000084EA9CE00E940941C7010E94C03D1092C3
:104E1000DA0C1092EE0881E08093DB0C8093ED08B1
:104E200060E070E086EC9CE00E94464360E070E049
:104E30008FEB9CE00E9446430E94813ACB5FDD4F9E
:104E400019830883C550D240C85FDD4F888199819E
:104E5000C850D240009751F0DC010C9111961C9182
:104E60000E944D99C801F6CF0E94D96880915C08D4
:104E7000813031F0893031F480915D08813011F456
:104E80000E94D9686CEE73E084ED9CE00E94365E6F
:104E9000882309F481C180915C088B3009F070C1CE
:104EA00010915D08113009F06BC18CE89CE00E9404
:104EB000864E8EEB92E00E943B5961E080E00E94BA
:104EC0005C5980EB92E00E943B598AE893E0CB5F0B
:104ED000DD4F99838883C550D240CD5CDC4F198269
:104EE0001882C353D340CE018B5F9D4F0E9433760F
:104EF0007C011093080D9A8389838CE196E09C8352
:104F00008B8361E0CE0101960E9491621092C908E4
:104F1000FA82E98283EC93E09C838B8360E0CE018C
:104F200001960E9491621092090DFA82E98287E24D
:104F300096E09C838B8360E0CE0101960E94916293
:104F400061E0C7010E94E98482EA93E0CB5CDC4F18
:104F500099838883C553D340C552DC4F1982188288
:104F6000CB5DD340CE018B5C9C4F0E94EC747C01E6
:104F700010934D086BE776E00E94BF619A838983A6
:104F80001C821B8261E0CE0101960E947162109327
:104F90004E086BE776E0C7010E94BF619A83898360
:104FA00081E090E09C838B8361E0CE0101960E94BA
:104FB000716210934F086BE776E0C7010E94BF61F2
:104FC0009A83898382E090E09C838B8361E0CE01A9
:104FD00001960E947162109350086BE776E0C7015A
:104FE0000E94BF619A83898383E090E09C838B83D6
:104FF00061E0CE0101960E9471620E94145CC35070
:10500000DC4F2883CD5FD340C250DC4F3883CE5F66
:10501000D340C150DC4F4883CF5FD340C050DC4FFA
:105020005883C050D440CF5FDB4F6883C150D44019
:10503000CE5FDB4F7883C250D440CD5FDB4F888397
:10504000C350D440CC5FDB4F9883C450D4409150C0
:105050002DE4822E28E0922E35E5A32E38E0B32EE3
:1050600041E5242E48E0342ECC24C394D12C60EBAF
:10507000662E63E0762E092F10E07A826982CD5F7A
:10508000DD4F19821882C350D240F40141914F0183
:1050900050E0B601CE0101960E9403662C0161EE3C
:1050A00074E00E94BF61B8010E942D4360E070E08F
:1050B0000E94D761D5018D935D0161EE74E0C2015C
:1050C0000E94BF61B8010E942D4361E070E00E9420
:1050D000D761F10181931F01FFEFCF1ADF0A25E0AD
:1050E000C216D10451F6C7010E945E6680E993E0C2
:1050F0009A83898325961FAE1EAE25976091080D71
:10510000CE0101960E94DE758C0164E876E00E9473
:10511000BF6160E070E00E9438439093060D809379
:10512000050D64E876E0C8010E94BF6161E070E0AF
:105130000E9438439093040D8093030D0E94918A3E
:105140006093160D7093170D8093180D9093190DA1
:10515000609348087093490880934A0890934B08DD
:1051600060934008709341088093420890934308ED
:1051700060934408709345088093460890934708CD
:1051800080915C08813031F08B3031F480915D0882
:10519000813011F40E94D96862EF73E084ED9CE0E5
:1051A0000E94365E8823E1F180915C088D3061F5C4
:1051B00080915D08813041F58AE893E09A83898384
:1051C000C15DDE4F19821882CF52D140CE010196C7
:1051D0000E9433768C016091090DCB5FDD4F99837E
:1051E0008883C550D24087E296E0C95FDD4F99833E
:1051F0008883C750D240CE018B5F9D4F0E94916241
:1052000061E0C8010E94E98480915C08813031F03E
:105210008D3031F480915D08813011F40E94D9689D
:1052200062ED73E084ED9CE00E94365E882309F411
:105230004DC080915C088D30E9F580915D0881302A
:10524000C9F58CE89CE00E94864E86E993E09A833B
:105250008983C95FDE4F19821882C750D140CE01C1
:1052600001960E9493758C0140910A0D50910B0D8F
:1052700060910C0D70910D0D40932B0850932C08EC
:1052800060932D0870932E08CB5FDD4F9983888340
:10529000C550D24084E496E0C95FDD4F998388838E
:1052A000C750D240CE018B5F9D4F0E94E461C80180
:1052B0000E940F4780915C08813031F08D3031F4CD
:1052C00080915D08813011F40E94D96866E174E034
:1052D00084ED9CE00E94365E882309F471C18091C0
:1052E0005C088D3009F05CC180915D08813009F067
:1052F00057C18CE89CE00E94864E8AE893E09A832E
:105300008983C15DDE4F19821882CF52D140CE0110
:1053100001960E9433768C01E0908C0BF0908D0BFF
:1053200060ED74E00E94E842E816F9060CF076C0E1
:105330008AE993E00E943B5961E080E00E945C5959
:1053400089E893E00E943B59A0908C0BB0908D0BA4
:1053500060ED74E0C8010E94E8426C01EE24E39421
:10536000F12C2F2D30E0C216D3060CF452C02A15B2
:105370003B050CF448C04AE06F2DCE018B5F9D4F7A
:105380000E9410604AE06E2DCE018B5C9C4F0E9403
:1053900010606DEB74E0CE018B559B4F0E944C600A
:1053A0006FEE7BE0CE018B559B4F0E94F85E64E16F
:1053B00077E00E94E15EBE016B5C7C4F0E94F85E6C
:1053C00062E277E00E94E15EBE016B5F7D4F0E946A
:1053D000F85E61EC76E00E94E15E61E37FE3DC0170
:1053E0008D919C910E946F58CE018B559B4F0E94CE
:1053F000E05FCE018B5C9C4F0E94E05FCE018B5F33
:105400009D4F0E94E05F8FEE9AE00E94D552F39488
:10541000A8CFE394B9E0EB12A3CFA3C0E0908C0B2C
:10542000F0908D0B60ED74E0C8010E94E8428E158B
:105430009F050CF096C089E793E00E943B5961E01C
:1054400080E00E945C5988E693E00E943B5980907E
:105450008C0B90908D0B60ED74E0C8010E94E842C7
:105460005C0180E993E0CB5FDD4F99838883C55071
:10547000D240C95BDD4F19821882C754D240CE0199
:105480008B5F9D4F0E94C24A6C01CB5CDC4F9983BD
:105490008883C553D34080EC93E0C95CDC4F99838B
:1054A0008883C753D34060E570E0CE018B5C9C4F8E
:1054B0000E94A244EE24E394F12C8F2D90E08815F5
:1054C00099050CF04AC0A816B9060CF040C04AE095
:1054D0006E2DCE018B559B4F0E9410606DEB74E0DA
:1054E000CE0187519B4F0E944C606FEE7BE0CE0156
:1054F00087519B4F0E94F85E64E177E00E94E15E75
:10550000BE016B557B4F0E94F85E6F2D0E94B25E0C
:1055100061EC76E00E94E15EBC01CE018B5C9C4FA9
:105520000E944460B601CE018B5C9C4F0E945E8558
:10553000CE018B5C9C4F0E94E05FCE0187519B4F58
:105540000E94E05FCE018B559B4F0E94E05F8FEE83
:105550009AE00E94D552F394B0CFE394E9E0EE12C2
:10556000ABCF60918C0B70918D0BCB5FDD4F1983AE
:105570000883C550D24080ED94E0C95FDD4F998328
:105580008883C750D240CE018B5F9D4F0E94A244BA
:1055900080918C0B8093070D60E0C8010E94E98424
:1055A00080915C08813011F08D3051F480915D085C
:1055B000813031F410928D0B10928C0B0E94D968BF
:1055C0006CE174E084ED9CE00E94365E882309F46F
:1055D00045C080915C088D3089F580915D088130EF
:1055E00069F58CE993E09A838983C953DF4F198267
:1055F0001882C75CD040CE0101960E9448758C018C
:1056000060918C0B70918D0B7093DC086093DB08BC
:10561000CB5FDD4F99838883C550D24087E896E001
:10562000C95FDD4F99838883C750D240CE018B5F1D
:105630009D4F0E94A244C8010E94126C80915C0898
:10564000813031F08D3051F480915D08813031F43A
:1056500010928D0B10928C0B0E94D96864E274E05A
:1056600084ED9CE00E94365E882309F441C080915D
:105670005C088D3069F580915D08813049F58CE9D1
:1056800093E09A838983C953DF4F19821882C75CDC
:10569000D040CE0101960E9448758C0160918C0B20
:1056A0006093D607CB5FDD4F99838883C550D24086
:1056B0008CEC93E0C95FDD4F99838883C750D2405B
:1056C000CE018B5F9D4F0E949162C8010E94126CB7
:1056D00080915C08813031F08D3051F480915D080B
:1056E000813031F410928D0B10928C0B0E94D9688E
:1056F0006AE274E084ED9CE00E94365E882309F43F
:105700000CC180915C088B3009F0E1C080915D088C
:10571000813009F0DCC08CE89CE00E94864E8CED64
:1057200092E00E943B5961E080E00E945C598DEC60
:1057300092E00E943B5980EB93E09A838983CD5F8E
:10574000DD4F19821882C350D2404091DB0C60912A
:10575000ED08CE0101960E94BD818C014091DD08CB
:105760005091DE086091DF087091E008CB5FDD4F5B
:1057700099838883C550D24080EC93E0C95FDD4FA8
:1057800099838883C750D240CE018B5F9D4F0E9482
:10579000E4619091DB0C8091070D891778F58AE818
:1057A00093E0CB5FDD4F99838883C550D240CD5CB9
:1057B000DC4F19821882C353D340CE018B5F9D4FBB
:1057C0000E9433767C016091DB0C6093070DCB5C0B
:1057D000DC4F99838883C553D34080ED94E0C95C46
:1057E000DC4F99838883C753D340CE018B5C9C4F99
:1057F0000E94916261E0C7010E94E984F090DB0C95
:10580000E090ED086DEB74E0CE018B5C9C4F0E9444
:105810004C606FEE7BE0CE018B5C9C4F0E94F85E8B
:1058200064E177E00E94E15E6E2D0E94B25E62E26A
:1058300077E00E94E15E6F2D0E94B25E61EC76E03F
:105840000E94E15E42E4BC01CE018B5F9D4F0E944D
:105850006358CE018B5F9D4F0E947159CE018B5CC6
:105860009C4F0E94E05F40E051E0BE016B5F7D4FC6
:10587000C8010E946184BE016B5F7D4F84EA9CE099
:105880000E94539184EA9CE00E94094180918C0B14
:1058900090918D0B20918E0B30918F0B8217930777
:1058A0008CF4019690938D0B80938C0B8093DB0C82
:1058B0008CE080935C0810925D0880E090E00E948C
:1058C000826905C08217930711F40E94D9688091FC
:1058D0005C08813011F580915D088130F1F4809190
:1058E0008C0B90918D0B8130910539F410928D0BBA
:1058F00010928C0B0E94D96810C0019790938D0B69
:1059000080938C0B8093DB0C8CE080935C0810926E
:105910005D0880E090E00E94826961E374E084EDBC
:105920009CE00E94365E882309F445C080915C08A3
:105930008D3089F580915D08813069F58CE89CE0B7
:105940000E94864E86E993E09A838983C95FDE4F81
:1059500019821882C750D140CE0101960E949375DA
:105960008C0160918C0B6093DC07CB5FDD4F9983DA
:105970008883C550D2408CE496E0C95FDD4F99839F
:105980008883C750D240CE018B5F9D4F0E949162A9
:10599000C8010E940F4780915C08813031F08D3042
:1059A00051F480915D08813031F410928D0B10928A
:1059B0008C0B0E94D96869E374E084ED9CE00E943E
:1059C000365E882309F45AC080915C088D3009F056
:1059D00041C080915D088130E9F58CE89CE00E942F
:1059E000864E86E993E09A838983C95FDE4F1982E8
:1059F0001882C750D140CE0101960E9493758C0148
:105A000060918C0B70918D0B072E000C880B990BFD
:105A10000E94B49FAB01BC014093D8075093D907B3
:105A20006093DA077093DB07CB5FDD4F1983088340
:105A3000C550D2408BE596E0C95FDD4F99838883DE
:105A4000C750D240CE018B5F9D4F0E94E461C801D8
:105A50000E940F4780915C08813031F08D3071F4E5
:105A600080915D08813051F41092DD081092DE08BB
:105A70001092DF081092E0080E94D96860E474E098
:105A800084ED9CE00E94365E882309F445C0809135
:105A90005C088D3089F580915D08813069F58CE86E
:105AA0009CE00E94864E86E993E09A838983C95FD1
:105AB000DE4F19821882C750D140CE0101960E9454
:105AC00093758C0160918C0B6093D707CB5FDD4F92
:105AD00099838883C550D24084E596E0C95FDD4F45
