:1000000025C1000054C1000052C1000050C10000D1
:100010004EC100004CC100004AC1000048C10000B0
:1000200046C1000044C1000042C1000040C10000C0
:100030003EC100003CC100003AC1000038C10000D0
:1000400036C1000034C1000032C1000030C10000E0
:100050002EC100002CC100002AC100000C94FE102B
:1000600026C100000C94DE0F0C94B50F20C10000D7
:100070001EC100001CC100001AC1000018C1000010
:1000800016C1000014C1000012C1000010C1000020
:100090000EC100000CC100000AC1000008C1000030
:1000A00006C1000004C1000002C1000000C1000040
:1000B000FEC00000FCC00000FAC00000F8C0000054
:1000C000F6C00000F4C00000F2C00000F0C0000064
:1000D000EEC00000ECC00000EAC00000E8C0000074
:1000E000E6C000003E0F410F300F340F3A0F780F7B
:1000F000450F490F4F0F530F570F5D0F610F650FDE
:10010000780F6B0F6F0F730F9B396E385A387B382F
:10011000753872381938453800002200250028004B
:100120002B002E00310034000201000005010801FF
:100130000B01000020002300260029002C002F00C6
:1001400032000001000003010601090100000A0B52
:1001500002090C0D0E080703040100000000000056
:10016000000000000000000000000000000000008F
:10017000000000000000000012111000000000004C
:10018000000000000000000000000000000000006F
:10019000000000002100240027002A002D0030006C
:1001A000330001010000040107010A0101021020CF
:1001B000200808102040102040800201020108049D
:1001C0000201010204081020408080402010080431
:1001D000020180040201804020100804020108048A
:1001E00002010102040810204080010204081020CE
:1001F00040800505050507050808080802020202F7
:100200000A0A0808040404040101010101010101B2
:100210000303030303030303040707070C0C0C0C7D
:100220000C0C0C0C02020202060606060606060666
:100230000B0B0B0B0B0B0B0B7C3C3E5E2B3D3F2F3C
:100240005B5D3B2C2A225C004740D83F11241FBE37
:10025000CFEFD1E2DEBFCDBF00E00CBF18E0A0E0E1
:10026000B2E0E0E9F0E900E00BBF02C007900D92B8
:10027000A030B107D9F72BE0A0E0B8E001C01D9293
:10028000AA3EB207E1F711E0C5E2D1E000E006C006
:1002900021970109802FFE010E94D341C432D1076A
:1002A00080E00807A9F70E946B3D0C943748A8CE60
:1002B0002F923F924F925F926F927F928F929F9276
:1002C000AF92BF92CF92DF92EF92FF920F931F9364
:1002D000CF93DF93CDB7DEB7C65ED2400FB6F894AA
:1002E000DEBF0FBECDBF80917B00877F80937B00F8
:1002F00080E480937C0080917A00806480937A000F
:1003000080917A0086FDFCCF809178002091790061
:1003100090E0922B9093E30B8093E20B0E94DF100E
:100320006B017C018091E20B9091E30B8B38924042
:1003300040F4C0920008D0920108E0920208F092C6
:1003400003088091000890910108A0910208B091E3
:100350000308A7019601281B390B4A0B5B0BDA0136
:10036000C90180319742A105B10548F06FEC77E0F3
:100370008AE59BE00E949F3381110C94060E8091C8
:10038000E20B9091E30B892B09F0C7C168ED73E094
:100390008AE59BE00E949F33882309F46AC048EAFB
:1003A00052E062E070E08E01075B1D4F9E012B5210
:1003B0003D4FC8010E94B02EA80161E070E09E018F
:1003C00021533D4FCE0101966C010E94512E44EA0B
:1003D00052E062E070E07E019BEFE91A9DEFF90ABE
:1003E0009E0127533D4FC7010E94B02EA70161E037
:1003F00070E09E012D533D4FCE0108960E94512E74
:10040000A60162E070E09E0128553D4FCE01835762
:100410009D4F0E94F22DCE0183579D4F0E94F930CF
:10042000CE0183579D4F0E94D02DCE0108960E9489
:10043000AE2DC6010E94AE2DC7010E94A92DC80194
:100440000E94A92D80911708909118080196909309
:100450001808809317080E947C3B80E090E00E947F
:100460005C220E94EA396AEF70E080E090E00E942E
:10047000A71060EE73E08AE59BE00E949F3388231B
:1004800009F4BCC040EA52E062E070E09E012A51EB
:100490003D4FFE0131963F01CF010E94B02E4CE945
:1004A00052E062E070E09E012B513D4FCE01089674
:1004B0000E94B02E48E952E062E070E09E012C51AB
:1004C0003D4FCE010F960E94B02E44E952E062E00B
:1004D00070E09E012D513D4FCE0146960E94B02EF8
:1004E00040E952E062E070E09E0121523D4FCE01B2
:1004F0004D960E94B02EA30165E070E07E01F7EBFF
:10050000EF1AFDEFFF0A9E0125523D4FC7010E94E1
:10051000512E4CE852E062E070E08E010B5F1D4FFF
:100520009E012B523D4FC8010E94B02E48E852E078
:1005300062E070E0680127E0C20ED11C9E012153E9
:100540003D4FC6010E94B02E44E852E062E070E0E8
:1005500058013EE0A30EB11C9E0127533D4FC5013B
:100560000E94B02EA80163E070E0470187E0880E8A
:10057000911C9E012D533D4FC4010E94512EA70195
:1005800062E070E09E0128553D4FCE0183579D4F9C
:100590000E94F22DCE0183579D4F0E94F930CE016B
:1005A00083579D4F0E94D02DC4010E94AE2DC701DC
:1005B0000E94AE2DC5010E94A92DC6010E94A92D41
:1005C000C8010E94A92D015E114007501109C80100
:1005D0000E94A92D06151705C1F780911708909163
:1005E0001808019690931808809317080E947C3B86
:1005F0006AEF70E080E090E00E94A71062E074E093
:100600008AE59BE00E949F33882309F486C040E876
:1006100052E062E070E08E010B5F1D4F9E0121529F
:100620003D4FC8010E94B02E4CE752E062E070E0FE
:10063000580197E0A90EB11C9E0125523D4FC501FE
:100640000E94B02EA80162E070E07E01E7EBEE1A96
:10065000EDEFFE0A9E012B523D4FC7010E94512E25
:1006600048E752E062E070E09E0121533D4FCE0129
:1006700001966C010E94B02E44E752E062E070E007
:100680009E0127533D4FCE0108960E94B02EA60131
:1006900062E070E0470197E0890E911C9E012D53A6
:1006A0003D4FC4010E94512EA70162E070E09E01FF
:1006B00028553D4FCE0183579D4F0E94F22DCE010C
:1006C00083579D4F0E94F930CE0183579D4F0E9462
:1006D000D02DC4010E94AE2DC7010E94AE2DCE01C7
:1006E00008960E94A92DC6010E94A92DC5010E944D
:1006F000A92DC8010E94A92D809117089091180872
:10070000019690931808809317080E947C3B6AEF2B
:1007100070E080E090E00E94A7108091E20B909141
:10072000E30B8336910509F042C06FEC77E08AE570
:100730009BE00E949F33882321F081E090E00E949B
:10074000D32468ED73E08AE59BE00E949F33882301
:1007500051F081E090E00E945C226AEF70E080E05E
:1007600090E00E94A71062E074E08AE59BE00E949E
:100770009F33882351F081E090E00E946A216AEF64
:1007800070E080E090E00E94A71060EE73E08AE5E0
:100790009BE00E949F33882351F081E090E00E940B
:1007A00022206AEF70E080E090E00E94A710809124
:1007B000E20B9091E30B8F3F910509F042C06FEC83
:1007C00077E08AE59BE00E949F33882321F08FEF3A
:1007D0009FEF0E94D32468ED73E08AE59BE00E94BE
:1007E0009F33882351F08FEF9FEF0E945C226AEFC6
:1007F00070E080E090E00E94A71062E074E08AE57B
:100800009BE00E949F33882351F08FEF9FEF0E945F
:100810006A216AEF70E080E090E00E94A71060EE2D
:1008200073E08AE59BE00E949F33882351F08FEFAD
:100830009FEF0E9422206AEF70E080E090E00E942B
:10084000A7108091E20B9091E30B8839914009F059
:1008500024C26FEC77E08AE59BE00E949F338823F7
:1008600009F468C06091360B7091370B61507109C3
:1008700082E39BE00E94712B1092160810921508DB
:10088000CE01875B9D4F0E9491236AEB7BE0CE01F6
:100890008B5F9D4F0E94A63469EE73E0CE018B5FA3
:1008A0009D4F0E94EB33BE01675B7D4F0E94023477
:1008B000FC016081718141E0CE0101960E94FE3908
:1008C000CE018B5F9D4F0E947634CE01875B9D4F9A
:1008D0000E947634BE016F5F7F4FCE018B5F9D4FCC
:1008E0000E949B35CE018B5F9D4F0E94E42380ECDC
:1008F0009BE00E94C711CE0101960E94A71E609145
:10090000390B70913A0BCE018B5F9D4F0E94A6343C
:10091000CE018B5F9D4F0E94E422CE018B5F9D4FE5
:100920000E9476340E94BF246EE571E080E090E082
:100930000E94A71068ED73E08AE59BE00E949F3358
:10094000882309F456C040E752E062E070E09E015F
:1009500027533D4F8E010F5F1F4FC8010E94B02EDD
:100960004CE652E062E070E09E012D533D4FCE0117
:1009700008960E94B02EA80162E070E07E01FBEFB5
:10098000EF1AFDEFFF0A9E0128553D4FC7010E9457
:10099000512EA70161E070E09E0123573D4FCE012B
:1009A000875B9D4F0E94F22DCE01875B9D4F0E9479
:1009B000F930CE01875B9D4F0E94D02DC7010E9468
:1009C000AE2DCE0108960E94A92DC8010E94A92D26
:1009D00080911708909118080197909318088093B8
:1009E00017080E947C3B6AEF70E080E090E00E9474
:1009F000A71060EE73E08AE59BE00E949F33882396
:100A000009F4BBC048E652E062E070E09E012A5162
:100A10003D4FCE0101963C010E94B02E44E652E0CB
:100A200062E070E09E012B513D4FCE0108960E947E
:100A3000B02E40E652E062E070E09E012C513D4F46
:100A4000CE010F960E94B02E4CE552E062E070E0BD
:100A50009E012D513D4FCE0146960E94B02E48E595
:100A600052E062E070E09E0121523D4FCE014D9672
:100A70000E94B02EA30165E070E07E0197EBE91AB9
:100A80009DEFF90A9E0125523D4FC7010E94512E4C
:100A900044E552E062E070E08E010B5F1D4F9E0165
:100AA0002B523D4FC8010E94B02E40E552E062E05B
:100AB00070E06801E7E0CE0ED11C9E0121533D4F4E
:100AC000C6010E94B02E4CE452E062E070E0580192
:100AD000FEE0AF0EB11C9E0127533D4FC5010E94A1
:100AE000B02EA80163E070E0470127E0820E911C60
:100AF0009E012D533D4FC4010E94512EA70162E07B
:100B000070E09E0128553D4FCE0183579D4F0E94B6
:100B1000F22DCE0183579D4F0E94F930CE018357AD
:100B20009D4F0E94D02DC4010E94AE2DC7010E948E
:100B3000AE2DC5010E94A92DC6010E94A92DC80194
:100B40000E94A92D015E114007501109C8010E94A1
:100B5000A92D06151705C1F780911708909118085F
:100B6000019790931808809317080E947C3B6AEFC6
:100B700070E080E090E00E94A71062E074E08AE5F7
:100B80009BE00E949F33882309F487C048E452E029
:100B900062E070E08E010B5F1D4F9E0121523D4FC0
:100BA000C8010E94B02E44E452E062E070E05801B7
:100BB00037E0A30EB11C9E0125523D4FC5010E9496
:100BC000B02EA80162E070E07E0187EBE81A8DEF9D
:100BD000F80A9E012B523D4FC7010E94512E40E45E
:100BE00052E062E070E09E0121533D4FFE013196DC
:100BF0006F01CF010E94B02E4CE352E062E070E042
:100C00009E0127533D4FCE0108960E94B02EA601AB
:100C100062E070E04701F7E08F0E911C9E012D53BA
:100C20003D4FC4010E94512EA70162E070E09E0179
:100C300028553D4FCE0183579D4F0E94F22DCE0186
:100C400083579D4F0E94F930CE0183579D4F0E94DC
:100C5000D02DC4010E94AE2DC7010E94AE2DCE0141
:100C600008960E94A92DC6010E94A92DC5010E94C7
:100C7000A92DC8010E94A92D8091170890911808EC
:100C8000019790931808809317080E947C3B6AEFA5
:100C900070E080E090E00E94A7108091E20B9091BC
:100CA000E30B8F37924009F0BDC76FEC77E08AE520
:100CB0009BE00E949F33882309F4DFC1209115082F
:100CC0003091160816E0129FC001139F900D112459
:100CD000E090390BF0903A0BE80EF91ECE01875BDD
:100CE0009D4F0E9491236AEB7BE0CE018B5F9D4F6D
:100CF0000E94A63469EE73E0CE018B5F9D4F0E9487
:100D0000EB33BE01675B7D4F0E94023469EE73E0F6
:100D10000E94EB33B7010E940234FC0160817181B3
:100D200041E0CE0101960E94FE39CE018B5F9D4FBE
:100D30000E947634CE01875B9D4F0E9476342091CD
:100D4000150830911608129FC001139F900D1124B1
:100D50004091390B50913A0B480F591F6091360B57
:100D60007091370B6F5F7F4F82E39BE00E94AD2B4A
:100D7000BE016F5F7F4FCE018B5F9D4F0E949B3501
:100D8000CE018B5F9D4F0E94E42380913D0B90919B
:100D90003E0B892B11F1109216081092150880EC69
:100DA0009BE00E94C711CE0101960E94A71E609190
:100DB000390B70913A0BCE018B5F9D4F0E94A63488
:100DC000CE018B5F9D4F0E94E422CE018B5F9D4F31
:100DD0000E9476340E94BF244AC18091360B9091C4
:100DE000370B189FB001199F700D112466507109BF
:100DF0008091320B9091330B680F791F8AE59BE04D
:100E00000E94283460EE73E08AE59BE00E949F33E5
:100E1000882309F4A6C00E94EA3980EC9BE00E9476
:100E2000C7110E94F4390E94FC2F60E47BE0CE01E0
:100E30008D539D4F0E94A634E0912D0AF0912E0A09
:100E4000EE0FFF1FE058FC4F60817181CE01885585
:100E50009D4F0E94AE3466E47BE0CE0183579D4FE8
:100E60000E94A6346CE47BE0CE018B5F9D4F0E9414
:100E7000A634BE016B5F7D4FCE01875B9D4F0E9404
:100E8000A6346BEE73E0CE01875B9D4F0E94EB337F
:100E9000BE0163577D4F0E9402346DEE73E00E94E5
:100EA000EB33BE0168557D4F0E94023468E476E062
:100EB0000E94EB33BE016D537D4F0E9402340E94AD
:100EC000FC3ACE01875B9D4F0E947634CE018B5F4A
:100ED0009D4F0E947634CE0183579D4F0E947634F9
:100EE000CE0188559D4F0E947634CE018D539D4F83
:100EF0000E94763461E080E00E94D5396091580B01
:100F00007091590B4AE0CE018B5F9D4F0E947B345C
:100F1000BE016B5F7D4FCE01875B9D4F0E94A63463
:100F200061EF73E0CE01875B9D4F0E94EB330E941F
:100F3000FC3ACE01875B9D4F0E947634CE018B5FD9
:100F40009D4F0E94763460E081E00E94D53981E0B7
:100F500090E0909318088093170810921A08109246
:100F6000190862E074E08AE59BE00E949F338823C1
:100F700009F459C00E94EA3980EC9BE00E94C71135
:100F80000E94F43960911402709115024AE0CE017A
:100F900083579D4F0E947B34609116027091170217
:100FA0004AE0CE018B5F9D4F0E947B34BE016B5F98
:100FB0007D4FCE01875B9D4F0E94A63469EE77E09E
:100FC000CE01875B9D4F0E94EB33BE0163577D4F7F
:100FD0000E9402346EEF73E00E94EB330E94FC3AF1
:100FE000CE01875B9D4F0E947634CE018B5F9D4F73
:100FF0000E947634CE0183579D4F0E94763461E083
:1010000080E00E94D53966E074E080EC9BE00E94AD
:10101000E93460E083E00E94D53983E090E090936A
:1010200018088093170867E174E08AE59BE00E9446
:101030009F338823E1F00E94EA3980EC9BE00E9414
:10104000C7110E94F43967E274E080EC9BE00E94D3
:10105000E93461E08AE00E94D53967E274E080EC0F
:101060009BE00E94E93460E081E00E94D5396EE5A2
:1010700071E080E090E00E94A71068ED73E08AE5DF
:101080009BE00E949F33882309F4E3C380911708F3
:10109000909118080B9709F0DCC380911908909182
:1010A0001A08019709F0D5C36FEC77E0CE018B5297
:1010B0009D4F0E94AE346FEC77E0CE0181539D4F7F
:1010C0000E94AE34CE0188559D4F0E94B81ECE01BD
:1010D00083579D4F0E94B81E0E94C7357C0164E56E
:1010E00076E0FC01828193810E949C1F8C01892BF8
:1010F00059F4C7010E94B72C8C01892BE9F084E5D3
:1011000096E0F801938382834091BE0B5091BF0B10
:101110006091BA0B7091BB0BF701808191810E94A5
:10112000513622E030E0F8013583248397838683AB
:10113000C80104960E9405368E010B5F1D4F42E4E4
:101140006EE274E0C8010E94FE3940E850E0BE0142
:101150006F5F7F4FC7010E94EE2EBE016F5F7F4F12
:10116000C8010E94E934C8010E94A71E80EC9BE0E0
:101170000E94C7110E94F43967E374E080EC9BE0A1
:101180000E94E9346AEB7BE0CE0101960E94A6340E
:1011900068E474E0CE0101960E94EB330E94F230C5
:1011A000CE0101960E9476346AEB7BE0CE01019677
:1011B0000E94A63461E574E0CE0101960E94EB33F3
:1011C0000E94F230CE0101960E9476346AEB7BE0F9
:1011D000CE0101960E94A63463E674E0CE0101962A
:1011E0000E94EB330E94F230CE0101960E947634C9
:1011F0006AEB7BE0CE0101960E94A63462E774E0C0
:10120000CE0101960E94EB330E94F230CE0101968E
:101210000E9476346AEB7BE0CE0101960E94A634F0
:101220006FE774E0CE0101960E94EB330E94F2302A
:10123000CE0101960E9476346AEB7BE0CE010196E6
:101240000E94A6346DE874E0CE0101960E94EB3353
:101250000E94F230CE0101960E9476346AEB7BE068
:10126000CE0101960E94A6346AE974E0CE0101968F
:101270000E94EB330E94F230CE0101960E94763438
:101280006AEB7BE0CE0101960E94A6346AEA74E024
:10129000CE0101960E94EB330E94F230CE010196FE
:1012A0000E9476348AE392E0C75BDD4F998388839E
:1012B000C954D240C557DD4F19821882CB58D2404D
:1012C000CE01875B9D4F0E9406377C019A838983FC
:1012D00084EB94E09C838B8360EB74E0CE010196F9
:1012E0000E94682DFA82E9828BEB94E09C838B83C9
:1012F00068E775E0CE0101960E94682DFA82E982C6
:1013000082EC94E09C838B836AE070E0CE010196CE
:101310000E94682D6AEB7BE0C8010E94A63460ED54
:1013200074E0C8010E94EB33BC01CE0101960E941B
:10133000A634B701CE0101960E942522CE01019666
:101340000E947634C8010E94763461E080E00E94F9
:10135000D539C12CD12C4601FFEF8F1A9F0A4AE0E4
:10136000B401CE0101960E947B346AEB7BE0C80198
:101370000E94A6346AED74E0C8010E94EB33BE01FE
:101380006F5F7F4F0E940234BC01CE018B529D4F94
:101390000E942834C8010E947634CE0101960E9432
:1013A0007634CE018B529D4F0E94F230BE016B52BB
:1013B0007D4FCE0101960E94A6346AEE74E0CE0104
:1013C00001960E94EB330E94F230CE0101960E94FA
:1013D0007634BE016B527D4FCE0101960E94A63439
:1013E00062EF74E0CE0101960E94EB330E94F2306E
:1013F000CE0101960E947634BE016B527D4FCE0124
:1014000001960E94A63462E075E0CE0101960E942A
:10141000EB330E94F230CE0101960E947634BE0179
:101420006B527D4FCE0101960E94A63461E175E0BA
:10143000CE0101960E94EB330E94F230CE0101965C
:101440000E9476342AE332E0F80131832083C95BBD
:10145000DD4F19821882C754D240C8010E94063756
:101460007C019A83898381E295E09C838B83B6011A
:10147000CE0101960E94682DFA82E98284E295E00D
:101480009C838B8360E570E0CE0101960E94682DFD
:10149000FA82E98289E295E09C838B8364E070E0C4
:1014A000CE0101960E94682DFA82E98287E395E0D9
:1014B0009C838B8360E070E0CE0101960E94682DD2
:1014C000BE016B527D4FCE018D539D4F0E94A634BD
:1014D00063E475E0CE018D539D4F0E94EB33BC0158
:1014E000CE0101960E94A634B701CE0101960E945A
:1014F0002522CE0101960E947634CE018D539D4F58
:101500000E947634A12CB12C81E2482E85E0582E21
:1015100094E7292E95E0392E35013FEF631A730ABF
:101520004AE0B301CE0101960E947B34BE016B52AA
:101530007D4FCE018D539D4F0E94A63460E575E02E
:10154000CE018D539D4F0E94EB33BE016F5F7F4FE5
:101550000E940234BC01CE0181539D4F0E94283469
:10156000CE018D539D4F0E947634CE0101960E948C
:101570007634CE0181539D4F0E94F230BE016153FB
:101580007D4FCE0101960E94A63460E675E0CE0143
:1015900001960E94EB330E94F230CE0101960E9428
:1015A0007634BE0161537D4FCE0101960E94A63470
:1015B00065E675E0CE0101960E94EB330E94F230A1
:1015C000CE0101960E947634BE0161537D4FCE015B
:1015D00001960E94A6346AE675E0CE0101960E944B
:1015E000EB330E94F230CE0101960E947634BE01A8
:1015F00061537D4FCE0101960E94A6346FE675E0DF
:10160000CE0101960E94EB330E94F230CE0101968A
:101610000E9476344AE352E05A83498325961FAEEE
:101620001EAE2597CE0101960E9406377C01CD5350
:10163000DD4F99838883C35CD240CB53DD4F598201
:101640004882C55CD240B501CE018D539D4F0E94AA
:10165000682DCD53DD4FF982E882C35CD240CB5375
:10166000DD4F39822882C55CD240B601CE018D5350
:101670009D4F0E94682DCD53DD4FF982E882C35CF7
:10168000D2408CE795E0CB53DD4F99838883C55CCE
:10169000D24060E070E0CE018D539D4F0E94682DD6
:1016A000C753DD4FF982E882C95CD240EDE8F5E02E
:1016B000C553DD4FF983E883CB5CD240BC01CE013A
:1016C00087539D4F0E94DA2CC552DD4FF982E88284
:1016D000CB5DD24023E935E0C352DD4F3983288307
:1016E000CD5DD240BC01CE0185529D4F0E94DA2CC7
:1016F000C152DD4FF982E882CF5DD24049E955E021
:10170000CF51DD4F59834883C15ED240BC01CE0129
:1017100081529D4F0E94DA2CCD53DD4FF982E88231
:10172000C35CD24081EA95E0CB53DD4F9983888337
:10173000C55CD24061E070E0CE018D539D4F0E94A8
:10174000682DBE0161537D4FCE0187539D4F0E948E
:10175000A6346DEA75E0CE0187539D4F0E94EB33AE
:10176000BC01CE018D539D4F0E94A634B701CE011E
:101770008D539D4F0E942522CE018D539D4F0E9477
:101780007634CE0187539D4F0E947634530193E007
:101790006916710409F0C0CE6AEB75E080EC9BE03D
:1017A0000E94E93483E49AE0F5D26401EAE08E16FF
:1017B000910409F0D0CD6FEC77E08AE59BE00E94C0
:1017C00013340E94F33A80EC9BE0E1D56CEB75E0BA
:1017D00080EC9BE00E94E93468EE73E080E090E0EA
:1017E000B6D480EC9BE0D3D569EE73E0CE010196D0
:1017F0000E94AE346AEB7BE0CE0101960E94023477
:10180000FC016081718141E0CE018B5F9D4F0E94A0
:10181000FE39CE0101960E947634BE016B5F7D4F8A
:10182000CE0101960E949B35CE0101960E94E423D1
:10183000CE018B5F9D4F0E94A71E0E94153DCE01D9
:1018400081539D4F0E947634CE018B529D4F0E9452
:10185000763462E074E08AE59BE00E949F3388233F
:1018600009F4D1C080911708909118080D9709F0DC
:101870009CC08091190890911A08019709F095C0B1
:1018800088EC92E09A838983CD5FDD4F19821882BC
:10189000C350D2400E94C73544E556E0BC01CE019A
:1018A00083579D4F0E94B81FBE0163577D4FCE01E5
:1018B000875B9D4F0E94A63460ED74E0CE01875B8C
:1018C0009D4F0E94EB33FC016081718141E0CE01AC
:1018D0008B5F9D4F0E94FE39CE01875B9D4F0E941A
:1018E0007634CE0183579D4F0E947634BE016B5FE4
:1018F0007D4FCE01875B9D4F0E94C234BE01675B66
:101900007D4FCE0101960E94B0288C01CE01875BED
:101910009D4F0E94763460911602709117021A83CF
:10192000098384EB94E09C838B83CE0101960E9413
:10193000682D60911402709115021A8309838BEB54
:1019400094E09C838B83CE0101960E94682D6AEB04
:101950007BE0CE0101960E94A63460ED74E0CE01DA
:1019600001960E94EB33FC016081718142E4CE015B
:101970008B5F9D4F0E94FE39CE0101960E94763406
:1019800040E850E0BE016F5F7F4FC8010E94EE2E1D
:10199000BE016F5F7F4FCE018B5F9D4F0E94E93488
:1019A000CE018B5F9D4F0E94A71E809117089091DA
:1019B00018088130910541F00D9729F5809119089B
:1019C00090911A080197F9F480EC9BE0E0D46FEC59
:1019D00077E08AE59BE00E9413340E94F43920915D
:1019E00015083091160846E0429FC001439F900DB4
:1019F00011242091390B30913A0B820F931F0E94D2
:101A0000FC3A0E94BF2460EE73E08AE59BE00E94EE
:101A10009F33882309F406C1809117089091180814
:101A20000D9709F073C08091190890911A080197D9
:101A300009F06CC000912F0AF090310A8091330AAE
:101A4000883148F5FBE3FF1530F10C3320F51AE03F
:101A5000612F0E94B441692F20E1829F600D112403
:101A600082E00E940A408F2D612F0E94B441692FAD
:101A700030E1839F600D112481E00E940A40802F95
:101A8000612F0E94B441692F40E1849F600D1124B1
:101A900080E00E940A402091580B3091590BF09041
:101AA0002D0A0091350A8FEF800F8F3178F58FEF77
:101AB0008F0D8C3058F5C901805D9740883E53E00A
:101AC000950720F51AE0612F0E94B441692FE0E1EB
:101AD0008E9F600D112486E00E940A408F2D612F99
:101AE0000E94B441692FF0E18F9F600D112485E0C1
:101AF0000E940A40802F612F0E94B441692F20E18B
:101B0000829F600D112484E00E940A408091170892
:101B1000909118088630910551F00D9709F082C018
:101B20008091190890911A08019709F07BC0609183
:101B3000360B7091370B6150710982E39BE00E9474
:101B4000712B10921608109215086FEC77E08AE559
:101B50009BE00E941334CE01875B9D4F0E9491232E
:101B60006AEB7BE0CE018B5F9D4F0E94A63469EE4D
:101B700073E0CE018B5F9D4F0E94EB33BE01675B2C
:101B80007D4F0E940234FC016081718141E0CE01F1
:101B900001960E94FE39CE018B5F9D4F0E947634E4
:101BA000CE01875B9D4F0E947634BE016F5F7F4FF1
:101BB000CE018B5F9D4F0E949B35CE018B5F9D4F69
:101BC0000E94E42380EC9BE0E2D30E94F33ACE0132
:101BD00001960E94A71E6091390B70913A0BCE01BD
:101BE0008B5F9D4F0E94A634CE018B5F9D4F0E945C
:101BF000E422CE018B5F9D4F0E9476340E94BF2469
:101C00006EE571E080E090E0A2D20CC0C0920008C6
:101C1000D0920108E0920208F09203080E94153D5C
:101C20000C94BF01CA51DD4F0FB6F894DEBF0FBE52
:101C3000CDBFDF91CF911F910F91FF90EF90DF907B
:101C4000CF90BF90AF909F908F907F906F905F905C
:101C50004F903F902F900895FC01918D828D9817A1
:101C600061F0828DDF01A80FB11D5D968C91928D80
:101C70009F5F9F73928F90E008958FEF9FEF08957D
:101C8000FC01918D828D981731F0828DE80FF11D46
:101C9000858D90E008958FEF9FEF0895FC01918D61
:101CA000228D892F90E0805C9F4F821B91098F735A
:101CB0009927089583E49AE0F1DF21E0892B09F464
:101CC00020E0822F0895FC01848DDF01A80FB11D53
:101CD000A35ABF4F2C91848D90E001968F73992762
:101CE000848FA689B7892C93A089B1898C9180644F
:101CF0008C93938D848D981306C00288F389E02D10
:101D000080818F7D80830895EF92FF920F931F93C0
:101D1000CF93DF93EC0181E0888F9B8D8C8D98139E
:101D200005C0E889F989808185FD23C0F62E0B8DD9
:101D300010E00F5F1F4F0F731127E02E8C8DE812FC
:101D40000BC00FB607FCFACFE889F989808185FFBF
:101D5000F5CFCE01B8DFF2CF8B8DFE01E80FF11D7C
:101D6000E35AFF4FF0820B8FEA89FB898081806202
:101D700007C0EE89FF896083E889F98980818064E2
:101D8000808381E090E0DF91CF911F910F91FF90D0
:101D9000EF900895CF93DF93EC01888D8823C1F0F5
:101DA000EA89FB89808185FD05C0A889B9898C9164
:101DB00086FD0EC00FB607FCF5CF808185FFF2CF00
:101DC000A889B9898C9185FFEDCFCE017CDFE8CF62
:101DD000DF91CF91089580E090E0892B19F06ADFC0
:101DE000811125C080E090E0892B41F080E090E0F7
:101DF000892B21F00E94000081111CC080E090E03E
:101E0000892B41F080E090E0892B21F00E940000B6
:101E1000811113C080E090E0892BA1F080E090E078
:101E2000892B81F00E94000081110AC008950E9450
:101E30000000D8CF0E940000E1CF0E940000EACF4E
:101E40000C940000089590E0FC013197E231F10517
:101E500008F04EC08827EE58FF4F8F4F0C94D341A7
:101E6000809180008F7703C0809180008F7D809368
:101E70008000089580918000877FF9CF84B58F77A7
:101E800002C084B58F7D84BD08958091B0008F77A6
:101E900003C08091B0008F7D8093B0000895809141
:101EA00090008F7707C0809190008F7D03C0809154
:101EB0009000877F8093900008958091A0008F7795
:101EC00007C08091A0008F7D03C08091A000877F14
:101ED0008093A0000895809120018F7707C08091A2
:101EE00020018F7D03C080912001877F8093200196
:101EF00008953FB7F8948091080890910908A0913F
:101F00000A08B0910B0826B5A89B05C02F3F19F011
:101F10000196A11DB11D3FBFBA2FA92F982F882769
:101F2000820F911DA11DB11DBC01CD0142E0660FC4
:101F3000771F881F991F4A95D1F708950E9406457B
:101F40006115710579F0FB0101900020E9F73197E7
:101F5000AF01461B570BDC01ED91FC910280F38130
:101F6000E02D199480E090E008951F920F920FB633
:101F70000F9211240BB60F922F933F934F935F93C1
:101F80006F937F938F939F93AF93BF93EF93FF9341
:101F900083E49AE098DEFF91EF91BF91AF919F911A
:101FA0008F917F916F915F914F913F912F910F9002
:101FB0000BBE0F900FBE0F901F9018951F920F929F
:101FC0000FB60F9211240BB60F922F938F939F93FE
:101FD000EF93FF93E091530AF091540A8081E091CE
:101FE000590AF0915A0A82FD12C0908180915C0AD0
:101FF0008F5F8F7320915D0A821751F0E0915C0A28
:10200000F0E0ED5BF54F958F80935C0A01C0808115
:10201000FF91EF919F918F912F910F900BBE0F9099
:102020000FBE0F901F901895CF93DF93282F30E0AD
:10203000F901E45BFE4F8491F901E455FE4FD49120
:10204000F901EE50FE4FC491CC2389F08111FBDEE3
:10205000EC2FF0E0EE0FFF1FEE5CFE4FA591B49168
:10206000EC91ED2381E090E021F480E002C080E07B
:1020700090E0DF91CF9108951F93CF93DF93282FA6
:1020800030E0F901E45BFE4F8491F901E455FE4F25
:10209000D491F901EE50FE4FC491CC23C1F0162F1C
:1020A0008111D1DEEC2FF0E0EE0FFF1FE85EFE4F56
:1020B000A591B4918FB7F894111105C09C91ED2FA3
:1020C000E095E92302C0EC91ED2BEC938FBFDF91FB
:1020D000CF911F910895CF93DF9390E0FC01E455D9
:1020E000FE4F2491FC01EE50FE4F8491882361F154
:1020F00090E0880F991FFC01EE56FE4FC591D491D8
:10210000FC01E85EFE4FA591B491611109C09FB733
:10211000F8948881209582238883EC912E230BC02C
:10212000623061F49FB7F8943881822F80958323C1
:102130008883EC912E2B2C939FBF06C08FB7F89409
:10214000E8812E2B28838FBFDF91CF9108958F9246
:102150009F92AF92BF92CF92DF92EF92FF926B016C
:102160007C01C7DE4B015C01C114D104E104F10420
:10217000E9F0BFDEDC01CB0188199909AA09BB0986
:10218000883E9340A105B10578F321E0C21AD10839
:10219000E108F10888EE880E83E0981EA11CB11CAE
:1021A000C114D104E104F10421F7DECFFF90EF90D8
:1021B000DF90CF90BF90AF909F908F9008952FB7F2
:1021C000F894609104087091050880910608909138
:1021D00007082FBF0895CF93DF93EC0160E08E8155
:1021E0004BDF61E08E8148DF60E08E8145DF8BE868
:1021F00091E00197F1F7DF91CF9108951F920F922F
:102200000FB60F9211242F933F938F939F93AF9309
:10221000BF938091040890910508A0910608B091A1
:1022200007083091120823E0230F2D3720F4019680
:10223000A11DB11D05C026E8230F0296A11DB11DE9
:10224000209312088093040890930508A093060831
:10225000B09307088091080890910908A0910A0896
:10226000B0910B080196A11DB11D809308089093B1
:102270000908A0930A08B0930B08BF91AF919F91F2
:102280008F913F912F910F900FBE0F901F90189537
:10229000CF92DF92EF92FF920F931F93CF93DF9332
:1022A0007C016C0187E0C80ED11CC0E0D0E0062F95
:1022B00010E0B8010C2E02C0759567950A94E2F7FC
:1022C0006170F60181916F01D7DE2196C430D1058E
:1022D00081F7C701DF91CF911F910F91FF90EF9090
:1022E000DF90CF9078CFCF92DF92EF92FF920F9353
:1022F0001F93CF93DF93EC01F62E642F8C81BCDE0D
:102300008D818F3F11F060E0B7DE8F850F2D10E0DB
:1023100084FF23C06E0187E0C80ED11CE12CF12C94
:10232000B8010E2C02C0759567950A94E2F76170AA
:10233000F60181916F01A0DEFFEFEF1AFF0A88E03E
:10234000E816F10469F7CE01DF91CF911F910F914B
:10235000FF90EF90DF90CF903ECFB80184E075956D
:1023600067958A95E1F7CE0193DF6F2DCE01DF915E
:10237000CF911F910F91FF90EF90DF90CF9088CF7A
:1023800041E0B1DF81E090E0089540E0ACCF61E052
:10239000FCDF8BE39FE10197F1F7089580910D0831
:1023A0008823A9F14091100250911102609112020C
:1023B000709113022FE138E080911F0A9091200A5A
:1023C0000E94F71D811102C080E0089540910E081F
:1023D00050910F0860911008709111084115510536
:1023E0006105710591F02FE138E080911F0A90910D
:1023F000200A0E94F71D882339F310920E081092CC
:102400000F08109210081092110810920D0881E028
:1024100008958F929F92AF92BF92EF92FF920F9387
:102420001F93CF934B015C01C42F809110029091B8
:102430001102A0911202B091130288159905AA0504
:10244000BB05F9F0ABDF811102C080E020C08FE155
:10245000E82E88E0F82E00E012E020E030E0B50140
:10246000A40180911F0A9091200A0E946A1D88236E
:1024700061F38092100290921102A0921202B09227
:10248000130280910D08C82BC0930D0881E0CF91F5
:102490001F910F91FF90EF90BF90AF909F908F9002
:1024A00008954F925F926F927F928F929F92AF9218
:1024B000BF92CF92DF92EF92FF920F931F93CF9331
:1024C000DF93EC016A017B0128013901423051059B
:1024D0006105710510F480E072C089859A85AB852D
:1024E000BC850196A11DB11D84179507A607B707E6
:1024F00090F38B889C88AD88BE888F89803129F4C1
:10250000BB27AF2D9E2D8D2D09C0DB01CA0147E0F1
:10251000B695A795979587954A95D1F7880E991EF8
:10252000AA1EBB1E8091100290911102A09112026E
:10253000B091130288169906AA06BB0679F48F8912
:10254000803199F4DD24EE24FF24C601880F991F01
:10255000FC01E15EF74F5182408218C040E0C501A6
:10256000B40157DF8111EBCFB6CFE894C7F8DD2473
:10257000EE24FF24C601880F991F880F991FFC01C4
:10258000E15EF74F408251826282738280910D0832
:10259000816080930D088A89823080F08D819E81D0
:1025A000AF81B885880E991EAA1EBB1E80920E08A8
:1025B00090920F08A0921008B092110881E0DF916C
:1025C000CF911F910F91FF90EF90DF90CF90BF9030
:1025D000AF909F908F907F906F905F904F900895F5
:1025E0008F929F92AF92BF92CF92DF92EF92FF9223
:1025F0000F931F93CF93DF93FC0181859285A38571
:10260000B4850196A11DB11D84179507A607B707CC
:1026100010F480E05BC083899489A589B689C78955
:10262000C03129F4852E962EA72EBB2409C04A015D
:102630005B01C7E0B694A79497948794CA95D1F7A5
:10264000E9016A017B018F01BC01CD01680D791D93
:102650008A1D9B1D8090100290901102A090120282
:10266000B0901302681579058A059B0599F4F80165
:1026700087898031A1F4B701A601552766277727FE
:10268000440F551FFA01E15EF74F80819181A0E070
:10269000B0E017C040E0BDDE8111E9CFBACFB7018D
:1026A000A6014F77552766277727440F551F440FFC
:1026B000551FFA01E15EF74F80819181A281B381BC
:1026C000BF7088839983AA83BB8381E0DF91CF9118
:1026D0001F910F91FF90EF90DF90CF90BF90AF9040
:1026E0009F908F9008954F925F926F927F92AF92DA
:1026F000BF92CF92DF92EF92FF920F931F93CF93EF
:10270000DF9300D01F92CDB7DEB78C0149835A8387
:102710006B837C835901C12CD12C7601412C82E042
:10272000582E612C712C49815A816B817C819E01CC
:102730002F5F3F4FC80154DF882351F1D301C201FD
:10274000F801058404C0880F991FAA1FBB1F0A94B3
:10275000D2F7C80ED91EEA1EFB1E49815A816B8131
:102760007C818789803129F088EF9FEFAFEFBFE050
:1027700004C088EF9FEFA0E0B0E0481759076A0750
:102780007B0788F2F501C082D182E282F38281E088
:102790000F900F900F900F90DF91CF911F910F919D
:1027A000FF90EF90DF90CF90BF90AF907F906F90B1
:1027B0005F904F900895CF93DF93EC018D81882334
:1027C00091F18C8187FF2CC06E857F8588899989DE
:1027D00041E01FDE882339F1EA8980E2E89FF001B9
:1027E0001124DF01A15EB74F1097E9F08D8182308F
:1027F00050F44B895C896D897E895C964D935D931D
:102800006D937C935F978F89988DA98DBA8DE15ECA
:10281000F74F938F828FB58BA48B8C818F778C83AE
:10282000DF91CF91BBCD80E0DF91CF9108958F9262
:102830009F92AF92BF92CF92DF92EF92FF920F934F
:102840001F93CF93DF93EC018D81811102C080E053
:1028500076C00B891C892D893E8904171507260728
:102860003707A8F36A017B01823029F4CA86DB8628
:10287000EC86FD860DC0C114D104E104F10451F4CD
:102880001E821F82188619861A861B861C861D8644
:1028900081E055C08A849B84AC84BD84EB8DFC8D23
:1028A000258530E0275F3F4FB501A4014150510914
:1028B00061097109022E04C0769567955795479571
:1028C0000A94D2F7D701C6010197A109B10904C042
:1028D000B695A795979587952A95D2F7841795076A
:1028E000A607B70720F089288A288B2849F44F8942
:1028F000588D698D7A8D4E835F836887798704C090
:10290000841B950BA60BB70B4C015D018E010A5F72
:102910001F4F81149104A104B10409F4A7CF4E8183
:102920005F816885798598018B8D9C8D59DE91E05A
:10293000891A9108A108B1088111EBCF88CFDF91E6
:10294000CF911F910F91FF90EF90DF90CF90BF90AC
:10295000AF909F908F9008952F923F924F925F92E9
:102960006F927F928F929F92AF92BF92CF92DF929F
:10297000EF92FF920F931F93CF93DF9300D01F929C
:10298000CDB7DEB78C015B011A01DC0115968C9185
:1029900015978130C1F414968C9181FF14C082FF89
:1029A0001AC0F8014389548965897689828593859F
:1029B000A485B58584179507A607B70761F0C801F8
:1029C00036DF811108C081E090E0F80193838283B3
:1029D00080E090E034C1610183C0D8015B968D91A5
:1029E0009C915C97FC01248121502A013B0139E034
:1029F00076946794579447943A95D1F7722E742041
:102A00007A01F1E0FF22772009F476C080E092E0BD
:102A10008E199F0946018C159D0508F44C01D801BB
:102A20005B962D913C915C9716968D919D910D90A2
:102A3000BC91A02D0297A109B109F901058404C038
:102A4000880F991FAA1FBB1F0A94D2F74685578586
:102A500060897189840F951FA61FB71F9C01AD0166
:102A6000270D311D411D511D29013A01811432E00C
:102A7000930609F086C08091100290911102A091F6
:102A80001202B091130284159505A605B70559F4F5
:102A90008FEF9FEFDC018093100290931102A093BF
:102AA0001202B09313029501B301A20180911F0A93
:102AB0009091200A0E94F71D882309F484CF9EEF8D
:102AC000B91AC818D908F80182859385A485B585F7
:102AD000880D991DA11DB11D82879387A487B58795
:102AE000D8011A964D915D916D917C911D97C114FD
:102AF000D10409F072CF83C0E114F10409F086CF4C
:102B000016964D915D916D917C91199741155105E6
:102B10006105710559F457968D919D910D90BC9169
:102B2000A02D0097A105B10531F520C09E012F5FB2
:102B30003F4F56DD882309F44CCF89819A81AB81C0
:102B4000BC81F801238D348DF9012789203129F0CA
:102B500048EF5FEF6FEF7FE004C048EF5FEF60E0AA
:102B600070E084179507A607B70728F0C801F0D5CD
:102B700081114CCF28CFF80186839783A087B18736
:102B800045CFE114F10421F5D8011A964D915D91DC
:102B90006D917C911D9753968D919D910D90BC9157
:102BA000A02D481759076A077B0790F0F7DB8823A9
:102BB00009F409CF40921002509211026092120261
:102BC0007092130280910D08816080930D0807C0F8
:102BD00041E0C301B2011DDC882309F4F4CED50124
:102BE000F701E15EF74FCF01880D991DE817F9074E
:102BF00019F02D912193FACFA80CB91C62CF5396EE
:102C00008D919D910D90BC91A02D84179507A607DD
:102C1000B70740F4F801438B548B658B768B848126
:102C200080688483D80114968C9183FD02C0C10111
:102C300006C0C801C0DD882309F4C5CEF8CF0F90C7
:102C40000F900F900F90DF91CF911F910F91FF90F8
:102C5000EF90DF90CF90BF90AF909F908F907F903C
:102C60006F905F904F903F902F900895CF93DF9398
:102C70001F92CDB7DEB7698341E050E0BE016F5FC0
:102C80007F4F6ADE0F90DF91CF9108958F929F92D0
:102C9000AF92BF92CF92DF92EF92FF920F931F936A
:102CA000CF93DF9300D01F92CDB7DEB77C0180E2D7
:102CB000689F600111249601215E374FD9011B9650
:102CC0009C91917121F0842F827409F094C0142F8B
:102CD000F701628B8091100290911102A091120273
:102CE000B091130286879787A08BB18BF601E15EC6
:102CF000F74F4489558960E070E0BA0155274427B1
:102D0000D70157964D935D936D937C935A97828D1F
:102D1000938DA0E0B0E0482B592B6A2B7B2BD70179
:102D200057964D935D936D937C935A97D9011B965B
:102D30008C91887159F4848D958DA68DB78DF7018E
:102D4000838B948BA58BB68B81E011C0803109F009
:102D500052C097012D5E3F4FD7015B968D919C919C
:102D60005C97C1DC882309F446C084E0F7018583C1
:102D7000812F8F70D70114968C931497F7011682C8
:102D80001782108611861A961D921D921D921C9212
:102D90001D9716FF32C015968C91813061F511FF99
:102DA0002AC0F7014389548965897689452B462BCA
:102DB000472B09F45CC040E050E0BA01C70137DDA1
:102DC0008823C9F0F7018788908CA18CB28CC38CC2
:102DD000D48C82E090E0A0E0B0E0F60180839183A3
:102DE000A283B3839E012F5F3F4FB501A401C601AB
:102DF000F7DB811104C080E03AC081E038C000E018
:102E000010E09801B501A401C6014BDB882399F3BA
:102E100089809A80AB80BC80D60157968C91803196
:102E200029F088EF9FEFAFEFBFE004C088EF9FEF7E
:102E3000A0E0B0E088169906AA06BB0698F2D70172
:102E400057961D921D921D921C925A97F701138A54
:102E5000148A158A168A848180688483C701ABDC52
:102E6000882349F240E050E0BA01C701E0DC0F904E
:102E70000F900F900F90DF91CF911F910F91FF90C6
:102E8000EF90DF90CF90BF90AF909F908F9008957C
:102E90002F923F924F925F926F927F928F929F926A
:102EA000AF92BF92CF92DF92EF92FF920F931F9358
:102EB000CF93DF93EC016B014A018D81811103C037
:102EC0008FEF9FEFD4C08C8180FFFACF4B885C8856
:102ED0006D887E884A855B856C857D85C401A0E010
:102EE000B0E093018201041B150B260B370B08176A
:102EF00019072A073B0718F44201841A950A54015E
:102F00001E0126E0220E311CA114B10409F47DC07B
:102F10004A855B856C857D852A0181E05822ED819B
:102F20008A019B0189E036952795179507958A9523
:102F3000D1F78B8D9C8DE23061F4FC01828D938DF5
:102F4000A48DB58DBC01CD01600F711F821F931F31
:102F50003EC0FC0174807A94702241145104C1F483
:102F6000711016C0452B462B472B49F48F89988D3D
:102F7000A98DBA8D8E839F83A887B98709C04E819A
:102F80005F816885798591012BDB882309F498CFCF
:102F9000EB8DFC8D8E819F81A885B9850297A10953
:102FA000B109058404C0880F991FAA1FBB1F0A948A
:102FB000D2F74685578560897189840F951FA61FB2
:102FC000B71FBC01CD01670D711D811D911D20E052
:102FD00032E02419350935012A153B0508F4390179
:102FE0002C8126FD04C06114F2E07F0681F400917B
:102FF00010021091110220911202309113026017F9
:10300000710782079307A9F402C0C40130C040E0F1
:1030100000DA882309F454CFF201E15EF74FD601BC
:10302000CF01860D971DE817F90781F021912D93A7
:10303000FACF760183019201AB01BC0180911F0A96
:103040009091200A47D5882309F43ACFC60CD71CA3
:103050008A859B85AC85BD85860D971DA11DB11DFB
:103060008A879B87AC87BD87A618B7084DCFDF91AD
:10307000CF911F910F91FF90EF90DF90CF90BF9075
:10308000AF909F908F907F906F905F904F903F9008
:103090002F900895CF93DF93EC018DDB882311F0FF
:1030A0001D8281E0DF91CF910895CF92DF92EF9260
:1030B000FF921F93CF93DF93EC014AD3811102C09B
:1030C00080E05DC0EB8DFC8DCE80DF80E884F984EC
:1030D00082E0C81AD108E108F108058404C0CC0CCC
:1030E000DD1CEE1CFF1C0A94D2F786859785A0890B
:1030F000B189C80ED91EEA1EFB1E148181E0C81AD0
:10310000D108E108F1081123F9F048D98823C1F268
:10311000EFE1F8E011928AE0EF31F807D9F7D70133
:10312000C601810F911DA11DB11D809310029093C6
:103130001102A0931202B093130280910D088160D6
:1031400080930D081150DFCFEB8DFC8D80E092E075
:10315000A0E0B0E0058404C0880F991FAA1FBB1F20
:103160000A94D2F74B895C896D897E89840F951FFB
:10317000A61FB71F8B8B9C8BAD8BBE8B81E0DF9125
:10318000CF911F91FF90EF90DF90CF9008958F9295
:103190009F92AF92BF92CF92DF92EF92FF920F93E6
:1031A0001F93CF93DF93CDB7DEB72B970FB6F8946D
:1031B000DEBF0FBECDBF7C01FC01A580A1100AC1FE
:1031C000CE0101966C01FC0190E28BE08C0D919395
:1031D0008E13FDCFDA0130E087E09D91992339F11C
:1031E0009E3219F0E8E3F2E00AC08A3009F4F3C035
:1031F00038E08AE0F2CF3196491709F4ECC04491E7
:103200004111F9CF831708F4E6C04FED490F4E3551
:1032100008F0E1C041E0430FF601E30FF11D3FE983
:10322000390F3A3108F490529083342FD6CF8981E8
:10323000803209F4D0C0B22E8B01FB01838D948DB6
:10324000F701948F838FFB011682178210861186F7
:103250001286138614861586912CF8018285938533
:10326000A485B5854389548965897689841795072E
:10327000A607B70708F05FC025E0B695A795979514
:1032800087952A95D1F7F82FFF708F2EF801858149
:10329000823008F4A0C0C801B3D597FD9CC0F801E6
:1032A00082859385A485B5854F96A11DB11D828722
:1032B0009387A487B587F0E28F9EC0011124BC01DB
:1032C000615E774F6115710509F485C0FB012081AE
:1032D000222319F0253EC1F427C091100EC0F7013A
:1032E000828A4091100250911102609112027091F5
:1032F000130246875787608B718BFC01E15EF74FA5
:103300008081811113C015C04BE050E0C6010E94BE
:103310000A45892B09F0A1CF8B2D8073803309F4E6
:103320005AC04B2D682D52C09920C9F2992493940C
:1033300094CF992493948B2D8271823109F04BC0E4
:103340009920B1F0F701668577858089918941E000
:1033500060D8882309F43FC0F7016289F0E26F9FCB
:10336000B0011124615E774F6115710569F433C0B6
:10337000F8018581823079F1C80197DE882359F1FF
:10338000F701128A6FE178E080E2FB0111928A95E1
:10339000E9F78BE0F601DB0101900D928A95E1F7E8
:1033A00081E298E2FB01918B808B20E038E0378747
:1033B0002687938B828B918F808F378B268B0E94F1
:1033C000CE11882341F04B2DF7016289C7015EDCE5
:1033D000A82E01C0A12C8A2D2B960FB6F894DEBF23
:1033E0000FBECDBFDF91CF911F910F91FF90EF9056
:1033F000DF90CF90BF90AF909F908F900895DC01A9
:103400005996ED91FC915A973097B9F08389948938
:10341000A589B6894285538564857585841B950B7E
:10342000A60BB70B811520E89207A105B10538F06E
:103430008FEF9FE7A0E0B0E0089580E090E008956E
:10344000CF93DF931F92CDB7DEB76983DC01ED9197
:10345000FC910280F381E02D41E050E0BE016F5FFE
:103460007F4F19950F90DF91CF910895FC01EE5F8A
:10347000FD4F20813181620F731F613042E074077C
:1034800038F42E5F3F4F71836083820F931F08953E
:1034900080E090E00895FC01EE5BFF4F20813181D8
:1034A000620F731F6134710538F42E5F3F4F7183D3
:1034B0006083820F931F089580E090E00895FC01DF
:1034C000818D928D009709F076C908951F93CF934F
:1034D000DF93CDB7DEB76D970FB6F894DEBF0FBEA2
:1034E000CDBFAB011C821B8224EC33E03A832983DD
:1034F0001E8221E0BC01CE01019649DE11E081115E
:1035000002C010E003C0CE010196C4DD812F6D968C
:103510000FB6F894DEBF0FBECDBFDF91CF911F91E4
:1035200008956F927F928F929F92BF92CF92DF9277
:10353000EF92FF920F931F93CF93DF93CDB7DEB738
:10354000ED970FB6F894DEBF0FBECDBF8C017B01A7
:103550001CA21BA284EC93E09AA389A31EA2C8011B
:10356000B5DF8111A3C023E3A701B801CE01819685
:103570000EDE8823B9F081E08DA384E08EA3CE0116
:10358000819693DD882371F0CE01819614D988232A
:1035900049F06FA578A989A99AA941E00E9409126A
:1035A000811102C090E07EC02BA980E2289F90018B
:1035B0001124215E374F21153105A1F380E1F90176
:1035C000838780E2DE01119601900D928A95E1F7E2
:1035D000F901E488F588C28CD38CFE013296CE01C5
:1035E0000C9620E22193E817F907E1F78EE2B82E56
:1035F000B982ECADFDAD88AD99ADAAADBBAD02977A
:10360000A109B109058404C0880F991FAA1FBB1F17
:103610000A94D2F746855785608971893C014D012E
:10362000640E751E861E971EC401B30141E00E9400
:103630000912882309F4B6CFFE8AED8ADC8ECB8E80
:1036400080E2FE013196AFE1B8E001900D928A95DB
:10365000E1F7BA82F80185818250823038F04789DB
:10366000508D618D728DCA019B0104C080E090E095
:1036700020E030E03E8B2D8B9C8F8B8F80E2FE0113
:103680003196AFE3B8E001900D928A95E1F780E4BE
:1036900090E0A0E0B0E08BA79CA7ADA7BEA70E94DA
:1036A000CE11982F81E0911101C080E0ED960FB608
:1036B000F894DEBF0FBECDBFDF91CF911F910F9168
:1036C000FF90EF90DF90CF90BF909F908F907F9072
:1036D0006F900895CF93DF93EC01898D9A8D0097B9
:1036E00039F481E090E09B838A8380E090E00AC017
:1036F000FC011382128230D9E98DFA8D2281338147
:10370000232B79F7DF91CF910895EF92FF920F93DA
:103710001F93CF93DF937C0100E010E0C0E0D0E086
:10372000F7012481358180819181C217D30740F44C
:10373000800F911F0E94763421960A5F1F4FF0CFB1
:10374000DF91CF911F910F91FF90EF900C948A43DE
:103750003F924F925F926F927F928F929F92AF9221
:10376000BF92CF92DF92EF92FF920F931F93CF936E
:10377000DF93CDB7DEB72C970FB6F894DEBF0FBE40
:10378000CDBF5C01DC015B968D909C905C9716969A
:10379000CD90DD90ED90FC901997C114D104E10417
:1037A000F10439F0BFEFCB1ADB0AEB0AFB0A312C2C
:1037B00007C0F401C080D180E280F38033243394C9
:1037C000F40181859285A385B4859C01AD012F5FAD
:1037D0003F4F4F4F5F4F29873A874B875C872601C2
:1037E00037011D821E821F821886F4018185928511
:1037F000A385B4852D813E814F81588528173907CF
:103800004A075B0708F063C089859A85AB85BC854C
:103810008C159D05AE05BF0550F482E0C82ED12C55
:10382000E12CF12C92E0492E512C612C712C9E013F
:103830002F5F3F4FB701A601C4010E94F0128823F9
:1038400009F445C089819A81AB81BC81892B8A2B7F
:103850008B2B41F0260137019FEF491A590A690A5B
:10386000790A05C0C414D504E604F70491F02D814B
:103870003E814F8158852F5F3F4F4F4F5F4F2D83C4
:103880003E834F8358873FEFC31AD30AE30AF30AF4
:10389000ACCF0FEF1FEF2FEF3FE0B301A201C40148
:1038A0000E945112882399F0D50116964D915D9191
:1038B0006D917C911997411551056105710549F08C
:1038C00093018201C4010E945112811102C080E063
:1038D0002AC0D50116964D925D926D927C921997F1
:1038E000332051F0D301C2010196A11DB11DF40195
:1038F00080839183A283B383F5018789908DA18D05
:10390000B28D892B8A2B8B2B69F4D50157964D925A
:103910005D926D927C925A9714968C911497806860
:1039200014968C9381E02C960FB6F894DEBF0FBEF0
:10393000CDBFDF91CF911F910F91FF90EF90DF905E
:10394000CF90BF90AF909F908F907F906F905F903F
:103950004F903F9008958FB7F894809114088FBFCF
:10396000089561E0FC0184810E943C10809113085D
:1039700081111092130808958EBD00000DB407FE4A
:10398000FDCF8EB508958FEFF7CF0F931F93CF9391
:10399000DF93EB010E94DF108B01F5DF8F3F49F0D1
:1039A0000E94DF10601B710B6C177D07B0F380E085
:1039B00001C081E0DF91CF911F910F910895CF93C6
:1039C000DF93EC018E81882379F08F8198859C01AB
:1039D0002F5F3F4F38872F838230924010F4D3DF20
:1039E000F4CFCE01BEDF1E82DF91CF9108958CBD52
:1039F0009DBD0895CF93DF93EC0180911308811151
:103A000008C081E0809313088091E00A9091E10A58
:103A1000EEDF60E08C81DF91CF910C943C10CF926F
:103A2000DF92FF920F931F93CF93DF9300D01F92EB
:103A3000CDB7DEB76C01F62E29833A834B835C83C6
:103A4000BEDFC601D7DF6CE271E0C6019EDF8F2DBD
:103A5000806492DF08E110E05C814B813A8129812A
:103A6000DA01C901002E04C0B695A79597958795F0
:103A70000A94D2F729833A834B835C837DDF085015
:103A8000110929813A814B815C81083F8FEF18072A
:103A900039F7FF2029F0E8E0FE1204C087E803C0F0
:103AA00085E901C08FEF68DF10E06DDFF6018287E6
:103AB00087FF04C01F3F11F01F5FF7CF0F900F90DB
:103AC0000F900F90DF91CF911F910F91FF90DF909A
:103AD000CF900895AF92BF92CF92DF92EF92FF9274
:103AE0000F931F93CF93DF93EC016901C801820FFD
:103AF000931F8130924008F06AC08E81882371F054
:103B000088819981AA81BB81481759076A077B0779
:103B100029F48F819885C816D90698F5488359836A
:103B20006A837B838B85833039F089E0440F551F8E
:103B3000661F771F8A95D1F79A01AB0161E1CE012B
:103B40006EDF882319F083E08D8341C00E94DF106F
:103B50005B0119DF8A878F3F49F40E94DF106A19E1
:103B60007B096D327140A8F38FE003C08E3F29F0CE
:103B70008DE08D83CE01F5DE2AC018861F8281E09C
:103B80008E838F8198858C159D0538F4FCDE8F819E
:103B90009885019698878F83F4CF6701E00EF11E18
:103BA000CE14DF0429F0EFDEF60181936F01F8CF28
:103BB0008F819885080F191F18870F83898588239F
:103BC00019F00115124038F0CE01F9DE04C0CE0123
:103BD000C8DE80E001C081E0DF91CF911F910F919D
:103BE000FF90EF90DF90CF90BF90AF900895EF924D
:103BF000FF920F931F93CF93DF93EC01790141154F
:103C000051056105710511F482E134C08B85833063
:103C100039F089E0440F551F661F771F8A95D1F749
:103C20009A01AB0168E1CE01FADE882311F084E04D
:103C300021C08EEFA1DE87018EEFF81AF801819185
:103C40008F019ADE0E151F05C9F78FEF95DE8FEFF6
:103C500093DE99DE8A878F71853029F081E18D832B
:103C6000CE017FDE08C068E572E0CE018EDE8111F4
:103C700006C085E18D83CE0174DE80E010C020E0B7
:103C800030E0A9016DE0CE01CADE811103C07BDE08
:103C9000882311F084E1EECFCE0163DE81E0DF9175
:103CA000CF911F910F91FF90EF900895FC01DB01E0
:103CB00012968D919C9113979383828384EC93E069
:103CC0009183808314968C911497848315968C919C
:103CD0001597858316964D915D916D917C911997FD
:103CE00046835783608771871A964D915D916D91D8
:103CF0007C911D9742875387648775871E964D91E7
:103D00005D916D917C91519746875787608B718B40
:103D100052968C915297828B53964D915D916D91F5
:103D20007C915697438B548B658B768B57964D9130
:103D30005D916D917C915A97478B508F618F728FF7
:103D40005B968D919C915C97948F838F0895CF9310
:103D5000DF93EC01898D9A8D009739F09BD9898D7D
:103D60009A8D0E948A431A8E198EDF91CF91089501
:103D7000FC011382128288EE93E0A0E0B0E084831D
:103D80009583A683B78388EB92E091838083128E1C
:103D9000118E14860895EF92FF920F931F93CF9385
:103DA000DF93EC017B018A011B821A8288EE93E08B
:103DB000A0E0B0E08C839D83AE83BF8388EB92E06C
:103DC000998388838DE190E00E94F5429A8F898FD4
:103DD000009779F02DE1F701DC0101900D922A9511
:103DE000E1F74CE050E0B801CE010C960E943B4553
:103DF000188EDF91CF911F910F91FF90EF90089552
:103E0000CF93DF931F92CDB7DEB741E050E0BE0104
:103E10006F5F7F4F3DD8019719F4898190E002C010
:103E20008FEF9FEF0F90DF91CF910895FC01818D6F
:103E3000928D009709F0E4CF8FEF9FEF08950F93D5
:103E40001F93CF93DF93FC01818D928D0097B1F08A
:103E5000EF01D6DF8C010F3F8FEF180791F0898DAE
:103E60009A8DFC01428553856485758541505109C1
:103E7000610971090E941714C80105C080E090E033
:103E800002C08FEF9FEFDF91CF911F910F910895A7
:103E90000F931F93CF93DF938C01EB016BE7CE0160
:103EA0000E94B337F8010081118101151105A9F0B5
:103EB000F80162817381CE010E94C8376AE3CE01A6
:103EC0000E94B337BE01C80104960E94F937F80179
:103ED000008111810115110541F46DE7CE01DF91DB
:103EE000CF911F910F910C94B3376CE2CE010E94D9
:103EF000B337DBCF0F931F93CF93DF931F92CDB7D1
:103F0000DEB78C01FC018081918169830E94C836F3
:103F1000FC0120816981261308C001960E94C836E1
:103F2000F8019183808381E001C080E00F90DF91F0
:103F3000CF911F910F9108950F931F93CF93DF930C
:103F4000EC018B01209759F0B8018A819B810E9476
:103F50002B45892B39F00990D881C02DF3CF80E013
:103F600090E001C0CE01DF91CF911F910F91089594
:103F7000EF92FF920F931F93CF93DF93CDB7DEB7EE
:103F80002A970FB6F894DEBF0FBECDBF8C01FB01A0
:103F9000BA0182819381D0DF7C016FEC77E0C801A8
:103FA000E114F10439F10E94AE34F7018481958166
:103FB0000197029748F4668177816115710521F0B8
:103FC000C8010E94133418C01C821B8280EB92E04F
:103FD0009A8389831E830D83CE01019698878F83F0
:103FE0001A861986BE01695F7F4FC70104960E9439
:103FF000F93702C00E94AE34C8012A960FB6F89471
:10400000DEBF0FBECDBFDF91CF911F910F91FF900B
:10401000EF90089568ED73E08AE59BE00E94133409
:1040200080EC9BE00E94C71161E080E00E94D539DE
:104030006AEE75E080EC9BE00E94E9340E94F4395E
:104040000C94EA39CF93DF93CDB7DEB76E970FB6F6
:10405000F894DEBF0FBECDBFAC0120912D0A309188
:104060002E0AF901EE0FFF1FE85EFD4F608171819E
:10407000E0911908F0911A0880911708909118089A
:10408000309709F084C0DC0181309105F1F4209172
:10409000330A3091340A4130510551F42831310549
:1040A00014F4D9011196B093340AA093330A7FC057
:1040B000223031051CF02150310902C028E130E0E6
:1040C0003093340A2093330A72C084309105F1F49E
:1040D0002091310A3091320A4130510551F42B338D
:1040E000310514F4F9013196F093320AE093310A64
:1040F0005EC0121613061CF42150310902C02BE3D6
:1041000030E03093320A2093310A51C08A30910551
:1041100001F54130510551F42B30310514F4F9010A
:104120003196F0932E0AE0932D0A0CC01216130656
:104130001CF42150310902C02BE030E030932E0AEC
:1041400020932D0A81E090E09093360A8093350AFF
:104150002EC00D9761F52091350A3091360A413015
:10416000510549F4261737071CF42F5F3F4F0AC04B
:1041700021E030E007C0223031051CF02150310928
:1041800001C09B013093360A2093350A10C0039773
:1041900071F48091580B9091590B4130510511F4F5
:1041A000019601C001979093590B8093580B80ECB6
:1041B0009BE00E94C7110E94202F60E47BE0CE01AB
:1041C00049960E94A634E0912D0AF0912E0AEE0F36
:1041D000FF1FE058FC4F60817181CE0143960E9421
:1041E000AE3466E47BE0CE010D960E94A6346CE40A
:1041F0007BE0CE0101960E94A634BE016F5F7F4F27
:10420000CE0107960E94A6346BEE73E0CE010796AE
:104210000E94EB33BE01635F7F4F0E9402346DEE5C
:1042200073E00E94EB33BE016D5E7F4F0E9402344B
:1042300068E476E00E94EB33BE01675E7F4F0E9428
:1042400002340E94FC3ACE0107960E947634CE01D9
:1042500001960E947634CE010D960E947634CE01EE
:1042600043960E947634CE0149960E94763461E0EE
:1042700080E00E94D5396091580B7091590B4AE04B
:10428000CE0101960E947B34BE016F5F7F4FCE014D
:1042900007960E94A63461EF73E0CE0107960E9454
:1042A000EB330E94FC3ACE0107960E947634CE0191
:1042B00001960E94763460911908809117080E9437
:1042C000D5396E960FB6F894DEBF0FBECDBFDF9125
:1042D000CF910895CF93DF93CDB7DEB762970FB636
:1042E000F894DEBF0FBECDBF20911708309118089B
:1042F0008130910521F42330310529F038C0283070
:104300003105D9F038C06091160270911702665FCE
:104310007F4F7093170260931602409114025091E0
:104320001502FA01F1976E177F070CF1465F5F4F98
:1043300050931502409314021AC0609114027091B8
:1043400015026A507109709315026093140240912E
:10435000160250911702FA01F196E617F7075CF082
:104360004A505109509317024093160204C0283056
:104370003105C9F403C023303105A9F4019751F484
:1043800080911402909115020A96909315028093E1
:10439000140209C080911602909117020A97909317
:1043A00017028093160280EC9BE00E94C711609177
:1043B0001402709115024AE0CE010D960E947B34E2
:1043C00060911602709117024AE0CE0101960E9498
:1043D0007B34BE016F5F7F4FCE0107960E94A634EB
:1043E00069EE77E0CE0107960E94EB33BE01635F72
:1043F0007F4F0E9402346EEF73E00E94EB330E9405
:10440000FC3ACE0107960E947634CE0101960E94B6
:104410007634CE010D960E94763461E080E00E94F1
:10442000D53966E074E080EC9BE00E94E93460E0FE
:10443000809117080E94D53962960FB6F894DEBFB6
:104440000FBECDBFDF91CF9108950F931F93CF93F0
:10445000DF93CDB7DEB7CB59D1090FB6F894DEBFE5
:104460000FBECDBF8B01FC016081718143E1CE01A4
:104470008F579F4F0E94FE3940E850E0BE016F5FAA
:104480007F4FC8010E94EE2EBE016F5F7F4FCE01AD
:104490008F579F4F0E94E934CE018F579F4F57DCB3
:1044A000C556DF4F0FB6F894DEBF0FBECDBFDF910C
:1044B000CF911F910F9108950F931F93CF93DF9387
:1044C00000D000D0CDB7DEB78C016FEC77E08AEB7F
:1044D0009BE00E9413340115110509F448C0209196
:1044E0001D0830911E08C801820F931F8532910567
:1044F0002CF010921E0810921D0808C097FF02C0F1
:1045000084E290E090931E0880931D08E0911D08BE
:10451000F0911E08EE0FFF1FEA5CFC4F6081718175
:1045200080EC9BE00E94E934009117081091180874
:1045300060911908802F0E94D53962E370E080E015
:1045400090E00E94A710E0911D08F0911E08EE0F68
:10455000FF1FEA5CFC4F6081718126E0209FC00153
:10456000219F900D1124805A944F0E94133400E62D
:104570001BE06AEB7BE0CE0101960E94A634B801F5
:10458000CE0101960E940234BC018AEB9BE00E949E
:104590002834CE0101960E9476340A5F1F4F8BE0CB
:1045A0000A3B180731F760911908809117080E949B
:1045B000D53926960FB6F894DEBF0FBECDBFDF917A
:1045C000CF911F910F910895CF92DF92EF92FF92BA
:1045D0000F931F93CF93DF93CDB7DEB72D970FB611
:1045E000F894DEBF0FBECDBF7C010E94F439F70105
:1045F000008111816BEF75E0C8010E944A456C0192
:1046000061E076E0C8010E944A45CD28C1F067E02C
:1046100076E080EC9BE00E94E93461E080E00E945B
:10462000D53960911508709116086F5F7F4F4AE089
:10463000CE0107960E947B346EE076E01DC0892B88
:1046400021F400ED12E020E03BC067E176E080EC71
:104650009BE00E94E93461E080E00E94D5396091DE
:104660001508709116086F5F7F4F4AE0CE010796DC
:104670000E947B346FE176E0CE0101960E94AE3459
:10468000BE01695F7F4FCE0101960E9402340E94F5
:10469000FC3ACE0101960E947634CE0107960E9424
:1046A00076340E94F4392EC0F80160817181C7010F
:1046B0002D870E949F332D85811107C00A5F1F4FF0
:1046C000F3E006331F0781F718C0F8016281738198
:1046D00080EC9BE00E94E934F801C480D580C114CD
:1046E000D10449F061E080E00E94D539B60180EC48
:1046F0009BE00E94E93421E0E1CF211103C0C70112
:104700000E94FC3A2D960FB6F894DEBF0FBECDBFC7
:10471000DF91CF911F910F91FF90EF90DF90CF909D
:104720000895AF92BF92CF92DF92EF92FF920F93D4
:104730001F93CF93DF9300D000D0CDB7DEB78C01AD
:104740006FEC77E00E94AE34C12CD12CE12CF12C1F
:104750008091360B9091370BE816F90618F5A0906A
:10476000320BB090330BAC0CBD1CB801CE010196DE
:104770000E94A63469EE73E0CE0101960E94EB33ED
:10478000B5010E940234BC01C8010E942834CE0148
:1047900001960E9476348FEFE81AF80A86E0C80E78
:1047A000D11CD6CFC80126960FB6F894DEBF0FBE37
:1047B000CDBFDF91CF911F910F91FF90EF90DF90D0
:1047C000CF90BF90AF9008959F92AF92BF92CF923B
:1047D000DF92EF92FF920F931F93CF93DF93CDB7AA
:1047E000DEB7C258D1090FB6F894DEBF0FBECDBFF9
:1047F0008C0160E070E089E39BE073D784ECC82E05
:1048000083E0D82E9EE2992E2BE5E22EF12CEC0EC1
:10481000FD1E8CE0E80EF11CF801A18CB28CF501B4
:104820008581823008F46EC0F50182859385A48568
:10483000B5858F719927AA27BB27892B8A2B8B2BAC
:1048400009F060C040E250E0BE016F5F7F4FC501DC
:104850000E944817803209F055C08981882309F4E5
:1048600051C0853E79F38E3269F38C8583FDEACFA2
:1048700022961FAE1EAE2297DFAECEAE24961FAE9E
:104880002497FE01319690E020E08191803291F0F2
:10489000283041F4A6E7B0E0AC0FBD1FA90FB11D51
:1048A0009C929F5FA6E7B0E0AC0FBD1FA90FB11DA2
:1048B0008C939F5F2F5F2B3041F7E6E7F0E0EC0F22
:1048C000FD1FE90FF11D1082F801618D728D21E04D
:1048D000AE014A585F4FCE01CE960E94C71888237A
:1048E00089F0BE01625C7F4FCE018196DFD9AE01B7
:1048F0004A585F4FBE016F5D7F4FCE01855A9F4F73
:104900004ADA04C0CE01855A9F4F32DAE696EEAD00
:10491000FFADE697309701F185818823E9F0823079
:1049200028F4CE01855A9F4F12DA76CFB701CE0117
:1049300001960E94AE3460913D0B70913E0B6F5F0B
:104940007F4FAE014F5F5F4F89E39BE006D7CE01FB
:1049500001960E947634E5CFCE57DF4F0FB6F8941C
:10496000DEBF0FBECDBFDF91CF911F910F91FF90A2
:10497000EF90DF90CF90BF90AF909F90089560E050
:104980008FE00E94D53960E080EC9BE00E94C0116E
:104990006FE08FE00E94D53961E080EC9BE00E94DF
:1049A000C0110C94F439CF93DF9300D000D0CDB771
:1049B000DEB72091150830911608820F931F90934F
:1049C00016088093150820913D0B30913E0B215025
:1049D000310997FF05C0309316082093150807C0CA
:1049E0002817390724F4109216081092150880EC45
:1049F0009BE00E94C711209115083091160846E0EF
:104A0000429FC001439F900D11246091390B70911A
:104A10003A0B680F791FCE0101960E94A634CE0191
:104A20000196D2DDCE0101960E947634A8DF6EE5B4
:104A300071E080E090E00E94A71026960FB6F894EF
:104A4000DEBF0FBECDBFDF91CF9108950F931F93AF
:104A5000CF93DF93CDB7DEB7C654D4400FB6F894EA
:104A6000DEBF0FBECDBF41E06EE274E0CE018B5FD2
:104A70009B4F0E94FE39C25EDB4FE881F981CE5127
:104A8000D440309709F48DC08581882309F489C00A
:104A90000E94C73544E556E0BC01CE018F5B9B4FB9
:104AA00067DABE016F5B7B4F8AEB9BE00E94283484
:104AB00066E67AE18091BA0B9091BB0B8DD3882387
:104AC00009F468C06FEC77E08AE59BE00E9413343C
:104AD00069EE73E0CE0101960E94AE346AEB7BE092
:104AE000CE0101960E940234FC016081718141E097
:104AF000CE018B5F9D4F0E94FE39CE0101960E9430
:104B00007634BE016B5F7D4FCE0101960E949B35CE
:104B1000CE01019659DEBE016B5F7D4FCE01805EF6
:104B20009B4F0E949B3588EC92E09A838983CD5FEE
:104B3000DD4F19821882C350D240BE01605E7B4FA8
:104B4000CE01855C9B4F0E94C234BE01655C7B4FE9
:104B5000CE01019605D38C01CE01855C9B4F0E944E
:104B6000763462EC74E0F80182819381E5D9009794
:104B700021F004960E94053602C060E070E0709358
:104B80001C0860931B08CE018B5F9D4FE0D80E94EC
:104B9000153D01C03FDACE018F5B9B4F0E947634FA
:104BA0009FC088EC92E09A838983CD5FDD4F1982A4
:104BB0001882C350D240CE0101960E9406378C0164
:104BC00043E16EE274E0CE018B5F9D4F0E94FE399F
:104BD000C95FDD4F88819981C750D240C95FDB4FE3
:104BE00099838883C750D440C75FDD4F88819981FE
:104BF000AA81BB81C950D240C75FDB4F88839983AC
:104C0000AA83BB83C950D440C35FDD4F888199819B
:104C1000AA81BB81CD50D240C35FDB4F888399838B
:104C2000AA83BB83CD50D4409DE0E5E0F2E0EC0FD9
:104C3000FD1F3C96A5E0B4E0AC0FBD1F1C96019093
:104C40000D929A95E1F7C25EDD4F88819981CE5130
:104C5000D240C25EDB4F99838883CE51D44040E07E
:104C600052E0BE016B5F7D4FC8010E94EE2EBE0177
:104C70006B5F7D4FCE018B5F9B4F0E94E934CE016D
:104C80008B5F9B4F64D868E276E080EC9BE00E94EB
:104C9000E93461E080E00E94D53969E376E080EC98
:104CA0009BE00E94E93460ED77E080E090E00E94B4
:104CB000A71080EC9BE00E94C7110E94F4396AE4BF
:104CC00076E080EC9BE00E94E93460ED77E080E0E4
:104CD00090E00E94A71080EC9BE00E94C7119AD937
:104CE000CE018B5F9B4F33D8CA5BDB4F0FB6F89476
:104CF000DEBF0FBECDBFDF91CF911F910F91089501
:104D0000DF92EF92FF920F931F93CF93DF93CDB774
:104D1000DEB728970FB6F894DEBF0FBECDBF8091E7
:104D2000E10B882309F446C084EE8093BC00809197
:104D3000BC0087FFFCCF80ED8093BB0084EC8093A8
:104D4000BC008091BC0087FFFCCF1092BB0084ECBC
:104D50008093BC008091BC0087FFFCCF84EE8093E1
:104D6000BC008091BC0087FFFCCF81ED8093BB002D
:104D700084EC8093BC008091BC0087FFFCCFEAEDFF
:104D8000FBE094EC9093BC008091BC0087FFFCCFCB
:104D90008091BB0081937BE0E13EF70799F784E8BF
:104DA0008093BC008091BC0087FFFCCF84E9809396
:104DB000BC0069C080ED0E94343B0E941F3B80E034
:104DC0000E94623B0E941F3B81ED0E94343B0E9487
:104DD0001F3B00E010E060E08091D90B0E946B1057
:104DE00087E0E82EF12CD12C61E08091D80B0E9455
:104DF0003C108091D90B0E94141099270E2C01C0F1
:104E0000880F0A94EAF7D82A60E08091D80B0E94B4
:104E10003C1081E0E81AF10838F7F801E852F44F45
:104E2000D28261E08091D90B0630110549F00E94D1
:104E30006B1060E08091D80B0E943C1060E008C0CD
:104E40000E946B1060E08091D80B0E943C1061E0E2
:104E50008091D90B0E943C1061E08091D80B0E9498
:104E60003C1060E08091D80B0E943C1060E0809183
:104E7000D90B0E946B100F5F1F4F0730110509F00F
:104E8000AACF0E94053B8091DA0B482F46954695A4
:104E900046954E70942F990F990F490F8F70480FB8
:104EA0008091DB0B382F3695369536953E70932FD3
:104EB000990F990F390F8F70380F8091DC0B282FC5
:104EC0002F7087FF08C085FB992790F98CE0989F89
:104ED000200D112409C08073869586958695982F9C
:104EE000990F990F890F280FE091DD0B6091DE0B70
:104EF0007091DF0B8091E00B562F56955695569585
:104F00005E70952F990F990F590F6F70560F672F7D
:104F10006695669566956E70962F990F990F690F35
:104F20007F70670F982F92959F708F707AE0979F90
:104F3000800D112490E08053984F9F838E83782FAB
:104F40008F819E2F28960FB6F894DEBF0FBECDBF7F
:104F5000DF91CF911F910F91FF90EF90DF90089517
:104F60009F92AF92BF92CF92DF92EF92FF920F93F8
:104F70001F93CF93DF9300D000D0CDB7DEB7FC01F5
:104F80009681992309F4D8C06B017F0191509683D3
:104F9000828193810E94C836F70193838283FC014A
:104FA00080818B3521F08B3709F499C0A3C0F701BC
:104FB00000811181B80184E090E00E94F7360097EB
:104FC00039F0FC0111830083138212828C0111C01D
:104FD0008091250A81110BC01092220A1092210A99
:104FE0001092240A1092230A81E08093250A01E29C
:104FF0001AE05701F2E0AF0EB11C6BE5C5010E944B
:105000007A1F882309F44BC06DE5C5010E947A1F01
:10501000811156C086E0982E1A821982BE016F5FF8
:105020007F4FC7019DDF8823D1F1F8016081718135
:1050300088E090E00E94F736DC01892B39F0119668
:105040001C921E9213961C921E921297F8012281B6
:1050500033812115310551F0F9018081918100974B
:1050600011F09C01F9CFB183A08303C0F801B38391
:10507000A2831097A1F0FE0131961296892D01901E
:105080000D928A95E1F76DE5C5010E947A1F8111A5
:1050900017C06CE2C5010E947A1F8111BDCF8091BB
:1050A000250A81110BC01092220A1092210A109237
:1050B000240A1092230A81E08093250A01E21AE073
:1050C000F80180819181892B11F410E030C086E0D5
:1050D00090E0F601918380831383028327C0C70188
:1050E0000E942937FC0120813181232B71F327E0B5
:1050F00030E017C011E0873219F0823209F010E079
:10510000C7010E947136009701F3112341F022E09C
:1051100030E0F601318320839383828308C021E04D
:1051200030E0F601318320839383828311E0F7011D
:1051300086818F5F868301C010E0812F26960FB68F
:10514000F894DEBF0FBECDBFDF91CF911F910F91BD
:10515000FF90EF90DF90CF90BF90AF909F90089519
:105160000F931F93CF93DF93CDB7DEB727970FB67B
:10517000F894DEBF0FBECDBF8C01FB016081718151
:105180006115710559F0FB0101900020E9F7319795
:10519000AF01461B570B0E945136BC011A8309838D
:1051A0006115710511F0CB0102C08FEC97E09C8373
:1051B0008B837E836D838AE08F83CE0101960E946C
:1051C000293727960FB6F894DEBF0FBECDBFDF910B
:1051D000CF911F910F9108956F927F928F929F921E
:1051E000AF92BF92CF92DF92EF92FF920F931F93F5
:1051F000CF93DF93CDB7DEB7C754D1090FB6F8947C
:10520000DEBF0FBECDBF6C015B0119A218A284ECFA
:1052100093E09F8F8E8F1BA21C821B829A838983AF
:105220001E82812C912C7E018EE1E80EF11C0CE097
:105230001BE0772473949401F601E80DF91D808139
:105240008F3211F42F5F3F4FFE01FB9680E090E01C
:10525000D601A20FB31F4C914F3249F0442339F0CD
:1052600001962F5F3F4F41938C30910589F7EBE317
:10527000F0E0EC0FFD1FE80FF91F1082F601E20FBE
:10528000F31F80818F3211F42F5F3F4F4901F601E8
:10529000E20FF31F662463948081811101C0612CA9
:1052A00020E030E0462D4725BE01655C7F4FC801F8
:1052B000F5011995811109C0FBE00C301F0719F0A9
:1052C000C8010E944A1880E029C06620C1F021E090
:1052D000AE01455C5F4FB801C7010E94C718682E38
:1052E0008BE00C301807A1F0C8010E944A18662014
:1052F00051F3902F812F8701E92EF82E9CCFEBE000
:105300000C301E0719F0C8010E944A1881E006C03F
:105310006620C9F28E010F5F1F4FEBCFC95BDF4FD5
:105320000FB6F894DEBF0FBECDBFDF91CF911F91B6
:105330000F91FF90EF90DF90CF90BF90AF909F9034
:105340008F907F906F9008958F929F92AF92BF92AF
:10535000CF92DF92EF92FF92CF93DF93C82F82EE2E
:105360009AE09093200A80931F0ACC2369F1C530FC
:1053700010F080E00DC140E060E070E0CB010E94E1
:1053800009128823B1F320E1C29FC0011124815F7B
:10539000974FFC01E254FE4F20812F7751F73C9646
:1053A00040815181628173814436510561057105E7
:1053B00000F33497C080D180E280F380C114D1041F
:1053C000E104F10421F4D5CFC12CD12C760140E0C9
:1053D000C701B6010E940912882359F280912A0858
:1053E00090912B088115924021F6A0912F08AA23B5
:1053F00009F4BFCF60912D0870912E0861157105D9
:1054000009F4B7CF20912C08222309F4B2CFA0933E
:10541000000B2093F20A80E030E0E1E0F0E0C82FDA
:10542000AF01082E02C0440F551F0A94E2F724175B
:10543000350741F0982F8F5F983089F789E0809386
:10544000FB0A97CF8093FB0A2091350830913608EC
:105450002115310519F040E050E008C020914308C3
:105460003091440840914508509146082093F30A32
:105470003093F40A4093F50A5093F60A4601570117
:10548000860E971EA11CB11C8092010B9092020BFC
:10549000A092030BB092040BE0913008F091310818
:1054A000F093070BE093060BB0E00E941E48860EB7
:1054B000971EA81EB91E8092080B9092090BA0920D
:1054C0000A0BB0920B0B85E0EE0FFF1F8A95E1F7F8
:1054D000E150FE4FEF2FFF27E6958E0E9F1EA11C79
:1054E000B11C8092FC0A9092FD0AA092FE0AB09232
:1054F000FF0A20913208309133082115310521F03F
:10550000A90160E070E008C040913F085091400858
:105510006091410870914208D701C6018819990924
:10552000AA09BB09840F951FA61FB71F04C0B69513
:10553000A79597958795CA95D2F78093F70A909388
:10554000F80AA093F90AB093FA0A853F2FE0920770
:10555000A105B10510F48CE018C0853F9F4FA1054F
:10556000B10510F480E111C080914B0890914C0876
:10557000A0914D08B0914E088093080B9093090BB1
:10558000A0930A0BB0930B0B80E28093050B81E094
:10559000DF91CF91FF90EF90DF90CF90BF90AF90D1
:1055A0009F908F900895EF92FF920F931F93CF9348
:1055B000DF93EC01623018F08F8588608F876B8BEA
:1055C0001C8A80E48D8B80E18E8B80E58F8B61E07F
:1055D0008C810E946B108D818F3F19F061E00E94D9
:1055E0006B1061E08E810E946B107E0187E0E80EF7
:1055F000F11C00E010E08F8584FD03C084E090E0A2
:1056000002C088E090E0081719074CF461E0F70148
:1056100081917F010E946B100F5F1F4FECCF8BE3D6
:105620009DE00197F1F760E08C810E943C1060E002
:105630008E810E943C108D818F3F19F060E00E94A6
:105640003C106F8564FD1DC063E0CE010E944811CF
:105650000BE416E4C8010197F1F763E0CE010E9464
:105660004811C8010197F1F763E0CE010E9448118B
:1056700083E592E00197F1F762E0CE010E944811C4
:1056800016C06062CE010E94C5118BE496E40197BA
:10569000F1F76F856062CE010E94C51183E592E04B
:1056A0000197F1F76F856062CE010E94C5116F8589
:1056B0006062CE010E94C51184E0888B6CE0CE014F
:1056C0000E94C511CE010E94C71182E0898B66E05D
:1056D000CE01DF91CF911F910F91FF90EF900C942D
:1056E000C511AF92BF92CF92DF92EF92FF920F93CC
:1056F0001F93CF93DF93FC012481358162177307D9
:1057000008F56B01EC0186E0869F5001879FB00C85
:1057100011248B01E12CF12C8C819D810817190734
:1057200078F4C7018A0D9B1D28813981820F931F50
:105730000E9476340F5F1F4FF6E0EF0EF11CECCFA6
:10574000DD82CC82DF91CF911F910F91FF90EF907E
:10575000DF90CF90BF90AF9008956F927F928F921D
:105760009F92AF92BF92CF92DF92EF92FF920F93F0
:105770001F93CF93DF93FC012481358126173707D0
:1057800008F06FC07A018B01EC012281338126176A
:105790003707B0F5CB0108962817390788F58080C0
:1057A00091809383828326E0AC01249FC001259FD2
:1057B000900D11240E94F54299838883C12CD12C2D
:1057C000A12CB12C8C819D81A816B906B0F43401AE
:1057D0006C0C7D1C888199818C0D9D1D009719F0A2
:1057E000B3010E94A634C3010E9476345FEFA51A6C
:1057F000B50A86E0C80ED11CE5CFC4010E948A43D9
:10580000CC80DD8086E08C9D50018D9DB00C1124F4
:10581000812C912CC016D10698F428813981C401BD
:105820008A0D9B1D820F931F009719F0B7010E94EC
:10583000A634EFEFCE1ADE0AF6E08F0E911CEACF07
:105840001D830C83DF91CF911F910F91FF90EF90FB
:10585000DF90CF90BF90AF909F908F907F906F9090
:105860000895DF91CF911F910F91FF90EF90DF90FE
:10587000CF90BF90AF909F908F907F906F9031CFDF
:10588000EF92FF920F931F93CF93DF93EC017B0175
:10589000FB01048115811D830C83C80108969B833D
:1058A0008A83880F991F0E94F54288839983FC019F
:1058B00020E030E02017310791F0E701A881B9819D
:1058C000C901880F991FA80FB91F309721F08D913A
:1058D0009C91918380832F5F3F4F3296EBCFDF9176
:1058E000CF911F910F91FF90EF900895CF92DF928B
:1058F000EF92FF920F931F93CF93DF93EC017B0105
:10590000FB01848195819D838C8308969B838A8388
:1059100027E0AC01249FC001259F900D11240E9417
:10592000F5429983888300E010E0C12CD12C8C8152
:105930009D81C816D90690F4F70160817181600FCE
:10594000711F88819981800F911F009709F098DF5E
:10595000FFEFCF1ADF0A095F1F4FE9CFDF91CF9129
:105960001F910F91FF90EF90DF90CF900895CF930C
:10597000DF93EC01688179818AE090E00E94F7363C
:10598000009729F0FC011182108215821482EA81AD
:10599000FB81309751F0208131812115310511F0C3
:1059A000F901F9CF9183808302C09B838A83DF91C1
:1059B000CF910895AF92BF92CF92DF92EF92FF9274
:1059C0000F931F93CF93DF93CDB7DEB768970FB6D2
:1059D000F894DEBF0FBECDBF7C01FB0162817381F5
:1059E0000190F081E02D828193810E949C1F00979D
:1059F00069F026E0FC013496DE01119601900D92CB
:105A00002A95E1F7FC010481158102C000E010E055
:105A10001A83098386E0FE013196DE011796019014
:105A20000D928A95E1F718870F8386E0FE0137967D
:105A3000DE011D9601900D928A95E1F71E870D8774
:105A400086E0FE013D96DE01539601900D928A9507
:105A5000E1F7F701C280D380A080B180B601F501E3
:105A6000828193810E949C1FDC01892B49F4C5012E
:105A70007EDFDC01892B71F01396DC92CE921297B7
:105A80001C8B0B8B86E0FE017396149601900D9291
:105A90008A95E1F7C70168960FB6F894DEBF0FBE8E
:105AA000CDBFDF91CF911F910F91FF90EF90DF90CD
:105AB000CF90BF90AF900895FC0124813581215093
:105AC0003048220F331F80819181820F931F0895E8
:105AD000CF92DF92EF92FF920F931F93CF93DF93BA
