:1000000008C1000034C1000032C1000030C100004E
:100010002EC100002CC100002AC1000028C1000030
:1000200026C1000024C1000022C1000020C1000040
:100030001EC100001CC100001AC1000018C1000050
:1000400016C1000014C1000012C1000010C1000060
:100050000EC100000CC100000AC1000045C4000030
:1000600006C100000BC40000E0C3000000C1000096
:10007000FEC00000FCC00000FAC00000F8C0000094
:10008000F6C00000F4C00000F2C00000F0C00000A4
:10009000EEC00000ECC00000EAC00000E8C00000B4
:1000A000E6C00000E4C00000E2C00000E0C00000C4
:1000B000DEC00000DCC00000DAC00000D8C00000D4
:1000C000D6C00000D4C00000D2C00000D0C00000E4
:1000D000CEC00000CCC00000CAC00000C8C00000F4
:1000E000C6C00000A702AA0299029D02A102E10275
:1000F000AE02B202B802BC02C002C602CA02CE02FE
:10010000E102D402D802DC0200000A0B02090C0D45
:100110000E080703040100000000000000000000BA
:1001200000000000000000000000000000000000CF
:10013000000000001211100000000000000000008C
:1001400000000000000000000000000000000000AF
:100150002200250028002B002E003100340002016F
:100160000000050108010B01000021002400270008
:100170002A002D00300033000101000004010701B6
:100180000A0105050505070508080808020202021C
:100190000A0A080804040404010101010101010123
:1001A0000303030303030303040707070C0C0C0CEE
:1001B0000C0C0C0C020202020606060606060606D7
:1001C0000B0B0B0B0B0B0B0B010210202008081064
:1001D00020401020408002010201080402010102B7
:1001E0000408102040808040201008040201800490
:1001F00002018040201008040201080402010102EB
:100200000408102040800102040810204080BE0431
:10021000810611241FBECFEFD1E2DEBFCDBF00E0CB
:100220000CBF12E0A0E0B2E0E0EAFFE000E00BBFAC
:1002300002C007900D92A834B107D9F723E0A8E4D3
:10024000B2E001C01D92A731B207E1F711E0C8E0AA
:10025000D1E000E005C021970109802FFE0156D5AD
:10026000C730D10780E00807B1F7E2D388C6C8CE0F
:1002700090E0FC01E853FE4F2491FC01EE57FE4F45
:100280008491882399F090E0880F991FFC01E85928
:10029000FE4FA591B491FC01E25BFE4F85919491D4
:1002A0008FB7F894EC91E22BEC938FBF0895CF9227
:1002B000DF92EF92FF920F931F93CF93DF936C0126
:1002C0007A018B01C0E0D0E0CE15DF0589F0D801BE
:1002D0006D918D01D601ED91FC910190F081E02DA1
:1002E000C6011995892B11F47E0102C02196ECCF2D
:1002F000C701DF91CF911F910F91FF90EF90DF9099
:10030000CF900895FC01918D828D981761F0828DB8
:10031000DF01A80FB11D5D968C91928D9F5F9F7339
:10032000928F90E008958FEF9FEF0895FC01918DDB
:10033000828D981731F0828DE80FF11D858D90E048
:1003400008958FEF9FEF0895FC01918D228D892FE5
:1003500090E0805C9F4F821B91098F7399270895CD
:1003600085E592E0F1DF21E0892B09F420E0822F7E
:100370000895FC01848DDF01A80FB11DA35ABF4F62
:100380002C91848D90E001968F739927848FA68994
:10039000B7892C93A089B1898C9180648C93938DBB
:1003A000848D981306C00288F389E02D80818F7DAB
:1003B00080830895EF92FF920F931F93CF93DF9363
:1003C000EC0181E0888F9B8D8C8D981305C0E889A6
:1003D000F989808185FD23C0F62E0B8D10E00F5F1B
:1003E0001F4F0F731127E02E8C8DE8120BC00FB634
:1003F00007FCFACFE889F989808185FFF5CFCE0126
:10040000B8DFF2CF8B8DFE01E80FF11DE35AFF4FED
:10041000F0820B8FEA89FB898081806207C0EE89B8
:10042000FF896083E889F98980818064808381E025
:1004300090E0DF91CF911F910F91FF90EF90089581
:10044000CF93DF93EC01888D8823C1F0EA89FB8983
:10045000808185FD05C0A889B9898C9186FD0EC073
:100460000FB607FCF5CF808185FFF2CFA889B98947
:100470008C9185FFEDCFCE017CDFE8CFDF91CF916E
:10048000089580E090E0892B19F06ADF811125C082
:1004900080E090E0892B41F080E090E0892B21F012
:1004A0000E94000081111CC080E090E0892B41F087
:1004B00080E090E0892B21F00E940000811113C0A0
:1004C00080E090E0892BA1F080E090E0892B81F022
:1004D0000E94000081110AC008950E940000D8CF38
:1004E0000E940000E1CF0E940000EACF0C940000BF
:1004F0000895362F90E0FC01E85FFE4F4491FC0127
:10050000E853FE4F2491FC01EE57FE4F949199233E
:1005100009F46AC0442309F454C050E0FA01319749
:10052000E231F10508F04DC08827EE58FF4F8F4F9C
:10053000EDC3809180008F7707C0809180008F7D10
:1005400003C080918000877F809380003AC084B58B
:100550008F7702C084B58F7D84BD33C08091B00099
:100560008F7703C08091B0008F7D8093B00029C049
:10057000809190008F7707C0809190008F7D03C09D
:1005800080919000877F809390001BC08091A00095
:100590008F7707C08091A0008F7D03C08091A0005D
:1005A000877F8093A0000DC0809120018F7707C0C6
:1005B000809120018F7D03C080912001877F8093EF
:1005C0002001E92FF0E0EE0FFF1FE25BFE4FA59147
:1005D000B4918FB7F894EC91311103C020952E237C
:1005E00001C02E2B2C938FBF0895CF93DF93EC0186
:1005F00060E08E817EDF61E08E817BDF60E08E8156
:1006000078DF8BE891E00197F1F7DF91CF910895C2
:10061000CF92DF92EF92FF920F931F93CF93DF93CE
:100620007C016C0187E0C80ED11CC0E0D0E0062F31
:1006300010E0B8010C2E02C0759567950A94E2F798
:100640006170F60181916F0154DF2196C430D105AC
:1006500081F7C701DF91CF911F910F91FF90EF902C
:10066000DF90CF90C2CFCF92DF92EF92FF920F93A5
:100670001F93CF93DF93EC01F62E642F8C8139DF2B
:100680008D818F3F11F060E034DF8F850F2D10E0FA
:1006900084FF23C06E0187E0C80ED11CE12CF12C31
:1006A000B8010E2C02C0759567950A94E2F7617047
:1006B000F60181916F011DDFFFEFEF1AFF0A88E05D
:1006C000E816F10469F7CE01DF91CF911F910F91E8
:1006D000FF90EF90DF90CF9088CFB80184E07595C0
:1006E00067958A95E1F7CE0193DF6F2DCE01DF91FB
:1006F000CF911F910F91FF90EF90DF90CF9088CF17
:1007000041E0B1DF81E090E0089540E0ACCFEF92AE
:10071000FF920F931F93CF93DF93EC01623018F099
:100720008F8588608F876B8B1C8A80E48D8B80E13E
:100730008E8B80E58F8B8C819BDD8D818F3F09F0C7
:1007400097DD8E8195DD7E0187E0E80EF11C00E0EB
:1007500010E08F8584FD03C084E090E002C088E053
:1007600090E0081719073CF4F70181917F0180DDC3
:100770000F5F1F4FEECF8BE39DE00197F1F760E035
:100780008C81B7DE60E08E81B4DE8D818F3F11F009
:1007900060E0AFDE6F8564FD19C063E0CE0138DF35
:1007A0000BE416E4C8010197F1F763E0CE0130DFF6
:1007B000C8010197F1F763E0CE012ADF83E592E0FB
:1007C0000197F1F762E0CE0123DF13C06062CE0132
:1007D0009CDF8BE496E40197F1F76F856062CE01B0
:1007E00094DF83E592E00197F1F76F856062CE01B7
:1007F0008CDF6F856062CE0188DF84E0888B6CE0DF
:10080000CE0183DF61E0CE0180DF8BE39FE10197C2
:10081000F1F782E0898B66E0CE01DF91CF911F91E5
:100820000F91FF90EF9071CFA6D31F920F920FB64A
:100830000F9211240BB60F922F933F934F935F9318
:100840006F937F938F939F93AF93BF93EF93FF9398
:1008500085E592E08EDDFF91EF91BF91AF919F9181
:100860008F917F916F915F914F913F912F910F9059
:100870000BBE0F900FBE0F901F9018951F920F92F6
:100880000FB60F9211240BB60F922F938F939F9355
:10089000EF93FF93E0916502F09166028081E09111
:1008A0006B02F0916C0282FD12C0908180916E0209
:1008B0008F5F8F7320916F02821751F0E0916E026B
:1008C000F0E0EB5AFD4F958F80936E0201C080815E
:1008D000FF91EF919F918F912F910F900BBE0F90F1
:1008E0000FBE0F901F9018951F920F920FB60F9288
:1008F00011242F933F938F939F93AF93BF93809136
:100900004D0290914E02A0914F02B0915002309151
:100910004C0223E0230F2D3720F40196A11DB11DB9
:1009200005C026E8230F0296A11DB11D20934C029D
:1009300080934D0290934E02A0934F02B0935002C9
:100940008091480290914902A0914A02B0914B02D5
:100950000196A11DB11D8093480290934902A09376
:100960004A02B0934B02BF91AF919F918F913F91FB
:100970002F910F900FBE0F901F901895CF93DF937C
:10098000E5E5F2E01382128288EE93E0A0E0B0E0A9
:1009900084839583A683B7838AE192E091838083E1
:1009A00085EC90E09587848784EC90E09787868734
:1009B00080EC90E0918B808B81EC90E0938B828B2C
:1009C00082EC90E0958B848B86EC90E0978B868B05
:1009D000118E128E138E148EEBEFF2E013821282C0
:1009E0008AE292E09183808388E084838FEF85831D
:1009F00089E0868384E0878385E0808786E081873D
:100A000087E082871386148615861686178661E02E
:100A1000CF017DDEC2EFD2E088E090E09B838A8345
:100A20001D821C827BD199838883DF91CF910895A9
:100A3000789484B5826084BD84B5816084BD85B5B9
:100A4000826085BD85B5816085BD80916E008160C5
:100A500080936E001092810080918100826080936B
:100A6000810080918100816080938100809180006D
:100A70008160809380008091B10084608093B10098
:100A80008091B00081608093B0008091910082607D
:100A9000809391008091910081608093910080917A
:100AA00090008160809390008091A100826080938B
:100AB000A1008091A10081608093A1008091A0009D
:100AC00081608093A0008091210182608093210148
:100AD00080912101816080932101809120018160BA
:100AE0008093200180917A00846080937A008091C5
:100AF0007A00826080937A0080917A00816080938E
:100B00007A0080917A00806880937A001092C10008
:100B10008091F6029091F702892B21F01092F70252
:100B20001092F6028091F6029091F70284309105BE
:100B300008F042C08091F4029091F502049750F5BC
:100B4000C091F202D091F3028CE090E09093F50214
:100B50008093F402E3D09093F3028093F20220E0BA
:100B600030E08091F6029091F7022817390780F45F
:100B7000E091F202F091F302E20FF31F309729F0B7
:100B8000DE01A20FB31F8C9180832F5F3F4FE9CF0F
:100B9000CE0159D18091F6029091F70284309105EF
:100BA00068F4E091F202F091F302E80FF91F309738
:100BB00009F010820196F2CF049731F084E090E0C2
:100BC0009093F7028093F602E091F202F091F30223
:100BD00082E780838FE68183828384E783838AE050
:100BE00090E0909352028093510260E48BEF92E088
:100BF0008CDDC8E0D2E069918BEF92E081DD22E0EC
:100C0000C031D207C1F768E48BEF92E07EDDC0E02F
:100C1000D2E069918BEF92E073DD82E0C830D807B3
:100C2000C1F762E08BEF92E072DDE0916502F09136
:100C3000660282E08083E0916102F091620210829C
:100C4000E0916302F09164028FEC808310926D0258
:100C5000E0916902F0916A0286E08083E091670288
:100C6000F0916802808180618083E0916702F09159
:100C70006802808188608083E0916702F091680259
:100C8000808180688083E0916702F09168028081B2
:100C90008F7D80834CE050E06EE272E08BEF92E05B
:100CA00006DB10E4CBE3DFE180917B00877F80935C
:100CB0007B0010937C0080917A00806480937A009E
:100CC00080917A0086FDFCCF809178002091790098
:100CD00090E0922B90935402809353028F3792406E
:100CE00071F461E08BEF92E010DDCE010197F1F736
:100CF0004CE050E06BE372E08BEF92E0D8DAC1DBBE
:100D0000D3CF8091F2029091F3029DC0EE0FFF1FAE
:100D1000881F8BBF0790F691E02D1994CF93DF9336
:100D20008230910510F482E090E0E0911503F0919B
:100D3000160320E030E0C0E0D0E0309711F14081B0
:100D4000518148175907C0F04817590761F482814B
:100D50009381209719F09B838A832BC0909316036D
:100D60008093150326C02115310519F0421753074A
:100D700018F49A01BE01DF01EF010280F381E02D3A
:100D8000DCCF2115310509F1281B390B2430310541
:100D900090F412968D919C9113976115710521F035
:100DA000FB019383828304C0909316038093150301
:100DB000FD01329644C0FD01E20FF31F8193919330
:100DC000225031092D933C933AC020911303309166
:100DD0001403232B41F4209112023091130230931B
:100DE0001403209313032091100230911102211556
:100DF000310541F42DB73EB74091140250911502D0
:100E0000241B350BE0911303F0911403E217F30751
:100E1000A0F42E1B3F0B2817390778F0AC014E5F6A
:100E20005F4F2417350748F04E0F5F1F5093140390
:100E3000409313038193919302C0E0E0F0E0CF016F
:100E4000DF91CF9108950F931F93CF93DF93009776
:100E500009F48CC0FC0132971382128200911503B1
:100E6000109116030115110581F420813181820F43
:100E7000931F20911303309114032817390779F534
:100E8000F0931403E093130371C0D80140E050E0E5
:100E9000AE17BF0750F412962D913C911397AD01F8
:100EA0002115310509F1D901F3CF9D01DA01338311
:100EB000228360817181860F971F8217930769F4DF
:100EC000EC0128813981260F371F2E5F3F4F318378
:100ED00020838A819B8193838283452B29F4F0931D
:100EE0001603E093150342C01396FC93EE931297FA
:100EF000ED01499159919E01240F351FE217F30727
:100F000071F480819181840F951F029611969C93B4
:100F10008E938281938113969C938E931297E0E037
:100F2000F0E0D80112968D919C911397009719F0DB
:100F3000F8018C01F6CF8D919C9198012E5F3F4F67
:100F4000820F931F20911303309114032817390740
:100F500069F4309729F4109216031092150302C019
:100F6000138212821093140300931303DF91CF9125
:100F70001F910F91089581E090E0F89400C011E076
:100F8000C8E0D1E000E005C0802FFE01BFDE219661
:100F9000011DC930D10780E00807B1F7F894FFCFF1
:100FA000000404041F0E040000040E1F04040400C7
:100FB00000001703800000000000DA015701A401BF
:100FC0008201960120020000000080035701507248
:100FD0006573732053656C6563740048454C4C4FD2
:080FE00020574F524C44210040
:00000001FF
